:100000000C9405060C942D060C942D060C942D06CC
:100010000C942D060C942D060C942D060C942D0694
:100020000C942D060C942D060C942D060C942D0684
:100030000C942D060C942D060C942D060C942D0674
:100040000C9480170C942D060C94CB0D0C94A50DDC
:100050000C942D060C942D060C942D060C942D0654
:100060000C94FD0D0C942D0608000000BE9224494E
:10007000123EABAAAA2ABECDCCCC4C3E00000080DA
:10008000BEABAAAAAA3E00000000BF000000803F4D
:100090000000000000084178D3BB4387D1133D190D
:1000A0000E3CC3BD4282AD2B3E68EC8276BED98F3A
:1000B000E1A93E4C80EFFFBE01C4FF7F3F0000007E
:1000C000000007634236B79BD8A71A39685618AEA6
:1000D000BAAB558C1D3CB7CC5763BD6DEDFD753E7D
:1000E000F6177231BF000000803F00407A10F35ACB
:1000F00000A0724E18090010A5D4E80000E8764868
:10010000170000E40B54020000CA9A3B000000E113
:10011000F505000080969800000040420F000000A6
:10012000A08601000000102700000000E803000086
:1001300000006400000000000A0000000000010050
:10014000000000002C76D888DC674F0823DFC1DF71
:10015000AE59E1B1B796E5E3E453C63AE651997674
:1001600096E8E6C28426EB898C9B62ED407C6FFCAE
:10017000EFBC9C9F40F2BAA56FA5F490055A2AF7F0
:100180005C936B6CF9676DC11BFCE0E40D47FEF5F9
:1001900020E6B500D0ED902E030094357705008061
:1001A000841E080000204E0A000000C80C333333C0
:1001B000330F986E12831141EF8D2114893BE65560
:1001C00016CFFEE6DB18D1844B381BF77C1D901D43
:1001D000A4BBE424203284725E228100C9F124ECA5
:1001E000A1E53D2700000000240027002A000000B0
:1001F0000000250028002B00040404040404040467
:1002000002020202020203030303030301020408C1
:100210001020408001020408102001020408102070
:1002200000000008000201000003040700000000B5
:100230000000000000000000003E5B4F5B3E3E6B94
:100240004F6B3E1C3E7C3E1C183C7E3C181C577D70
:10025000571C1C5E7F5E1C00183C1800FFE7C3E7BC
:10026000FF0018241800FFE7DBE7FF30483A060ECE
:100270002629792926407F050507407F05253F5A15
:100280003CE73C5A7F3E1C1C08081C1C3E7F142285
:100290007F22145F5F005F5F06097F017F00668930
:1002A000956A606060606094A2FFA29408047E0476
:1002B0000810207E201008082A1C08081C2A08089C
:1002C0001E101010100C1E0C1E0C30383E3830065C
:1002D0000E3E0E06000000000000005F0000000758
:1002E000000700147F147F14242A7F2A1223130886
:1002F000646236495620500008070300001C224162
:10030000000041221C002A1C7F1C2A08083E080805
:1003100000807030000808080808000060600020B5
:10032000100804023E5149453E00427F4000724998
:100330004949462141494D331814127F102745453C
:1003400045393C4A49493141211109073649494952
:1003500036464949291E00001400000040340000C0
:100360000008142241141414141400412214080229
:10037000015909063E415D594E7C1211127C7F499C
:100380004949363E414141227F4141413E7F4949F1
:1003900049417F090909013E414151737F0808081D
:1003A0007F00417F41002040413F017F08142241EE
:1003B0007F404040407F021C027F7F0408107F3E48
:1003C0004141413E7F090909063E4151215E7F09B5
:1003D000192946264949493203017F01033F40401C
:1003E000403F1F2040201F3F4038403F6314081407
:1003F0006303047804036159494D43007F4141413F
:100400000204081020004141417F0402010204401F
:1004100040404040000307080020545478407F28A3
:100420004444383844444428384444287F38545499
:10043000541800087E090218A4A49C787F080404BC
:100440007800447D40002040403D007F102844005B
:1004500000417F40007C047804787C0804047838EC
:1004600044444438FC1824241818242418FC7C081C
:10047000040408485454542404043F44243C404099
:10048000207C1C2040201C3C4030403C442810284C
:10049000444C9090907C4464544C44000836410095
:1004A0000000770000004136080002010204023C0F
:1004B0002623263C1EA1A161123A4040207A3854DE
:1004C0005455592155557941225454784221555457
:1004D000784020545579400C1E52721239555555AA
:1004E00059395454545939555454580000457C4195
:1004F0000002457D420001457C407D1211127DF0D5
:10050000282528F07C545545002054547C547C0AFE
:10051000097F4932494949323A4444443A324A48C7
:1005200048303A4141217A3A42402078009DA0A0CB
:100530007D3D4242423D3D4040403D3C24FF24241D
:10054000487E4943662B2FFC2F2BFF0929F620C03C
:10055000887E090320545479410000447D4130488D
:10056000484A32384040227A007A0A0A727D0D19D0
:10057000317D2629292F28262929292630484D4032
:1005800020380808080808080808382F10C8ACBA2E
:100590002F102834FA00007B000008142A142222AD
:1005A000142A14085500550055AA55AA55AAFF55F6
:1005B000FF55FF000000FF00101010FF001414147E
:1005C000FF001010FF00FF1010F010F0141414FCC6
:1005D000001414F700FF0000FF00FF1414F404FCE3
:1005E000141417101F10101F101F1414141F0010C4
:1005F0001010F0000000001F101010101F1010103D
:1006000010F010000000FF1010101010101010104B
:10061000FF10000000FF140000FF00FF00001F108B
:10062000170000FC04F414141710171414F404F445
:100630000000FF00F714141414141414F700F71436
:100640001414171410101F101F141414F414101085
:10065000F010F000001F101F0000001F1400000029
:10066000FC140000F010F01010FF10FF141414FF21
:10067000141010101F00000000F010FFFFFFFFFF1C
:10068000F0F0F0F0F0FFFFFF0000000000FFFF0FB0
:100690000F0F0F0F3844443844FC4A4A4A347E0254
:1006A000020606027E027E026355494163384444D5
:1006B0003C04407E201E2006027E020299A5E7A58A
:1006C000991C2A492A1C4C7201724C304A4D4D30FB
:1006D0003048784830BC625A463D3E494949007E20
:1006E0000101017E2A2A2A2A2A44445F44444051B7
:1006F0004A444040444A51400000FF0103E080FF6B
:10070000000008086B6B083612362436060F090FF6
:1007100006000018180000001010003040FF010112
:10072000001F01011E00191D1712003C3C3C3C003B
:1007300000000000000103070F1F3F7F0080C0E0A2
:10074000F0F8FCFE2200FF2100DB40A4A62EAF2023
:1007500000A1C8D300408DAED580A8000060000085
:10076000000000000000000000000000E0000000A9
:100770000000000000000000000001E00000000098
:1007800000000000000000000001F0000000000078
:10079000000000000000000003F000000000000066
:1007A0000000000000000007F00000000000000052
:1007B00000000000000007F800000000000000003A
:1007C00000000000000FF800000003C0007E0000E1
:1007D00001E0007F0FF800000003C000FE000001F0
:1007E000E000FFEFF800000003C000FE000001E0A1
:1007F00000FFFFF800000003C000F00000000F0041
:100800007FFE7FC0000003C000F00000000F003F2B
:10081000FE7FF83FF1FBCFFCFEF3BC3DEFE01FFE97
:100820007FFF7FFBFFDFFEFEFFBC3DEFE01FC6FF4B
:10083000FF7FFBFFDFFEFEFFBC3DEFE00FE3C7FEE7
:10084000787BC3DE1EF0FFBC3DEF0007FF87FC781E
:100850007BC3DE1EF0F83C3DEF0001FFFFF0007BA4
:10086000C3C01EF0F03C3DEF0001F37FE03FFBC34F
:10087000CFFEF0F03C3DEF0003E33F807FFBC3DFA2
:10088000FEF0F03C3DEF0007E73C00787BC3DE1E46
:10089000F0F03C3DEF0007FFBE00787BC3DE1EF0AA
:1008A000F03C3DEF0007FFFE00787BC3DE1EF0F05A
:1008B0003C3DEF000FFFFE007FFBFFDFFEF0F03F4F
:1008C000FDEFE00FFFFF007FFBFFDFFEF0F03FFDDD
:1008D000EFE00FF9FF003E79F9CF9EF0F01F3DE702
:1008E000E01FF1FF00000000000000000000000019
:1008F0001F80FF007FFFFFFFFFFFFFFFFFFFE01CE8
:10090000007F007FFFFFFFFEB46D888D18E00000C0
:100910001F007FFFFFFFFE95AD7DB577E000000F64
:10092000007FFFFFFFFEA5AD9D8D19E000000600D2
:100930007FFFFFFFFEB5ADEDB57EE00000000000DB
:1009400001800000000000000000000380000000A3
:1009500000000000000007C00000000000000000D0
:100960000007C00000000000000000000FC00000F1
:10097000000000000000001FE00000000000000078
:1009800000001FE00000000000000000003FE00049
:1009900000000000000000003FF000000000000028
:1009A0000000007FF0000000000000001FF87FF052
:1009B000000000000000003FFE7FF000000000008B
:1009C00000003FFF7FF0000000000000001FFFFB61
:1009D000E0000000000000000FFFF9FFC000000071
:1009E0000000000FFFF9FFF800000000000007FF03
:1009F000F1FFFF00000000000003FC73FFFF800018
:100A00000000000001FE3FFFFF800000000000002A
:100A1000FF1E0FFF000000000000007FFE1FFC0013
:100A20000000000000003FFFFFF800000000000091
:100A3000000FDFFFE0000000000000001F19FFC0F2
:100A4000000000000000003F3CFF0000000000002C
:100A500000007E7CF800000000000000007FFE7CAB
:100A60000000000000000000FFFFFC00000000008C
:100A7000000000FFFFFE0000000000000000FFFF7C
:100A8000FE0000000000000001FFEFFE000000007B
:100A900000000001FFCFFE0000000000000003FF87
:100AA00007FE0000000000000003FC07FE0000003D
:100AB0000000000003F003FE000000000000000141
:100AC0008000FE000000000000000000007E00002A
:100AD00000000000000000003E00000000000000D8
:100AE0000000000C000000000000078000FC000077
:100AF00003C0000000078001FC000003C0000000EC
:100B0000078001FC000003C0000000078001E00036
:100B100000001E000000078001E00000001E007FB2
:100B2000E3F79FF9FDE7787BDFC0FFF7FFBFFDFD2F
:100B3000FF787BDFC0FFF7FFBFFDFDFF787BDFC0E5
:100B4000F0F787BC3DE1FF787BDE00F0F787BC3D26
:100B5000E1F0787BDE0000F787803DE1E0787BDE26
:100B6000007FF7879FFDE1E0787BDE00FFF787BF1E
:100B7000FDE1E0787BDE00F0F787BC3DE1E0787BCB
:100B8000DE00F0F787BC3DE1E0787BDE00F0F78720
:100B9000BC3DE1E0787BDE00FFF7FFBFFDE1E07FD9
:100BA000FBDFC0FFF7FFBFFDE1E07FFBDFC07CF3B1
:100BB000F39F3DE1E03E7BCFC0000000000000005D
:100BC00000000000FFFFFFFFFFFFFFFFFFFFC0FF70
:100BD000FFFFFFFD68DB111A31C0FFFFFFFFFD2B98
:100BE0005AFB6AEFC0FFFFFFFFFD4B5B3B1A33C0B0
:100BF000FFFFFFFFFD6B5BDB6AFDC0000000002311
:100C0000002600290000D917CA1711241FBECFEFF4
:100C1000D8E0DEBFCDBF23E0ACE6B1E001C01D925D
:100C2000A032B207E1F711E0A0E0B1E0E8E4FAE4B5
:100C300002C005900D92AC36B107D9F716E0C4E0BA
:100C4000D6E004C02197FE010E940E23C330D107D5
:100C5000C9F70E945C180C9417250C940000CF92E1
:100C6000DF92EF92FF920F931F93CF93DF936C016C
:100C70007A018B01C0E0D0E0CE15DF0581F0D8010C
:100C80006D918D01D601ED91FC910190F081E02DE7
:100C9000C6010995892B11F02196EECF7E01C7017F
:100CA000DF91CF911F910F91FF90EF90DF90CF9048
:100CB0000895FC01538D448D252F30E0842F90E062
:100CC000821B930B541710F0CF9608950197089547
:100CD000FC01918D828D981761F0828DDF01A80F44
:100CE000B11D5D968C91928D9F5F9F73928F90E066
:100CF00008958FEF9FEF0895FC01918D828D9817D5
:100D000031F0828DE80FF11D858D90E008958FEF11
:100D10009FEF0895FC01918D228D892F90E0805CDA
:100D20009F4F821B91098F73992708958AE192E062
:100D30000E948A0621E0892B09F420E0822F089581
:100D4000FC01848DDF01A80FB11DA35ABF4F2C9168
:100D5000848D90E001968F739927848FA689B78937
:100D60002C93A089B1898C91837080648C93938D2E
:100D7000848D981306C00288F389E02D80818F7DD1
:100D800080830895EF92FF920F931F93CF93DF9389
:100D9000EC0181E0888F9B8D8C8D981305C0E889CC
:100DA000F989808185FD26C0F62E0B8D10E00F5F3E
:100DB0001F4F0F731127E02E8C8DE8120CC00FB659
:100DC00007FCFACFE889F989808185FFF5CFCE014C
:100DD0000E94A006F1CF8B8DFE01E80FF11DE35AB2
:100DE000FF4FF0829FB7F8940B8FEA89FB898081CF
:100DF00080620AC09FB7F894EE89FF896083E88912
:100E0000F98980818370806480839FBF81E090E056
:100E1000DF91CF911F910F91FF90EF900895CF93A5
:100E2000DF93EC01888D8823C9F0EA89FB898081F2
:100E300085FD05C0A889B9898C9186FD0FC00FB6C4
:100E400007FCF5CF808185FFF2CFA889B9898C9105
:100E500085FFEDCFCE010E94A006E7CFDF91CF91B5
:100E6000089580E090E0892B29F00E949606811178
:100E70000C940000089585ED8093BC008091BC0027
:100E800084FDFCCF1092F50108954091AC01262F0E
:100E900030E0240F311D21323105DCF42091F501C1
:100EA0002430C9F4FC0180E090E0861758F43091BA
:100EB000AC012191DC01A457BE4FA30FB11D2C93AF
:100EC0000196F3CF8091AC01680F6093AC0180E094
:100ED000089581E0089582E00895089508950895A1
:100EE000E091080380910703E81730F4F0E0E4593B
:100EF000FE4F808190E008958FEF9FEF08959091CD
:100F0000080380910703981750F4E92FF0E0E459A3
:100F1000FE4F208130E09F5F9093080302C02FEFC7
:100F20003FEFC90108958091070390E020910803E5
:100F3000821B91090895CF92DF92EF92FF920F9357
:100F40001F93CF93DF937C01CB018A012091F6019F
:100F5000222389F0EB016B01C40ED51ECC15DD05F3
:100F600069F06991D701ED91FC910190F081E02D3C
:100F7000C7010995F3CF642F0E944507C801DF918F
:100F8000CF911F910F91FF90EF90DF90CF90089538
:100F9000CF93DF931F92CDB7DEB769832091F6011F
:100FA0002223D1F020911902203240F021E030E0DC
:100FB000FC013383228380E090E015C08091F7012B
:100FC000E82FF0E0E850FE4F998190838F5F809387
:100FD000F7018093190205C061E0CE0101960E94DD
:100FE000450781E090E00F90DF91CF91089508953B
:100FF000FC016370668B8481958126813781613025
:1010000039F0633029F091878087338722870895EC
:10101000318720879387828708956F927F928F927E
:101020009F92AF92BF92CF92DF92EF92FF920F9377
:101030001F93CF93DF93EC014B015A0169013801F3
:10104000E881F9810284F385E02D0995E881F98131
:101050000288F389E02D87019601A501B401CE0134
:101060000995A501460D571D41505109E881F981A7
:101070000288F389E02D9601B401CE010995E8813B
:10108000F9810088F189E02D9301A501B401CE0119
:101090000995C80CD91CB60161507109E881F98124
:1010A0000088F189E02D9301A501CE010995E88121
:1010B000F9810688F789E02DCE01DF91CF911F914C
:1010C0000F91FF90EF90DF90CF90BF90AF909F90E7
:1010D0008F907F906F9009948F929F92AF92BF9262
:1010E000CF92DF92EF92FF920F931F93CF93DF93F4
:1010F0004C016B015A01E901DC01ED91FC91621791
:10110000730781F40417150724F48B2D5801042F5D
:10111000182F0A191B0998012F5F3F4F048CF58D7A
:10112000E02D12C04017510709F52617370724F4A0
:101130008D2D6901C62FD82F9E012C193D092F5FD7
:101140003F4F068CF78DE02D8701A501B601C40144
:101150000995DF91CF911F910F91FF90EF90DF9054
:10116000CF90BF90AF909F908F9008950284F385A9
:10117000E02D0995D401ED91FC910488F589E02DCD
:101180009E01A501B601C4010995D401ED91FC9120
:101190000688F789E02DC401DF91CF911F910F914F
:1011A000FF90EF90DF90CF90BF90AF909F908F9087
:1011B0000994EF92FF920F931F93DC011A960D9101
:1011C0001C911B9718962D913C911997ED91FC91CC
:1011D00000A0F1A1E02D7B0140E050E060E070E074
:1011E00009951F910F91FF90EF9008954F925F9294
:1011F0006F927F928F929F92AF92BF92CF92DF9227
:10120000EF92FF920F931F93CF93DF936C012B010B
:101210005A0139014801DC01ED91FC910284F3850A
:10122000E02D0995E201640C751CD601ED91FC914D
:10123000C615D7055CF40088F189E02D870194017B
:10124000A501BE01C60109952196EFCF0688F78951
:10125000E02DC601DF91CF911F910F91FF90EF908C
:10126000DF90CF90BF90AF909F908F907F906F90C6
:101270005F904F9009948F929F92AF92BF92CF92BE
:10128000DF92EF92FF920F931F93CF93DF93EC01C6
:101290005B014A016901E881F9810284F385E02D4F
:1012A000099595012C0D3D1D21503109E881F981E9
:1012B0000488F589E02D78018401A401B501CE01EF
:1012C0000995E881F9810688F789E02DCE01DF9143
:1012D000CF911F910F91FF90EF90DF90CF90BF9033
:1012E000AF909F908F9009948F929F92AF92BF92F0
:1012F000CF92DF92EF92FF920F931F93CF93DF93E2
:10130000EC015B014A0169017801E881F9810284FD
:10131000F385E02D0995C80CD91C860101501109EF
:10132000E881F9810488F589E02D9501A401B501D2
:10133000CE010995E881F9810688F789E02DCE0173
:10134000DF91CF911F910F91FF90EF90DF90CF90A1
:10135000BF90AF909F908F900994EF92FF920F9360
:101360001F93DC01ED91FC9100A0F1A1E02D099506
:101370001F910F91FF90EF9008950F931F93DC0141
:10138000ED91FC91068CF78DE02D09951F910F9141
:1013900008950F931F93DC01ED91FC91048CF58D62
:1013A000E02D09951F910F910895DC01ED91FC91BD
:1013B0000084F185E02D09942F923F924F925F9225
:1013C0006F927F928F929F92AF92BF92CF92DF9255
:1013D000EF92FF920F931F93CF93DF9300D000D033
:1013E00000D0CDB7DEB72C017E836D836A01590131
:1013F000C801FC82EB824801841A950A97FE03C05B
:1014000091948194910835012D813E81621A730A6D
:1014100077FE03C0719461947108681479045CF4D8
:101420003A2D2B2D5C01832F922F3D812E81DE8260
:10143000CD82C32ED22EAD81BE81AA16BB065CF42E
:101440003C2D2D2D6C01832F922F3D812E81BE824C
:10145000AD82A32EB22E85012D813E81021B130B7E
:101460001C012C183D0837FE03C03194219431082B
:10147000780117FF03C03FEFE31AF30AF594E794EE
:10148000C816D9062CF08FEF9FEF9A83898304C08A
:10149000A1E0B0E0BA83A9832D813E81A216B306F4
:1014A00024F1D201ED91FC910484F585E02D2B818E
:1014B0003C816814790424F44D815E81B60103C037
:1014C000A6016D817E81C2010995E218F308F7FE3D
:1014D00006C029813A81C20ED31EE00EF11E8D8115
:1014E0009E8101969E838D83D7CF26960FB6F89462
:1014F000DEBF0FBECDBFDF91CF911F910F91FF9047
:10150000EF90DF90CF90BF90AF909F908F907F90A3
:101510006F905F904F903F902F900895FC0177FD62
:10152000B9C080859185681779070CF0B3C057FD65
:10153000B1C082859385481759070CF008958689B4
:10154000823079F484819581DC01A61BB70BBD0143
:101550006150710986819781DC01A41BB50BAD0137
:101560000EC0833009F084C064277527CA0186271E
:1015700097276827792746815781481B590B415087
:1015800051092130310531F048F12230310509F49B
:101590004AC00895CA0157FD07969C01A3E03595FE
:1015A0002795AA95E1F7A481B5812A9FC0012B9FB9
:1015B000900D3A9F900D1124680F791F078CF0A1B0
:1015C000E02DE60FF71F4770552781E090E001C03E
:1015D000880F4A95EAF79081892B48C0CA0157FDC8
:1015E00007969C0193E0359527959A95E1F7A4819C
:1015F000B5812A9FC0012B9F900D3A9F900D112419
:10160000680F791F078CF0A1E02DE60FF71F4770D8
:10161000552781E090E001C0880F4A95EAF7809550
:101620009081892323C0CA0157FD07969C0183E05E
:10163000359527958A95E1F7A481B5812A9FC00148
:101640002B9F900D3A9F900D1124680F791F078CE6
:10165000F0A1E02DE60FF71F4770552781E090E0DD
:1016600001C0880F4A95EAF7908189278083089501
:10167000813009F086CF64277527462757276427CE
:10168000752784819581DC01A61BB70BBD016150D4
:10169000710977CF0895089580E090E008950F9341
:1016A0001F93CF93DF93EC0188819981009729F0F4
:1016B0002A813B812617370788F48B016F5F7F4FA4
:1016C0000E943524009761F0998388831B830A83E5
:1016D0002C813D81232B11F4FC01108281E001C09B
:1016E00080E0DF91CF911F910F9108958F929F928B
:1016F000AF92CF92EF92FF920F931F93CF93DF930E
:10170000EC01262F898D9A8D009709F042C06A302E
:1017100059F41D861C862D898E859F8538E0239F70
:10172000800D911D112443C06D3009F4AAC08F892A
:101730008823C9F03C898C859D8546E0349F800DC7
:10174000911D1124488559854817590764F41D8651
:101750001C863D898E859F8548E0349F800D911DB4
:1017600011249F878E87EA88FB88088919894E850E
:101770005F856C857D85AD88CC88CE010E94401444
:101780002C898C859D8536E0239F800D911D112429
:101790003EC06A3079F41D861C862D89FC0138967E
:1017A000E4918E859F852E9F800D911D11249F872A
:1017B0008E8767C06D3009F464C0FC0134963491A3
:1017C000631708F45EC03296E491E61708F459C036
:1017D000462F431B342FFC0132968590949047E0AE
:1017E000349F800C911C1124F4013296349131966F
:1017F000E491332311F0E1110DC0F4013496E4912A
:101800002C898C859D85E29F800D911D11249D87DB
:101810008C8737C0F401359644915F89552319F1BF
:101820005C89E32FF0E0E40FF11D47FDFA955E9F20
:10183000B0015F9F700D11244C855D85460F571FC9
:10184000688579856417750774F41D861C863D8943
:10185000FC013896E4918E859F853E9F800D911DF9
:1018600011249F878E87EA88FB88088919894E850D
:101870005F856C857D85AD88CC88CE010E94401443
:10188000BCCF81E090E0DF91CF911F910F91FF904D
:10189000EF90CF90AF909F908F9008950F931F93EC
:1018A000CF93DF93DC015696EC915697E23071F0BE
:1018B000E330E9F0E13079F5FB0114960D90BC912D
:1018C000A02DA41BB50BA21BB30B18C0EC01EC811F
:1018D000FD81E61BF70BBF0161507109EE81FF81AD
:1018E000DF01A41BB50BAD01421B530B14C0DA0181
:1018F000EC01EE81FF81E61BF70B3197F7FD0DC080
:10190000EC014E815F81E417F5073CF4AF01BD01A6
:101910000E94241302C00E948B13DF91CF911F916C
:101920000F9108950F931F93DC015696EC915697F3
:10193000E23061F0E33009F1E13081F51496ED9188
:10194000FC911597E41BF50B319723C0DC0114962D
:10195000ED91FC911597DF01A61BB70BBD01DC01D2
:101960001696ED91FC911797DF01A41BB50BAD0105
:1019700041505109621B730B11C0FA01DC0116962C
:101980004D915C911797DA01A61BB70BBD01621B45
:10199000730BAB01BF010E948B130CC057FD0AC033
:1019A000DC011696ED91FC9117974E175F0714F422
:1019B0000E9424131F910F910895EF92FF920F93AD
:1019C0001F93CF93DF936115710511F480E01CC064
:1019D00041155105C1F07B01EC018C819D818A018B
:1019E000080F191FB801CE010E944F0B882371F315
:1019F000288139818C819D81B701820F931F0E94BC
:101A000010251D830C8381E0DF91CF911F910F91F1
:101A1000FF90EF900895CF93DF93EC018881998137
:101A2000009711F00E94AC23198218821D821C823B
:101A30001B821A82DF91CF910895EF92FF920F934C
:101A40001F93CF93DF93EC0186179707C1F0FB013B
:101A5000008111810115110539F0E480F580B7018D
:101A60000E944F0B811104C0CE010E940B0D07C0D4
:101A7000FD82EC82B801888199810E941025CE01F7
:101A8000DF91CF911F910F91FF90EF900895EF920A
:101A9000FF920F931F93CF93DF93EC01198218826B
:101AA0001B821A821D821C826115710521F18B0136
:101AB000FB0101900020E9F731977F01E61AF70A50
:101AC000B7010E944F0B811109C0CE01DF91CF9168
:101AD0001F910F91FF90EF900C940B0DFD82EC8203
:101AE000B80188819981DF91CF911F910F91FF906B
:101AF000EF900C941025DF91CF911F910F91FF90E3
:101B0000EF9008950F931F93CF93DF93EC01FB01A8
:101B10004481558160817181E881F9810280F3817E
:101B2000E02D09958C01E881F9810280F381E02D97
:101B300042E050E066E571E0CE010995800F911F0B
:101B4000DF91CF911F910F9108951F920F920FB6C1
:101B50000F9211242F933F934F935F936F937F9333
:101B60008F939F93AF93BF93EF93FF938AE192E09C
:101B70000E94A006FF91EF91BF91AF919F918F912D
:101B80007F916F915F914F913F912F910F900FBE79
:101B90000F901F9018951F920F920FB60F9211245D
:101BA0002F938F939F93EF93FF93E0912A02F091ED
:101BB0002B028081E0913002F091310282FD12C04F
:101BC0009081809133028F5F8F732091340282174E
:101BD00051F0E0913302F0E0E65EFD4F958F809387
:101BE000330201C08081FF91EF919F918F912F91DE
:101BF0000F900FBE0F901F9018951F920F920FB667
:101C00000F9211242F933F934F935F936F937F9382
:101C10008F939F93AF93BF93EF93FF938091B900FE
:101C2000887F803609F49CC068F5883209F45BC06F
:101C300090F4803109F454C038F4882309F4F6C0D4
:101C4000883009F44DC0F6C0883109F44CC08032A8
:101C500009F45DC0EFC0803409F468C048F48033F3
:101C600009F455C0883309F0E5C08093F301D8C06A
:101C7000803509F44FC0883509F45DC0883409F017
:101C8000D9C0D6C0883909F4C7C0A8F4883709F488
:101C900067C038F4883609F463C0803709F460C03F
:101CA000C9C0883809F4B8C0803909F45FC08038E9
:101CB00009F0C0C05BC0803B09F486C038F4803AAC
:101CC00009F466C0883A09F47FC0B4C0803C09F4C6
:101CD000A7C0883C09F4A4C0883B09F48AC0AAC004
:101CE0008091D00110C09091F2018091F10198177C
:101CF00070F5E091F20181E08E0F8093F201F0E047
:101D0000EF52FE4F80818093BB0085EC86C08093AC
:101D1000F3018EC0E091F20181E08E0F8093F20119
:101D20008091BB00F0E0EF52FE4F80839091F20172
:101D30008091F1016EC0E091F20181E08E0F8093FD
:101D4000F2018091BB00F0E0EF52FE4F8083809162
:101D5000F40181116DC081E08093CF0184EA61C0FC
:101D600083E08093F5011092CE01CFCF8091CE0118
:101D7000803208F051C0E091CE0181E08E0F809357
:101D8000CE018091BB00F0E0E255FE4F8083BDCFD5
:101D900085EC8093BC001092F5018091CE018032D9
:101DA00030F4E091CE01F0E0E255FE4F10826091F8
:101DB000CE0170E0E0910303F09104038EEA91E01C
:101DC00009951092CE0136C084E08093F5011092FF
:101DD000AD011092AC01E0910503F0910603099565
:101DE0008091AC01811105C081E08093AC0110921B
:101DF0008C01E091AD0181E08E0F8093AD01F0E0A8
:101E0000E457FE4F80818093BB009091AD0180919B
:101E1000AC01981708F479CF85E88093BC000AC01C
:101E200085EC8093BC001092F50104C01092F30180
:101E30000E943B07FF91EF91BF91AF919F918F91CE
:101E40007F916F915F914F913F912F910F900FBEB6
:101E50000F901F90189508958EBD00000DB407FED9
:101E6000FDCF8EB508951F93CF93DF93FC01858D31
:101E7000968D009729F1162FEF0121A131E03093C3
:101E8000F601209318021092F70110921902DC015A
:101E9000ED91FC910190F081E02D60E009958D8D30
:101EA0009E8DDC01ED91FC910190F081E02D612F80
:101EB00009958D8D9E8DDF91CF911F910C941310FC
:101EC000A5A5B6A59C9183A9809589238C93838D24
:101ED000948D892B31F0862FDF91CF911F910C9437
:101EE0002C0F28E030E080E8A1A5B2A591A9462FEB
:101EF000482319F04C91942B03C04C919095942356
:101F00009C93A3A5B4A54C9192A9942B9C93A3A5B3
:101F1000B4A54C9192A9909594239C9386952150B9
:101F2000310911F7DF91CF911F9108958CBD9DBDAF
:101F300008951F93CF93DF93EC01162F8D8D9E8D07
:101F4000892BB1F02DA93EA94FA958AD60E074E2EC
:101F500084EF90E00E94EC22DA01C9014097A109C8
:101F6000B109B695A795979587958093B8000FC04E
:101F70008B8D9C8D892B21F08EAD9FAD0E94960F8D
:101F8000EFA5F8A990818CA98095892380831111F0
:101F900002C066EA01C067EACE010E94330F8D8D50
:101FA0009E8D892BB1F029AD3AAD4BAD5CAD60E0B3
:101FB00074E284EF90E00E94EC22DA01C9014097BC
:101FC000A109B109B695A795979587958093B80013
:101FD00006C0EFA5F8A990818CA9892B8083DF9199
:101FE000CF911F9108952091BD023091BE02C90189
:101FF000079697FD079623E0959587952A95E1F733
:102000002091BB023091BC02829FA001839F500DA2
:10201000929F500D112460E070E08091D602909163
:10202000D7020C94092530911902313208F04BC0C7
:102030008091F5018111FCCF9091180222E020934C
:10204000F50121E02093F4012FEF2093F30110928A
:10205000F2013093F101E8EFF1E0A1EDB1E020E011
:10206000321721F041914D932F5FFACF1092D0019A
:102070002091D001990F922B9093D0019091CF0194
:10208000913061F41092CF019091D0019093BB00F8
:102090009091BC0093FDF8CF95EC01C095EE909324
:1020A000BC009091F5019230E1F39091F3019F3FD4
:1020B00079F08091F301803241F08091F301803317
:1020C00031F084E005C081E003C082E001C083E01C
:1020D0001092F701109219021092F6010895EF92F2
:1020E000FF920F931F93CF93DF937C01C62F8091B4
:1020F000D4029091D502009709F459C02091D802DA
:1021000031E03093F601209318021092F7011092FB
:102110001902DC01ED91FC910190F081E02D60E06D
:1021200009958701EE24E394F12CD1E08091D4024B
:102130009091D502CC2399F1B0E2EB16F104D8F0DE
:102140000E9413108091D802D093F6018093180258
:102150001092F701109219028091D4029091D50249
:10216000DC01ED91FC910190F081E02D60E009959A
:10217000EE24E394F12C8091D4029091D502F801E1
:102180006491DC01ED91FC910190F081E02D0995C5
:10219000BFEFEB1AFB0AC1500F5F1F4FC7CFDF9194
:1021A000CF911F910F91FF90EF900C941310E0913D
:1021B000E402F091E50290818091EA028095892302
:1021C00080838701CC2309F439C0F80184912091E0
:1021D000D2023091D302232B31F00E942C0FC15038
:1021E0000F5F1F4FEFCF28E030E040E8E091E002C2
:1021F000F091E1029091E802582F542319F0508198
:10220000952B03C05081909595239083E091E20235
:10221000F091E30250819091E902952B9083E09137
:10222000E202F091E30250819091E90290959523AA
:102230009083469521503109C9F6D1CFDF91CF91D6
:102240001F910F91FF90EF900895DF92EF92FF9210
:102250000F931F93CF93DF938091D4029091D50277
:10226000892BD1F02091EC023091ED024091EE02E9
:102270005091EF0260E074E284EF90E00E94EC2263
:10228000DA01C9014097A109B109B695A7959795BB
:1022900087958093B80016C08091D2029091D302A6
:1022A000892B31F08091F5029091F6020E94960FF1
:1022B000E091E602F091E70290818091EB02809537
:1022C0008923808365E084E497E00E946F10609129
:1022D000BB02615087EB92E00E94330F2091BD0258
:1022E0003091BE02C901079697FD079653E0959578
:1022F00087955A95E1F72091BB023091BC02829FED
:102300008001839F100D929F100D1124C091D60261
:10231000D091D7028091D4029091D5020C0F1D1F4D
:10232000009709F451C02091D80231E03093F601B2
:10233000209318021092F70110921902DC01ED911E
:10234000FC910190F081E02D60E40995EE24E39486
:10235000F12CDD24D3948091D4029091D5020C17F6
:102360001D0779F1B0E2EB16F104D8F00E941310CA
:102370008091D802D092F601809318021092F70152
:10238000109219028091D4029091D502DC01ED9156
:10239000FC910190F081E02D60E40995EE24E39436
:1023A000F12C8091D4029091D5026991DC01ED91DC
:1023B000FC910190F081E02D0995BFEFEB1AFB0A2B
:1023C000CACF0E94131041C0E091E402F091E502EF
:1023D00090818091EA02892B80830C171D07A9F157
:1023E00089912091D2023091D302232B19F00E94BF
:1023F0002C0FF3CF28E030E040E8E091E002F091CC
:10240000E1029091E802582F542319F05081952B46
:1024100003C05081909595239083E091E202F09162
:10242000E30250819091E902952B9083E091E202C2
:10243000F091E30250819091E90290959523908369
:10244000469521503109C9F6C8CF8091D4029091A8
:10245000D502892BD1F02091F0023091F102409108
:10246000F2025091F30260E074E284EF90E00E9487
:10247000EC22DA01C9014097A109B109B695A795E7
:10248000979587958093B80018C0E091E602F09187
:10249000E70290818091EB02892B80838091D202A8
:1024A0009091D302892B49F0DF91CF911F910F9129
:1024B000FF90EF90DF900C942B0FDF91CF911F9145
:1024C0000F91FF90EF90DF9008953F924F925F92AF
:1024D0006F927F928F929F92AF92BF92CF92DF9234
:1024E000EF92FF920F931F93CF93DF9300D000D012
:1024F00000D0CDB7DEB72C013B014A015901C9011B
:10250000079697FD07969C0193E0359527959A9538
:10251000E1F73C832B83C12CD12CE12CF12C312C05
:10252000C3018E0D9F1D9A838983E016F106C4F5C1
:102530001E821D822D813E812A153B054CF5C90165
:1025400087709927892B11F0330C0EC0ED81FE8125
:10255000F7FD379683E0F595E7958A95E1F7EC0D61
:10256000FD1DE80DF91D349037FE0CC021E030E070
:1025700049815A816D817E81640D751D87EB92E0E2
:102580000E94D5098D819E8101969E838D83D2CF35
:102590009FEFE91AF90A2B813C81C20ED31EC0CFEE
:1025A00026960FB6F894DEBF0FBECDBFDF91CF9158
:1025B0001F910F91FF90EF90DF90CF90BF90AF9061
:1025C0009F908F907F906F905F904F903F90089575
:1025D000FC01808191810C94AC23EF92FF920F93C8
:1025E0001F93CF93DF93CDB7DEB764970FB6F89400
:1025F000DEBF0FBECDBF7C01CB01BA018E010F5FE4
:102600001F4F22E044E00E94041DFC0101900020C5
:10261000E9F73197AF01481B590BBC01C7010E9474
:10262000DD0C811103C0C7010E940B0DC701649628
:102630000FB6F894DEBF0FBECDBFDF91CF911F91D3
:102640000F91FF90EF9008950F931F93CF93DF9317
:1026500077FF04C0260F371F60E070E0DC0114969E
:10266000CD91DC911597FB01E20FF31FCE17DF0729
:102670001CF49E01261B370B121613060CF046C0E5
:10268000FA0157FD3796DF01E3E0B595A795EA9586
:10269000E1F7AC9FF001AD9FF00DBC9FF00D112450
:1026A0006E0F7F1FDC015F96ED91FC919097E60F16
:1026B000F71F4770552781E090E001C0880F4A95C9
:1026C000EAF7482F0130110539F078F00230110592
:1026D000E9F42E0F3F1F13C02E0F3F1FE217F30721
:1026E000A9F08081842B8193F9CF80952E0F3F1F15
:1026F000E217F30759F0908198239193F9CFE217ED
:10270000F30721F0808184278193F9CFDF91CF9166
:102710001F910F910895EF92FF920F931F93CF9304
:10272000DF93EC0177FDA5C0EC80FD806E157F0581
:102730000CF09FC057FF04C0240F351F40E050E04D
:102740008E819F81FA01E20FF31F8E179F071CF401
:102750009C01241B350B121613060CF08AC0922F15
:10276000842F8695869586958E9DD0018F9DB00D80
:1027700011246A0F7B1FAF8DB8A1A60FB71F47703A
:10278000B1F188E0841B482F682F70E0FB01E45C06
:10279000F84FE491281798F4621B71092FEF30E08D
:1027A00002C0359527956A95E2F7E22301301105BD
:1027B00049F078F00230110509F05BC00EC001301D
:1027C000110519F48C91E82B0AC00130110508F0AD
:1027D00049C0E0958C91E82302C08C91E827EC93E6
:1027E000941708F446C02C813D81A20FB31FE92F36
:1027F000E41BE830F8F00230110561F48E2F9C9153
:1028000090959C932C813D81A20FB31F88508830F6
:10281000B0F70FC081E00115110509F480E0819542
:102820009E2F8C932C813D81A20FB31F985098301E
:10283000C0F7E770EE23E9F0F0E0EC5CF84FE491CC
:102840000130110539F048F00230110591F48C91F6
:10285000E82706C08C91E82B03C0E0958C91E82313
:10286000EC9307C00230110509F4B7CFAE0DBF1DC0
:10287000BECFDF91CF911F910F91FF90EF90089500
:102880002F923F924F925F926F927F928F929F9280
:10289000AF92BF92CF92DF92EF92FF920F931F936E
:1028A000CF93DF93CDB7DEB76B970FB6F894DEBF4B
:1028B0000FBECDBF9B8F8A8F1B014A01D22E198775
:1028C00008873701A982DC0159962D913C915A97CE
:1028D0002115310509F0FFC018968D919C9119972B
:1028E000681779070CF0E7C11A968D919C911B9798
:1028F000481759070CF0DFC1EC2DF0E0FB83EA83A9
:102900009B0146E0C49E200D311D11243D872C877C
:10291000121613060CF0CFC16A2D70E07B876A8710
:1029200083E0660F771F8A95E1F77F876E87CB017B
:10293000880D991D181619060CF0BDC158968C917A
:10294000811104C08FEA8D1508F4D394AA8DBB8D34
:10295000ED91FC9111970284F385E02DCD0109954D
:10296000B5E0DB9EC0011124EC2DF0E0F98BE88B83
:1029700091012B5F3F4F3B8B2A8B3D822C822101A3
:10298000AC01421953095D8B4C8B7981672F70E044
:102990007F8B6E8BC4010896998F888FEC89FD8997
:1029A000E40DF51DEC5CFD4FD49054019F828E82A6
:1029B000D0FE16C0AA8DBB8DED91FC91B1E0CB127B
:1029C00009C02981213031F40484F585E02D288562
:1029D000398519C00684F785E02DE884F9841DC087
:1029E000488559854615570519F1AA8DBB8DED917E
:1029F000FC91B1E0CB120DC02981213051F4048447
:102A0000F585E02D9301A501B2018A8D9B8D099575
:102A10000FC00684F785E02D73010A851B852A8186
:102A20003B814E815F816C817D818A8D9B8D099573
:102A3000D6943FEFA31AB30A4E815F816E897F89D6
:102A4000460F571F5F834E83888D998DA816B90650
:102A500009F0AECF9FEF491A590AAC81BD81E889D0
:102A6000F989AE0FBF1FBD83AC832A893B8942160B
:102A7000530609F093CF488559854615570509F443
:102A8000F8C0AA8DBB8DED91FC91B1E0CB1211C0C5
:102A90002981213071F4B1016B5F7F4F0088F1898A
:102AA000E02D830128E030E0A4018A8D9B8D0995FB
:102AB000E0C06C857D854A815B81641B750B068453
:102AC000F785E02D73010E851F859A01A4018A8D7B
:102AD0009B8D0995CEC0F9013496E491DE1AF90177
:102AE000329685919491B7E0DB9E800D911D112463
:102AF000F901259134913B8B2A8BFC01259134916E
:102B00005901FC0132965490319634913C873296AB
:102B100074903196149141E04C1518F0598152305F
:102B200068F0672D072C000C770B7D836C83812F59
:102B3000012E000C990B9B838A8304C01B821A828E
:102B40001D821C82AA8DBB8DED91FC911197028490
:102B5000F385E02DCD010995412CD12C612CF98113
:102B6000EF2FF0E0FF83EE832C2D30E03B872A87A8
:102B7000A401410F511D17FD5A955F8B4E8BB1017A
:102B8000670D711D77FC7A95798F688F7C85671644
:102B900008F06FC0262D30E04A815B81420F531F41
:102BA000AE81BF81A49FC001A59F900DB49F900DE1
:102BB0001124F401E80FF91FF98BE88B842D712C97
:102BC0004E895F89420F531F5D8B4C8B751408F043
:102BD0004DC051E0580F5E87877041F4C5010196E2
:102BE000EA89FB89EA0DFB1DD4905C01D7FE3AC04F
:102BF00061E0C61216C07981713099F4AA8DBB8D3F
:102C0000ED91FC9111970484F585E02D2885398597
:102C10004C895D89688D798D670D711DCD01099590
:102C200021C08C819D81870D911DEA85FB858E9F3A
:102C3000B0018F9F700D9E9F700D1124620D731D4A
:102C4000AA8DBB8DED91FC9111970684F785E02D3F
:102C5000E884F9840E811F812A853B85488959893A
:102C6000CD010995DD0C73948E85B0CF450C63942E
:102C70008DCFAA8DBB8DED91FC9111970688F789B8
:102C8000E02DCD016B960FB6F894DEBF0FBECDBF21
:102C9000DF91CF911F910F91FF90EF90DF90CF9038
:102CA000BF90AF909F908F907F906F905F904F906C
:102CB0003F902F9009946B960FB6F894DEBF0FBE2D
:102CC000CDBFDF91CF911F910F91FF90EF90DF90DB
:102CD000CF90BF90AF909F908F907F906F905F90BC
:102CE0004F903F902F900895833081F028F48130E9
:102CF00099F08230A1F008958730A9F08830B9F0BA
:102D00008430D1F4809180008F7D03C08091800059
:102D10008F7780938000089584B58F7702C084B543
:102D20008F7D84BD08958091B0008F7703C080911E
:102D3000B0008F7D8093B00008951F93CF93DF93F1
:102D4000282F30E0F901E05EFD4F8491F901E45F46
:102D5000FD4FD491F901E850FE4FC491CC23C1F04E
:102D6000162F81110E947416EC2FF0E0EE0FFF1F5A
:102D7000E251FE4FA591B4919FB7F894111104C090
:102D80008C91D095D82302C0EC91DE2BDC939FBFB1
:102D9000DF91CF911F910895CF93DF9390E0FC01D5
:102DA000E45FFD4F2491FC01E850FE4F849188239D
:102DB00061F190E0880F991FFC01EC51FE4FC59125
:102DC000D491FC01E251FE4FA591B491611109C06B
:102DD0009FB7F8948881209582238883EC912E23D5
:102DE0000BC0623061F49FB7F8948881322F309520
:102DF00083238883EC912E2B2C939FBF06C08FB723
:102E0000F894E8812E2B28838FBFDF91CF9108950E
:102E10008E3008F08E508770806480937C008091A3
:102E20007A00806480937A0080917A0086FDFCCFDE
:102E3000809178002091790090E0922B08958F92F4
:102E40009F92AF92BF92CF92DF92EF92FF926B016F
:102E50007C010E945B174B015C01C114D104E104A9
:102E6000F104F1F00E945B17DC01CB01881999098C
:102E7000AA09BB09883E9340A105B10570F321E082
:102E8000C21AD108E108F10888EE880E83E0981E86
:102E9000A11CB11CC114D104E104F10419F7DDCF68
:102EA000FF90EF90DF90CF90BF90AF909F908F906A
:102EB00008950E94FB243FB7F894809118039091E5
:102EC0001903A0911A03B0911B0326B5A89B05C056
:102ED0002F3F19F00196A11DB11D3FBFBA2FA92F99
:102EE000982F8827820F911DA11DB11DBC01CD0116
:102EF00042E0660F771F881F991F4A95D1F7089502
:102F00001F920F920FB60F9211242F933F938F931E
:102F10009F93AF93BF938091140390911503A09159
:102F20001603B09117033091130323E0230F2D37BD
:102F300020F40196A11DB11D05C026E8230F0296BD
:102F4000A11DB11D209313038093140390931503C7
:102F5000A0931603B093170380911803909119035F
:102F6000A0911A03B0911B030196A11DB11D80937E
:102F7000180390931903A0931A03B0931B03BF91F6
:102F8000AF919F918F913F912F910F900FBE0F9016
:102F90001F9018958EE291E09093B8028093B7024B
:102FA0008091D6029091D702009711F00C94AC2337
:102FB0000895EAE1F2E01382128248EE53E060E005
:102FC00070E044835583668377838AE091E0918340
:102FD000808385EC90E09587848784EC90E09787E8
:102FE000868780EC90E0918B808B81EC90E0938BD6
:102FF000828B82EC90E0958B848B86EC90E0978BB3
:10300000868B118E128E138E148EA7EFB2E013965C
:103010001C921E92129714964D935D936D937C9320
:1030200017978CE191E011969C938E93E7EBF2E079
:103030001382128220E830E03583248380E490E01C
:10304000978386833187208793878287168A1586A0
:1030500014861786168681E0858B848B2FEF3FEFD1
:10306000338B228B318B208B878B108E128E118E9F
:103070008EE291E091838083148E138EB68FA58F9C
:1030800010A2178E8FEF84A385A386A387A380A7A2
:1030900080E89AE1A6E0B0E085AB96ABA7ABB0AF15
:1030A00080EA96E8A1E0B0E081AF92AFA3AFB4AF01
:1030B00080E586AF17AE0895CF93DF93CDB7DEB727
:1030C00062970FB6F894DEBF0FBECDBF789484B57B
:1030D000826084BD84B5816084BD85B5826085BD14
:1030E00085B5816085BD80916E00816080936E00A2
:1030F0001092810080918100826080938100809194
:103100008100816080938100809180008160809344
:1031100080008091B10084608093B1008091B00004
:1031200081608093B00080917A00846080937A00FF
:1031300080917A00826080937A0080917A00816029
:1031400080937A0080917A00806880937A00109250
:10315000C100E0912A02F0912B0282E08083E0918D
:103160002602F09127021082E0912802F0912902B4
:103170008FEC808310923202E0912E02F0912F02A8
:1031800086E08083E0912C02F0912D0280818061A5
:103190008083E0912C02F0912D02808188608083F1
:1031A000E0912C02F0912D02808180688083E09173
:1031B0002C02F0912D0280818F7D80838091D60238
:1031C0009091D702892B11F52091BD023091BE025A
:1031D000C901079697FD0796B3E095958795BA952F
:1031E000E1F72091BB023091BC02AC01429FC001CB
:1031F000439F900D529F900D11240E941423909391
:10320000D7028093D602892B09F42CC10E94F30FB8
:103210002091BD023091BE028091BB029091BC0210
:10322000213231050CF47FC2B9016054710977FF76
:1032300002C06F5F7F4F759567958255910997FD25
:10324000019600E410E022E530E04BE359E095956B
:1032500087950E94651282E08093D9028091D40202
:103260009091D502892B09F472C28CE38093D80225
:1032700010920803109207031092F701109219029E
:103280001092F50181E08093F4011092CF0161E08A
:1032900082E10E949D1661E083E10E949D1680916B
:1032A000B9008E7F8093B9008091B9008D7F8093A3
:1032B000B90088E48093B80085E48093BC008DE673
:1032C00097E090930603809305038EE697E0909332
:1032D0000403809303038091DF0287FD1EC061E039
:1032E0000E94CC1661E08091DF020E949D1661E091
:1032F00070E080E090E00E941F1760E08091DF02A4
:103300000E949D166AE070E080E090E00E941F1726
:1033100061E08091DF020E949D168091D40290911D
:10332000D502892B09F4D2C22091EC023091ED0232
:103330004091EE025091EF0260E074E284EF90E081
:103340000E94EC22DA01C9014097A109B109B695A2
:10335000A795979587958093B80064E087E597E0F7
:103360000E946F106091BD02615087EB92E00E9455
:10337000330F64E083E597E00E946F108091D902DB
:10338000813009F4BAC264E187EB92E00E94330F06
:1033900064E08FE497E00E946F108FE88093F4025E
:1033A0008091BB029091BC028038910509F0A9C2BE
:1033B0008091BD029091BE028034910509F0B3C2A4
:1033C0008091D902813009F49AC28FEC8093F40283
:1033D00012E16AED87EB92E00E94330F612F87EBD9
:1033E00092E00E94330F61E887EB92E00E94330F76
:1033F0006091F40287EB92E00E94330F69ED87EB56
:1034000092E00E94330F8091D902813009F48DC27D
:1034100061EF87EB92E00E94330F66E089E497E06A
:103420000E946F108091D4029091D502892B09F4EB
:103430007EC22091F0023091F1024091F20250914F
:10344000F30260E074E284EF90E00E94EC22DA0183
:10345000C9014097A109B109B695A7959795879598
:103460008093B8000E94251160ED77E080E090E045
:103470000E941F170E94F30F60E08CE00E94CC16A0
:1034800094E0892E92E0992E7724739401E010E065
:1034900022E0A22EB12C8EE00E940817BC01990FE9
:1034A000880B990B0E94581F2FE632E143E85AE33C
:1034B0000E94931F9B01AC0160E070E080EA90E401
:1034C0000E94F52020E030E040E85FE30E94882081
:1034D0009B01AC0160E070E48CE196E40E94F52071
:1034E0009B01AC0160E070E080E894E40E94F5206C
:1034F00028ED3BE346EA5FE30E94B72160930F03A8
:103500007093100380931103909312038FE00E9435
:103510000817BC01990F880B990B0E94581F9B013B
:10352000AC0160E070EC8FE794E40E94F52020E0AD
:1035300030E040E85FE30E94882020E030E44CE186
:1035400056E40E94931F0E946F216B017C012CE6C0
:103550003FEC48E554E30E94931FA70196010E94A7
:10356000931FA70196010E94931F1B012C0126EDBA
:1035700034E649E759E3C701B6010E94931F2BECDB
:1035800038E444E85AE30E9489209B01AC01C2015F
:10359000B1010E9489209B01AC0160E070E080E8ED
:1035A0009FE30E94F52023E333E948E853E40E94B7
:1035B00088206B017C0160930B0370930C03809354
:1035C0000D0390930E03ECE2F2E08491E8E1F2E067
:1035D0004490F4015490552009F4BCC181110E941B
:1035E0007416E52DF0E0EE0FFF1FE550F44FA591A6
:1035F000B4918C91482209F4ADC10E94F30F7092EE
:10360000CB027092CC021093CA020093C9021093AD
:10361000C8020093C702B092C402A092C302B09243
:10362000C602A092C50280910A03882369F1C09066
:103630000F03D0901003E0901103F090120369E59E
:1036400071E0CE0107960E94470D1A8219821C82F2
:103650001B821E821D82BE01695F7F4FCE010196D3
:103660000E941D0DB701A601CE0101960E94ED1228
:10367000BC0187EB92E00E94820DCE0101960E9470
:10368000E812CE01079642C06FE571E0CE010196C7
:103690000E94470DC0900B03D0900C03E0900D03E7
:1036A000F0900E0364E671E0CE010D960E94470D86
:1036B00018861F821A8619861C861B86BE01635FC8
:1036C0007F4FCE0107960E941D0DB701A601CE01C6
:1036D00007960E94ED127C014D815E8169817A819D
:1036E0000E94DD0C811103C0C7010E940B0DB701C0
:1036F00087EB92E00E94820DCE0107960E94E812AD
:10370000CE010D960E94E812CE0101960E94E812A9
:103710000E9425116AEF70E080E090E00E941F1780
:103720000E943107B8CEB9016052710977FF02C01B
:103730006F5F7F4F759567958357910997FD019648
:1037400000E210E023E730E04BE557E080CD61E098
:103750008091DD020E94CC1661E08091DE020E9421
:10376000CC168091DD02082E000C990BFC01E8506C
:10377000FE4FE491F0E0EE0FFF1FE251FE4F259166
:1037800034913093E5022093E402FC01E45FFD4FA5
:10379000E491E093EA028091DE02082E000C990B7E
:1037A000FC01E850FE4FE491F0E0EE0FFF1FE25104
:1037B000FE4FA591B491B093E702A093E602FC01FD
:1037C000E45FFD4FE491E093EB028C91E82BEC93E6
:1037D0008091D2029091D302892B09F434C01FB793
:1037E000F89480910903811127C0E2E0F2E084910E
:1037F000E6E1F2E09491E82FF0E0EE0FFF1FEC51CC
:10380000FE4FA591B491EC91E92321F461E08AE0A7
:103810000E949D1661E08AE00E94CC168CB5806102
:103820008CBD8CB580648CBD61E08DE00E94CC16AF
:1038300061E08BE00E94CC16809109038F5F80933A
:1038400009031FBF48CD61E08091DB020E94CC16C6
:1038500061E08091DC020E94CC168091DB02082E90
:10386000000C990BFC01E850FE4FE491F0E0EE0FE4
:10387000FF1FE251FE4F259134913093E1022093D6
:10388000E002FC01E45FFD4FE491E093E8028091E7
:10389000DC02082E000C990BFC01E850FE4FE4916D
:1038A000F0E0EE0FFF1FE251FE4FA591B491B093EF
:1038B000E302A093E202FC01E45FFD4FE491E09398
:1038C000E9028C91E095E823EC9305CD8091D2023A
:1038D0009091D302892B31F08091F5029091F602FC
:1038E0000E94960FE091E602F091E70290818091AC
:1038F000EB0280958923808330CD60E145CD8FE94F
:1039000065CD8036910579F48091BD029091BE021B
:10391000409749F48091D902813011F08FEA01C0BB
:1039200080E18093F40212E054CD62E272CDE09126
:10393000E602F091E70290818091EB02892B80836F
:103940008091D2029091D302892B09F48BCD0E94F1
:103950002B0F88CD80910A03872580930A0364E6A4
:1039600071E0CE0107960E94470D1A8219821C82CF
:103970001B821E821D82BE01695F7F4FCE010196B0
:103980000E941D0DB701A601CE0101960E94ED1205
:10399000BC018AE192E00E94820DCE0101960E9454
:1039A000E812CE0107960E94E812C0900F03D09053
:1039B0001003E0901103F090120369E571E0CE016D
:1039C00007960E94470D1A8219821C821B821E8252
:1039D0001D82BE01695F7F4FCE0101960E941D0DC1
:1039E000B701A601CE0101960E94ED12BC018AE149
:1039F00092E00E94820DCE0101960E94E812CE0153
:103A000007960E94E812F9CDEF920F931F93CF9380
:103A1000DF93E80147FD02C034E001C034E1042E29
:103A2000000C550B57FF03C0519541955109E32EEA
:103A3000022F242FAE010E94241DCE01DF91CF91D1
:103A40001F910F91EF900895A9E0B0E0EAE2FDE147
:103A50000C9457206A01122FB02E2BE3201720F070
:103A6000FF24F394F00E02C02CE3F22E0F2D27E07A
:103A7000AE014F5F5F4F0E947E1EBC014981842FC3
:103A80008970813031F0E1FC06C0E0FE06C090E2B2
:103A900005C09DE203C09BE201C090E05E2D507125
:103AA00043FF3CC0911102C083E001C084E0811754
:103AB00018F4212F281B01C020E051110BC0F60182
:103AC000822F30E2882319F031938150FBCFC20E50
:103AD000D11C20E0992329F0D6019C93F601319660
:103AE0006F01C6010396E2FE0AC03EE4D6013C9394
:103AF00041E411964C93119712963C9306C03EE612
:103B0000F601308341E641833283FC01322F40E2EB
:103B1000332309F442C041933150FACF42FF44C0ED
:103B2000911102C083E001C084E0811718F4212FB5
:103B3000281B01C020E051110BC0F601822F30E29A
:103B4000882319F031938150FBCFC20ED11C20E0A5
:103B5000992329F0D6019C93F60131966F01C60195
:103B60000396E2FE0BC039E4D6013C933EE4119685
:103B70003C93119736E412963C9307C039E6F60160
:103B800030833EE6318336E63283FC01322F40E259
:103B9000332319F041933150FBCFFC01E20FF11DAB
:103BA00010828EEF9FEFA6C021E030E0911102C09D
:103BB00020E030E0161617061CF4FB01319602C017
:103BC000E1E0F0E02E0F3F1FBB2021F0EB2DF0E0F5
:103BD000319602C0E0E0F0E02E0F3F1FE12FF0E051
:103BE0002E173F071CF4121B212F01C020E08E2D41
:103BF000887159F4F601822F30E2882319F031934D
:103C00008150FBCFC20ED11C20E0992329F0D601B0
:103C10009C93F60131966F0151110BC0F601822F72
:103C200090E3882319F091938150FBCFC20ED11CF1
:103C300020E00F2D060F9A81342F307144FF03C00E
:103C4000913309F40150101624F4093018F008E0FB
:103C500001C001E0AB0177FF02C040E050E0FB0192
:103C6000E41BF50BA1E0B0E0AC0FBD1FEA0FFB1F9A
:103C70008EE2A82E4B01801A91080B2D10E01195B1
:103C8000019511094F3FBFEF5B0721F4D601AC92BC
:103C900011966D01641775072CF08416950614F4BF
:103CA000818101C080E3415051093196D6011196BE
:103CB0007D014017510724F0D6018C936701E2CFB4
:103CC0006417750739F4963320F4953319F43111DC
:103CD00001C081E3F6018083F701822F90E28823FF
:103CE00019F091938150FBCFF701E20FF11D108283
:103CF00080E090E02996ECE00C947320283008F0E6
:103D000027E03327DA01990F311D87FD9160009676
:103D10006105710539F432602E5F3D9330E32A95D9
:103D2000E1F708959F3F30F080387105610509F093
:103D30003C5F3C5F3D93913008F08068911DDF93BC
:103D4000CF931F930F93FF92EF92192F987F969521
:103D5000E92F96959695E90FFF27EC5BFE4F992783
:103D60003327EE24FF24A701E70105900894079468
:103D700028F4360FE71EF81E491F511D660F771FE6
:103D8000881F991F0694A1F70590079428F4E70E61
:103D9000F81E491F561FC11D770F881F991F661FE8
:103DA0000694A1F70590079428F4F80E491F561FB2
:103DB000C71FD11D880F991F661F771F0694A1F793
:103DC0000590079420F4490F561FC71FD81F990F5D
:103DD000661F771F881F0694A9F7849110951770A6
:103DE00041F0D695C79557954795F794E7941A955E
:103DF000C1F7EAEEF0E06894159015913591659160
:103E0000959105907FE27395E118F10A430B560BEB
:103E1000C90BD009C0F7E10CF11E431F561FC91F83
:103E2000D01D7EF4703311F48A95E6CFE8940150EA
:103E300030F0080F0AF40027021708F4202F23950A
:103E4000022F7A3328F079E37D932A95E9F710C0A1
:103E50007D932A9589F606949795679537951795DA
:103E60001794E118F10A430B560BC90BD00998F0CF
:103E700023957E9173957A3308F070E37C93201339
:103E8000B8F77E9170617D9330F0839571E37D93F7
:103E900070E32A95E1F71124EF90FF900F911F91A5
:103EA000CF91DF91992787FD90950895E89409C0F7
:103EB00097FB3EF490958095709561957F4F8F4F5D
:103EC0009F4F9923A9F0F92F96E9BB279395F69573
:103ED000879577956795B795F111F8CFFAF4BB0FF1
:103EE00011F460FF1BC06F5F7F4F8F4F9F4F16C055
:103EF000882311F096E911C0772321F09EE8872FDF
:103F0000762F05C0662371F096E8862F70E060E09A
:103F10002AF09A95660F771F881FDAF7880F969513
:103F2000879597F908950E94A61F0C9417200E9468
:103F3000092038F00E94102020F0952311F00C94F5
:103F400000200C94062011240C944B200E94282061
:103F500070F3959FC1F3950F50E0551F629FF001DC
:103F6000729FBB27F00DB11D639FAA27F00DB11DF5
:103F7000AA1F649F6627B00DA11D661F829F22277E
:103F8000B00DA11D621F739FB00DA11D621F839F05
:103F9000A00D611D221F749F3327A00D611D231FDB
:103FA000849F600D211D822F762F6A2F11249F5729
:103FB00050409AF0F1F088234AF0EE0FFF1FBB1F2C
:103FC000661F771F881F91505040A9F79E3F5105EB
:103FD00080F00C9400200C944B205F3FE4F3983E5B
:103FE000D4F3869577956795B795F795E7959F5F95
:103FF000C1F7FE2B880F911D9695879597F9089527
:1040000097F99F6780E870E060E008959FEF80EC8B
:10401000089500240A94161617061806090608952E
:1040200000240A9412161306140605060895092E94
:104030000394000C11F4882352F0BB0F40F4BF2B03
:1040400011F460FF04C06F5F7F4F8F4F9F4F089543
:1040500057FD9058440F551F59F05F3F71F0479539
:10406000880F97FB991F61F09F3F79F0879508951E
:10407000121613061406551FF2CF4695F1DF08C03D
:10408000161617061806991FF1CF8695710561055A
:1040900008940895E894BB2766277727CB0197F902
:1040A00008952F923F924F925F926F927F928F92DC
:1040B0009F92AF92BF92CF92DF92EF92FF920F93B7
:1040C0001F93CF93DF93CDB7DEB7CA1BDB0B0FB6C1
:1040D000F894DEBF0FBECDBF09942A88398848887E
:1040E0005F846E847D848C849B84AA84B984C88414
:1040F000DF80EE80FD800C811B81AA81B981CE0F0B
:10410000D11D0FB6F894DEBF0FBECDBFED010895EF
:104110005058BB27AA270E94A0200C9417200E9469
:10412000092038F00E94102020F039F49F3F19F444
:1041300026F40C9406200EF4E095E7FB0C94002086
:10414000E92F0E94282058F3BA17620773078407E3
:10415000950720F079F4A6F50C944A200EF4E0952A
:104160000B2EBA2FA02D0B01B90190010C01CA0131
:10417000A0011124FF27591B99F0593F50F4503EDC
:1041800068F11A16F040A22F232F342F4427585FCE
:10419000F3CF469537952795A795F0405395C9F7E6
:1041A0007EF41F16BA0B620B730B840BBAF091509E
:1041B000A1F0FF0FBB1F661F771F881FC2F70EC03D
:1041C000BA0F621F731F841F48F487957795679510
:1041D000B795F7959E3F08F0B0CF9395880F08F0FC
:1041E0009927EE0F9795879508950E9409210C94C1
:1041F00017200E94102058F00E94092040F029F456
:104200005F3F29F00C94002051110C944B200C942A
:1042100006200E94282068F39923B1F3552391F3D7
:10422000951B550BBB27AA2762177307840738F025
:104230009F5F5F4F220F331F441FAA1FA9F335D082
:104240000E2E3AF0E0E832D091505040E695001C36
:10425000CAF72BD0FE2F29D0660F771F881FBB1FF0
:10426000261737074807AB07B0E809F0BB0B802DCE
:10427000BF01FF2793585F4F3AF09E3F510578F0FA
:104280000C9400200C944B205F3FE4F3983ED4F351
:10429000869577956795B795F7959F5FC9F7880FCE
:1042A000911D9695879597F90895E1E0660F771F20
:1042B000881FBB1F621773078407BA0720F0621BB1
:1042C000730B840BBA0BEE1F88F7E095089516F078
:1042D0000C9441220C94062068940C9400200E94B7
:1042E0003020A8F39923C1F3AEF3DF93CF931F934C
:1042F0000F93FF92C92FDD2788232AF02197660F9D
:10430000771F881FDAF720E030E040E85FEB9FE39B
:10431000883920F0803E38F021968F770E948920DE
:10432000E8E6F0E004C00E948920E5E9F0E00E94A0
:104330004F228B01BE01EC01FB2E6F577109759561
:10434000771F880B990B0E94581F28E132E741E341
:104350005FE30E94A61FAF2D9801AE01FF900F9161
:104360001F91CF91DF910E94A0200C941720FA0199
:10437000EE0FFF1F309621053105A1F16115710582
:1043800061F48038BFE39B0749F168949038810558
:1043900061F08038BFEF9B0741F099234AF5FF3F5A
:1043A000E1053105210519F1E8940894E795D90153
:1043B000AA2329F4AB2FBE2FF85FD0F310C0FF5F04
:1043C00070F4A695E0F7F73950F019F0FF3A38F499
:1043D0009F779F930DD00F9007FC9058089546F05B
:1043E0000C94062060E070E080E89FE308954FE7BA
:1043F0009F775F934F933F932F930E946F212F914D
:104400003F914F915F910E94931F0C940F2229F4CA
:1044100016F00C9400200C944A200C9406200E9464
:104420003020A8F39638A0F707F80F92E8942BE312
:104430003AEA48EB5FE70E94A91F0F920F920F9292
:104440004DB75EB70F920E94B822E2ECF0E00E94F6
:104450004F224F915F91EF91FF91E595EE1FFF1F66
:1044600049F0FE57E0684427EE0F441FFA95E1F744
:104470004195550B0E9482220F9007FE0C947622E4
:1044800008959F3F31F0915020F487957795679577
:10449000B795880F911D9695879597F90895DF93A5
:1044A000CF931F930F93FF92EF92DF927B018C01CA
:1044B000689406C0DA2EEF010E94A61FFE01E89460
:1044C000A5912591359145915591A6F3EF010E9453
:1044D000A020FE019701A801DA9469F7DF90EF9020
:1044E000FF900F911F91CF91DF9108959B01AC0137
:1044F00060E070E080E89FE30C94F5200C940020CD
:104500000C9441220E943020D8F39923C9F3940FD0
:10451000511DA3F39150504094F059F0882332F08C
:10452000660F771F881F91505040C1F79E3F51057D
:104530002CF7880F911D9695879597F908955F3F01
:10454000ACF0983E9CF0BB27869577956795B7951C
:1045500008F4B1609395C1F7BB0F58F711F460FFF1
:10456000E8CF6F5F7F4F8F4F9F4FE3CF0C944B206F
:10457000FA01DC01AA0FBB1F9B01AC01BF5728F455
:10458000222733274427507820C0B75190F4AB2F0F
:104590000024469537952795011CA395D2F300205A
:1045A00071F0220F331F441FB395DAF30ED00C9431
:1045B000882061307105A0E88A07B94630F49B0174
:1045C000AC016627772788279078309621F02083E2
:1045D0003183428353830895A1E21A2EAA1BBB1B89
:1045E000FD010DC0AA1FBB1FEE1FFF1FA217B307BF
:1045F000E407F50720F0A21BB30BE40BF50B661FD5
:10460000771F881F991F1A9469F760957095809598
:1046100090959B01AC01BD01CF010895EE0FFF1FE6
:104620000590F491E02D09940F931F93CF93DF939E
:104630008230910510F482E090E0E0911E03F09149
:104640001F0320E030E0A0E0B0E0309719F1408196
:1046500051810281138148175907C8F084179507C3
:1046600069F4109731F012960C93129713961C93DD
:1046700027C000931E0310931F0322C0211531058C
:1046800019F04217530718F49A01BD01EF01DF0139
:10469000F801DBCF21153105F9F0281B390B243047
:1046A000310580F48A819B816115710521F0FB0140
:1046B0009383828304C090931F0380931E03FE01A3
:1046C000329644C0FE01E20FF31F81939193225072
:1046D0003109398328833AC020911C0330911D038E
:1046E000232B41F4209102013091030130931D03EB
:1046F00020931C0320910001309101012115310507
:1047000041F42DB73EB74091040150910501241B9F
:10471000350BE0911C03F0911D03E217F307A0F4A1
:104720002E1B3F0B2817390778F0AC014E5F5F4F07
:104730002417350748F04E0F5F1F50931D03409319
:104740001C038193919302C0E0E0F0E0CF01DF9180
:10475000CF911F910F910895CF93DF93009709F4A4
:1047600081C0FC01329713821282A0911E03B09186
:104770001F03109781F420813181820F931F2091B4
:104780001C0330911D032817390751F5F0931D03C1
:10479000E0931C0367C0ED0120E030E0CE17DF0797
:1047A00040F44A815B819E0141155105F1F0EA0117
:1047B000F5CFD383C28340815181840F951FC817E1
:1047C000D90759F488819981840F951F02969183A6
:1047D00080838A819B81938382832115310529F40B
:1047E000F0931F03E0931E033DC0E901FB83EA83BE
:1047F00049915991C40FD51FEC17FD0761F48081D1
:104800009181840F951F0296E901998388838281A3
:1048100093819B838A83E0E0F0E012968D919C91D6
:104820001397009719F0FD01DC01F7CF8D919C9152
:1048300011979D012E5F3F4F820F931F20911C0304
:1048400030911D032817390769F4309729F4109225
:104850001F0310921E0302C013821282B0931D0325
:10486000A0931C03DF91CF910895A0E0B0E0EBE3AB
:10487000F4E20C945520EC01009721F4CB010E9446
:104880001423B4C0FC01E60FF71F9C01225031092C
:10489000E217F30708F4A8C0D9010D911C911197F4
:1048A00006171707B0F00530110508F49BC0C801C2
:1048B00004978617970708F495C002501109061B44
:1048C000170B019311936D937C93CF010E94AC233E
:1048D00089C05B01A01AB10A4C01800E911EA09103
:1048E0001E03B0911F03612C712CE12CF12C109749
:1048F00009F446C08D919C911197A815B905B1F5A1
:104900006C0142E0C40ED11CCA14DB0478F14C01E6
:104910008A189B08640142E0C40ED11C1296BC9018
:1049200012971396AC91B5E0CB16D10440F0B28249
:10493000A38391828082D9016D937C9309C00E5F1D
:104940001F4F800F911FF90191838083EB2DFA2F68
:10495000E114F10431F0D7011396FC93EE93129712
:1049600041C0F0931F03E0931E033CC06816790614
:1049700008F43C017D0112960D90BC91A02DB7CF9B
:1049800080911C0390911D0388169906E1F4661628
:104990007706C8F48091000190910101009741F4DD
:1049A0008DB79EB74091040150910501841B950B72
:1049B000E817F907C8F4F0931D03E0931C03F9010D
:1049C000718360830FC0CB010E9414237C01009788
:1049D00059F0A801BE010E940025CE010E94AC231F
:1049E000C70104C0CE0102C080E090E0CDB7DEB7C1
:1049F000EEE00C94712081E090E0F8940C9417257F
:104A0000FB01DC0102C001900D9241505040D8F7EB
:104A10000895DC0101C06D9341505040E0F70895C6
:104A2000FB01DC0101900D920020E1F7089516E0F2
:104A3000C4E0D6E004C0FE010E940E232196C530DA
:084A4000D107C9F7F894FFCF7C
:104A480000002003800000000000C2062F0659065F
:104A58000F078A0668067C0600000000C8079B0747
:104A68004C0B6F0793077F07700700000000760B59
:104A78002F064C0B4B0B8E0A6F07D509AD09C909D8
:104A8800BD09DC096F07F807990F4E0C920CF60860
:104A9800D9086C080D080D0A004C55583A2000201A
:0C4AA800C2B0430054454D503A200000BD
:00000001FF
