:100000000C9429060C9451060C9451060C9451063C
:100010000C9451060C9451060C9451060C94510604
:100020000C9451060C9451060C9451060C945106F4
:100030000C9451060C9451060C9451060C945106E4
:100040000C94C51C0C9451060C94A70C0C94810CB8
:100050000C9451060C9451060C9451060C945106C4
:100060000C94D90C0C94510608000000BE9224494F
:10007000123EABAAAA2ABECDCCCC4C3E00000080DA
:10008000BEABAAAAAA3E00000000BF000000803F4D
:100090000000000000084178D3BB4387D1133D190D
:1000A0000E3CC3BD4282AD2B3E68EC8276BED98F3A
:1000B000E1A93E4C80EFFFBE01C4FF7F3F0000007E
:1000C000000007634236B79BD8A71A39685618AEA6
:1000D000BAAB558C1D3CB7CC5763BD6DEDFD753E7D
:1000E000F6177231BF000000803F00407A10F35ACB
:1000F00000A0724E18090010A5D4E80000E8764868
:10010000170000E40B54020000CA9A3B000000E113
:10011000F505000080969800000040420F000000A6
:10012000A08601000000102700000000E803000086
:1001300000006400000000000A0000000000010050
:10014000000000002C76D888DC674F0823DFC1DF71
:10015000AE59E1B1B796E5E3E453C63AE651997674
:1001600096E8E6C28426EB898C9B62ED407C6FFCAE
:10017000EFBC9C9F40F2BAA56FA5F490055A2AF7F0
:100180005C936B6CF9676DC11BFCE0E40D47FEF5F9
:1001900020E6B500D0ED902E030094357705008061
:1001A000841E080000204E0A000000C80C333333C0
:1001B000330F986E12831141EF8D2114893BE65560
:1001C00016CFFEE6DB18D1844B381BF77C1D901D43
:1001D000A4BBE424203284725E228100C9F124ECA5
:1001E000A1E53D27DB40A4A62EAF2000A1C8D30087
:1001F000408DAED580A80000600000000000000027
:1002000000000000000000E000000000000000000E
:10021000000000000001E0000000000000000000FD
:100220000000000001F000000000000000000000DD
:1002300000000003F00000000000000000000000CB
:10024000000007F0000000000000000000000000B7
:100250000007F8000000000000000000000000009F
:100260000FF800000003C0007E000001E0007F0FD7
:10027000F800000003C000FE000001E000FFEFF8FE
:1002800000000003C000FE000001E000FFFFF800D6
:10029000000003C000F00000000F007FFE7FC000E0
:1002A0000003C000F00000000F003FFE7FF83FF1A8
:1002B000FBCFFCFEF3BC3DEFE01FFE7FFF7FFBFFAB
:1002C000DFFEFEFFBC3DEFE01FC6FFFF7FFBFFDF51
:1002D000FEFEFFBC3DEFE00FE3C7FE787BC3DE1EF2
:1002E000F0FFBC3DEF0007FF87FC787BC3DE1EF00C
:1002F000F83C3DEF0001FFFFF0007BC3C01EF0F0B3
:100300003C3DEF0001F37FE03FFBC3CFFEF0F03C4C
:100310003DEF0003E33F807FFBC3DFFEF0F03C3D99
:10032000EF0007E73C00787BC3DE1EF0F03C3DEFBA
:100330000007FFBE00787BC3DE1EF0F03C3DEF00FF
:1003400007FFFE00787BC3DE1EF0F03C3DEF000FA0
:10035000FFFE007FFBFFDFFEF0F03FFDEFE00FFF51
:10036000FF007FFBFFDFFEF0F03FFDEFE00FF9FF46
:10037000003E79F9CF9EF0F01F3DE7E01FF1FF004E
:1003800000000000000000000000001F80FF007F50
:10039000FFFFFFFFFFFFFFFFFFE01C007F007FFF6D
:1003A000FFFFFEB46D888D18E000001F007FFFFF87
:1003B000FFFE95AD7DB577E000000F007FFFFFFFEA
:1003C000FEA5AD9D8D19E0000006007FFFFFFFFE3A
:1003D000B5ADEDB57EE0000000000001800000003A
:1003E000000000000000038000000000000000008A
:1003F0000007C000000000000000000007C000006F
:10040000000000000000000FC0000000000000001D
:1004100000001FE00000000000000000001FE000DE
:1004200000000000000000003FE0000000000000AD
:100430000000003FF00000000000000000007FF01E
:10044000000000000000001FF87FF0000000000026
:1004500000003FFE7FF0000000000000003FFF7F33
:10046000F0000000000000001FFFFBE000000000A3
:100470000000000FFFF9FFC00000000000000FFFA8
:10048000F9FFF800000000000007FFF1FFFF000087
:100490000000000003FC73FFFF800000000000016B
:1004A000FE3FFFFF80000000000000FF1E0FFF0066
:1004B0000000000000007FFE1FFC000000000000A4
:1004C000003FFFFFF8000000000000000FDFFFE02A
:1004D000000000000000001F19FFC0000000000025
:1004E00000003F3CFF00000000000000007E7CF8A0
:1004F00000000000000000007FFE7C000000000003
:10050000000000FFFFFC0000000000000000FFFFF3
:10051000FE0000000000000000FFFFFE00000000E1
:1005200000000001FFEFFE0000000000000001FFDE
:10053000CFFE0000000000000003FF07FE000000E7
:100540000000000003FC07FE0000000000000003A4
:10055000F003FE00000000000000018000FE00002B
:1005600000000000000000007E000000000000000D
:100570000000003E000000000000000000000C0031
:100580000000000000078000FC000003C000000025
:10059000078001FC000003C0000000078001FC0090
:1005A0000003C0000000078001E00000001E000002
:1005B00000078001E00000001E007FE3F79FF9FDC7
:1005C000E7787BDFC0FFF7FFBFFDFDFF787BDFC073
:1005D000FFF7FFBFFDFDFF787BDFC0F0F787BC3D75
:1005E000E1FF787BDE00F0F787BC3DE1F0787BDE51
:1005F0000000F787803DE1E0787BDE007FF7879F92
:10060000FDE1E0787BDE00FFF787BFFDE1E0787B6E
:10061000DE00F0F787BC3DE1E0787BDE00F0F78795
:10062000BC3DE1E0787BDE00F0F787BC3DE1E0789F
:100630007BDE00FFF7FFBFFDE1E07FFBDFC0FFF7E0
:10064000FFBFFDE1E07FFBDFC07CF3F39F3DE1E016
:100650003E7BCFC00000000000000000000000FF53
:10066000FFFFFFFFFFFFFFFFFFC0FFFFFFFFFD6872
:10067000DB111A31C0FFFFFFFFFD2B5AFB6AEFC0F1
:10068000FFFFFFFFFD4B5B3B1A33C0FFFFFFFFFD8A
:100690006B5BDB6AFDC00000000023002600290020
:1006A000CDCCCC3D0AD7233C17B7D13877CC2B32F1
:1006B0009595E6241FB14F0A0000803FCDCCCC3D7C
:1006C0006F12833A95BFD6337D1D9026B3CE010CB1
:1006D000000020410000C84200401C4620BCBE4C27
:1006E000CA1B0E5AAEC59D74000103070F1F3F7F42
:1006F0000080C0E0F0F8FCFE2200FF2100000000B6
:1007000000240027002A0000000000250028002BFC
:1007100000040404040404040402020202020203AA
:1007200003030303030102040810204080010204B4
:100730000810200102040810200000000800020137
:10074000000003040700000000000000000000009B
:1007500000003E5B4F5B3E3E6B4F6B3E1C3E7C3E63
:100760001C183C7E3C181C577D571C1C5E7F5E1C71
:1007700000183C1800FFE7C3E7FF0018241800FF2B
:10078000E7DBE7FF30483A060E2629792926407F25
:10079000050507407F05253F5A3CE73C5A7F3E1C34
:1007A0001C08081C1C3E7F14227F22145F5F005F20
:1007B0005F06097F017F006689956A6060606060FE
:1007C00094A2FFA29408047E040810207E20100842
:1007D000082A1C08081C2A08081E101010100C1EDD
:1007E0000C1E0C30383E3830060E3E0E060000005F
:1007F000000000005F00000007000700147F147F66
:1008000014242A7F2A122313086462364956205082
:100810000008070300001C2241000041221C002A9E
:100820001C7F1C2A08083E08080080703000080859
:10083000080808000060600020100804023E5149CA
:10084000453E00427F400072494949462141494D99
:10085000331814127F1027454545393C4A49493120
:1008600041211109073649494936464949291E009F
:100870000014000000403400000008142241141449
:10088000141414004122140802015909063E415D66
:10089000594E7C1211127C7F494949363E414141F3
:1008A000227F4141413E7F494949417F0909090170
:1008B0003E414151737F0808087F00417F4100207D
:1008C00040413F017F081422417F404040407F0269
:1008D0001C027F7F0408107F3E4141413E7F090991
:1008E00009063E4151215E7F091929462649494999
:1008F0003203017F01033F4040403F1F2040201F43
:100900003F4038403F6314081463030478040361D4
:1009100059494D43007F41414102040810200041E4
:1009200041417F040201020440404040400003076F
:10093000080020545478407F2844443838444444C4
:1009400028384444287F385454541800087E09023B
:1009500018A4A49C787F0804047800447D400020FB
:1009600040403D007F1028440000417F40007C044F
:100970007804787C080404783844444438FC18240B
:10098000241818242418FC7C0804040848545454DF
:100990002404043F44243C4040207C1C2040201C74
:1009A0003C4030403C44281028444C9090907C447B
:1009B00064544C44000836410000007700000041B8
:1009C00036080002010204023C2623263C1EA1A197
:1009D00061123A4040207A3854545559215555797E
:1009E000412254547842215554784020545579403E
:1009F0000C1E52721239555555593954545459399F
:100A0000555454580000457C410002457D42000188
:100A1000457C407D1211127DF0282528F07C54552C
:100A200045002054547C547C0A097F493249494985
:100A3000323A4444443A324A4848303A4141217AB1
:100A40003A42402078009DA0A07D3D4242423D3D7B
:100A50004040403D3C24FF2424487E4943662B2FE0
:100A6000FC2F2BFF0929F620C0887E09032054544F
:100A700079410000447D413048484A3238404022A4
:100A80007A007A0A0A727D0D19317D2629292F28CC
:100A9000262929292630484D40203808080808080A
:100AA000080808382F10C8ACBA2F102834FA0000F4
:100AB0007B000008142A142222142A140855005519
:100AC0000055AA55AA55AAFF55FF55FF000000FF83
:100AD00000101010FF00141414FF001010FF00FF8E
:100AE0001010F010F0141414FC001414F700FF00A0
:100AF00000FF00FF1414F404FC141417101F10104E
:100B00001F101F1414141F00101010F0000000001C
:100B10001F101010101F10101010F010000000FF18
:100B2000101010101010101010FF10000000FF1413
:100B30000000FF00FF00001F10170000FC04F41469
:100B4000141710171414F404F40000FF00F7141421
:100B50001414141414F700F7141414171410101F9D
:100B6000101F141414F4141010F010F000001F10D3
:100B70001F0000001F14000000FC140000F010F023
:100B80001010FF10FF141414FF141010101F000099
:100B90000000F010FFFFFFFFFFF0F0F0F0F0FFFFAC
:100BA000FF0000000000FFFF0F0F0F0F0F3844443D
:100BB0003844FC4A4A4A347E02020606027E027E1D
:100BC0000263554941633844443C04407E201E2062
:100BD00006027E020299A5E7A5991C2A492A1C4C07
:100BE0007201724C304A4D4D303048784830BC620A
:100BF0005A463D3E494949007E0101017E2A2A2A82
:100C00002A2A44445F444440514A444040444A51A3
:100C1000400000FF0103E080FF000008086B6B0844
:100C20003612362436060F090F0600001818000089
:100C3000001010003040FF0101001F01011E0019CB
:100C40001D1712003C3C3C3C0000000000005322F9
:100C5000442211241FBECFEFD8E0DEBFCDBF23E07A
:100C6000A8EDB1E001C01D92AC38B207E1F711E088
:100C7000A0E0B1E0EAEEF6E502C005900D92A83DD5
:100C8000B107D9F716E0C8E2D6E004C02197FE010B
:100C90000E945629C732D107C9F70E940F1D0C9434
:100CA000682B0C940000CF92DF92EF92FF920F938B
:100CB0001F93CF93DF936C017A018B01C0E0D0E0EA
:100CC000CE15DF0581F0D8016D918D01D601ED9132
:100CD000FC910190F081E02DC6010995892B11F05E
:100CE0002196EECF7E01C701DF91CF911F910F9129
:100CF000FF90EF90DF90CF900895FC01538D448DCD
:100D0000252F30E0842F90E0821B930B541710F0B6
:100D1000CF96089501970895FC01918D828D9817C3
:100D200061F0828DDF01A80FB11D5D968C91928DCF
:100D30009F5F9F73928F90E008958FEF9FEF0895CC
:100D4000FC01918D828D981731F0828DE80FF11D95
:100D5000858D90E008958FEF9FEF0895FC01918DB0
:100D6000228D892F90E0805C9F4F821B91098F73A9
:100D70009927089586E992E00E94AE0621E0892B2A
:100D800009F420E0822F0895FC01848DDF01A80F73
:100D9000B11DA35ABF4F2C91848D90E001968F73A3
:100DA0009927848FA689B7892C93A089B1898C91C2
:100DB000837080648C93938D848D981306C0028811
:100DC000F389E02D80818F7D80830895EF92FF92DB
:100DD0000F931F93CF93DF93EC0181E0888F9B8D5E
:100DE0008C8D981305C0E889F989808185FD26C01E
:100DF000F62E0B8D10E00F5F1F4F0F731127E02EA3
:100E00008C8DE8120CC00FB607FCFACFE889F9897F
:100E1000808185FFF5CFCE010E94C406F1CF8B8D76
:100E2000FE01E80FF11DE35AFF4FF0829FB7F894DF
:100E30000B8FEA89FB89808180620AC09FB7F89492
:100E4000EE89FF896083E889F989808183708064F5
:100E500080839FBF81E090E0DF91CF911F910F9140
:100E6000FF90EF900895CF93DF93EC01888D882356
:100E7000C9F0EA89FB89808185FD05C0A889B98907
:100E80008C9186FD0FC00FB607FCF5CF808185FFE2
:100E9000F2CFA889B9898C9185FFEDCFCE010E9450
:100EA000C406E7CFDF91CF91089580E090E0892BD1
:100EB00029F00E94BA0681110C940000089585ED76
:100EC0008093BC008091BC0084FDFCCF1092710225
:100ED000089540911802262F30E0240F311D213251
:100EE0003105DCF4209171022430C9F4FC0180E06A
:100EF00090E0861758F4309118022191DC01A85037
:100F0000BE4FA30FB11D2C930196F3CF8091180211
:100F1000680F6093180280E0089581E0089582E0F0
:100F20000895089508950895E091400280913F0248
:100F3000E81730F4F0E0E852FE4F808190E0089529
:100F40008FEF9FEF08959091400280913F02981794
:100F500050F4E92FF0E0E852FE4F208130E09F5F2F
:100F60009093400202C02FEF3FEFC9010895809196
:100F70003F0290E020914002821B91090895CF9298
:100F8000DF92EF92FF920F931F93CF93DF937C0139
:100F9000CB018A0120917202222389F0EB016B01BF
:100FA000C40ED51ECC15DD0569F06991D701ED9110
:100FB000FC910190F081E02DC7010995F3CF642FDA
:100FC0000E946907C801DF91CF911F910F91FF9097
:100FD000EF90DF90CF900895CF93DF931F92CDB71E
:100FE000DEB76983209172022223D1F0209195020D
:100FF000203240F021E030E0FC013383228380E0A6
:1010000090E015C080917302E82FF0E0EC58FD4F9E
:10101000998190838F5F809373028093950205C0BE
:1010200061E0CE0101960E94690781E090E00F9097
:10103000DF91CF9108950895FC016370668B8481E0
:10104000958126813781613039F0633029F09187AD
:101050008087338722870895318720879387828707
:1010600008956F927F928F929F92AF92BF92CF928C
:10107000DF92EF92FF920F931F93CF93DF93EC01D8
:101080004B015A0169013801E881F9810284F38535
:10109000E02D0995E881F9810288F389E02D870127
:1010A0009601A501B401CE010995A501460D571D74
:1010B00041505109E881F9810288F389E02D9601B8
:1010C000B401CE010995E881F9810088F189E02D0C
:1010D0009301A501B401CE010995C80CD91CB60134
:1010E00061507109E881F9810088F189E02D93014F
:1010F000A501CE010995E881F9810688F789E02DDF
:10110000CE01DF91CF911F910F91FF90EF90DF9073
:10111000CF90BF90AF909F908F907F906F900994E9
:101120008F929F92AF92BF92CF92DF92EF92FF92F7
:101130000F931F93CF93DF934C016B015A01E90189
:10114000DC01ED91FC916217730781F40417150718
:1011500024F48B2D5801042F182F0A191B0998010C
:101160002F5F3F4F048CF58DE02D12C040175107C3
:1011700009F52617370724F48D2D6901C62FD82FBE
:101180009E012C193D092F5F3F4F068CF78DE02DF6
:101190008701A501B601C4010995DF91CF911F9187
:1011A0000F91FF90EF90DF90CF90BF90AF909F9006
:1011B0008F9008950284F385E02D0995D401ED9177
:1011C000FC910488F589E02D9E01A501B601C401BA
:1011D0000995D401ED91FC910688F789E02DC401B1
:1011E000DF91CF911F910F91FF90EF90DF90CF9003
:1011F000BF90AF909F908F900994EF92FF920F93C2
:101200001F93DC011A960D911C911B9718962D9136
:101210003C911997ED91FC9100A0F1A1E02D7B018B
:1012200040E050E060E070E009951F910F91FF9061
:10123000EF9008954F925F926F927F928F929F925C
:10124000AF92BF92CF92DF92EF92FF920F931F93D4
:10125000CF93DF936C012B015A0139014801DC0166
:10126000ED91FC910284F385E02D0995E201640C77
:10127000751CD601ED91FC91C615D7055CF400886C
:10128000F189E02D87019401A501BE01C6010995F0
:101290002196EFCF0688F789E02DC601DF91CF9127
:1012A0001F910F91FF90EF90DF90CF90BF90AF9084
:1012B0009F908F907F906F905F904F9009948F9246
:1012C0009F92AF92BF92CF92DF92EF92FF920F93D5
:1012D0001F93CF93DF93EC015B014A016901E88121
:1012E000F9810284F385E02D099595012C0D3D1DB2
:1012F00021503109E881F9810488F589E02D7801D0
:101300008401A401B501CE010995E881F98106881F
:10131000F789E02DCE01DF91CF911F910F91FF90C2
:10132000EF90DF90CF90BF90AF909F908F900994F7
:101330008F929F92AF92BF92CF92DF92EF92FF92E5
:101340000F931F93CF93DF93EC015B014A01690177
:101350007801E881F9810284F385E02D0995C80CB4
:10136000D91C860101501109E881F9810488F589A9
:10137000E02D9501A401B501CE010995E881F9811F
:101380000688F789E02DCE01DF91CF911F910F9153
:10139000FF90EF90DF90CF90BF90AF909F908F9095
:1013A0000994EF92FF920F931F93DC01ED91FC9152
:1013B00000A0F1A1E02D09951F910F91FF90EF90F2
:1013C00008950F931F93DC01ED91FC91068CF78D2E
:1013D000E02D09951F910F9108950F931F93DC0144
:1013E000ED91FC91048CF58DE02D09951F910F91E5
:1013F0000895DC01ED91FC910084F185E02D0994C4
:101400002F923F924F925F926F927F928F929F9214
:10141000AF92BF92CF92DF92EF92FF920F931F9302
:10142000CF93DF9300D000D000D0CDB7DEB72C0132
:101430007E836D836A015901C801FC82EB824801F9
:10144000841A950A97FE03C09194819491083501FE
:101450002D813E81621A730A77FE03C071946194F4
:101460007108681479045CF43A2D2B2D5C01832FEC
:10147000922F3D812E81DE82CD82C32ED22EAD8170
:10148000BE81AA16BB065CF43C2D2D2D6C01832F6A
:10149000922F3D812E81BE82AD82A32EB22E850178
:1014A0002D813E81021B130B1C012C183D0837FEB9
:1014B00003C0319421943108780117FF03C03FEF36
:1014C000E31AF30AF594E794C816D9062CF08FEFC7
:1014D0009FEF9A83898304C0A1E0B0E0BA83A98317
:1014E0002D813E81A216B30624F1D201ED91FC912B
:1014F0000484F585E02D2B813C816814790424F463
:101500004D815E81B60103C0A6016D817E81C2015D
:101510000995E218F308F7FE06C029813A81C20E48
:10152000D31EE00EF11E8D819E8101969E838D83D8
:10153000D7CF26960FB6F894DEBF0FBECDBFDF9192
:10154000CF911F910F91FF90EF90DF90CF90BF90C0
:10155000AF909F908F907F906F905F904F903F9053
:101560002F9008958F929F92AF92CF92EF92FF9219
:101570000F931F93CF93DF93EC01262F898D9A8DC4
:10158000009709F042C06A3059F41D861C862D89E7
:101590008E859F8538E0239F800D911D112443C0C7
:1015A0006D3009F4AAC08F898823C9F03C898C85E5
:1015B0009D8546E0349F800D911D112448855985F5
:1015C0004817590764F41D861C863D898E859F85C2
:1015D00048E0349F800D911D11249F878E87EA88F3
:1015E000FB88088919894E855F856C857D85AD8866
:1015F000CC88CE010E94AC192C898C859D8536E063
:10160000239F800D911D11243EC06A3079F41D8600
:101610001C862D89FC013896E4918E859F852E9F2E
:10162000800D911D11249F878E8767C06D3009F44E
:1016300064C0FC0134963491631708F45EC032969E
:10164000E491E61708F459C0462F431B342FFC01E0
:1016500032968590949047E0349F800C911C112421
:10166000F401329634913196E491332311F0E11173
:101670000DC0F4013496E4912C898C859D85E29F00
:10168000800D911D11249D878C8737C0F4013596FC
:1016900044915F89552319F15C89E32FF0E0E40F51
:1016A000F11D47FDFA955E9FB0015F9F700D1124FB
:1016B0004C855D85460F571F6885798564177507CA
:1016C00074F41D861C863D89FC013896E4918E8554
:1016D0009F853E9F800D911D11249F878E87EA88EC
:1016E000FB88088919894E855F856C857D85AD8865
:1016F000CC88CE010E94AC19BCCF81E090E0DF9194
:10170000CF911F910F91FF90EF90CF90AF909F904E
:101710008F9008951F93CF93DF93EC01162F8D8D3B
:101720009E8D892BB1F02DA93EA94FA958AD60E03F
:1017300074E284EF90E00E943429DA01C9014097F5
:10174000A109B109B695A795979587958093B8009B
:101750000FC08B8D9C8D892B21F08EAD9FAD0E948B
:101760006A10EFA5F8A990818CA9809589238083C0
:10177000111102C066EA01C067EACE010E9407109B
:101780008D8D9E8D892BB1F029AD3AAD4BAD5CAD01
:1017900060E074E284EF90E00E943429DA01C9012C
:1017A0004097A109B109B695A7959795879580931C
:1017B000B8000FC0EFA5F8A990818CA9892B808370
:1017C0008B8D9C8D892B29F0DF91CF911F910C94EB
:1017D000FF0FDF91CF911F9108950F931F93CF9328
:1017E000DF93DC015696EC915697E23071F0E330CE
:1017F000E9F0E13079F5FB0114960D90BC91A02D34
:10180000A41BB50BA21BB30B18C0EC01EC81FD812E
:10181000E61BF70BBF0161507109EE81FF81DF010B
:10182000A41BB50BAD01421B530B14C0DA01EC0134
:10183000EE81FF81E61BF70B3197F7FD0DC0EC0140
:101840004E815F81E417F5073CF4AF01BD010E94B2
:101850006B1802C00E94D218DF91CF911F910F9197
:101860000895EF92FF920F931F93CF93DF93EC01B4
:10187000198218821B821A821D821C8261157105D1
:1018800021F18B01FB0101900020E9F731977F01E5
:10189000E61AF70AB7010E94090E811109C0CE01AC
:1018A000DF91CF911F910F91FF90EF900C94300E2C
:1018B000FD82EC82B80188819981DF91CF911F91DF
:1018C0000F91FF90EF900C94612BDF91CF911F91BE
:1018D0000F91FF90EF9008956115710579F0FB016C
:1018E00001900020E9F73197AF01461B570BDC014F
:1018F000ED91FC910280F381E02D099480E090E06D
:1019000008951F920F920FB60F9211242F933F93B9
:101910004F935F936F937F938F939F93AF93BF93F7
:10192000EF93FF9386E992E00E94C406FF91EF9146
:10193000BF91AF919F918F917F916F915F914F91E7
:101940003F912F910F900FBE0F901F9018951F92EF
:101950000F920FB60F9211242F938F939F93EF93B3
:10196000FF93E091A602F091A7028081E091AC0282
:10197000F091AD0282FD12C090818091AF028F5F25
:101980008F732091B002821751F0E091AF02F0E026
:10199000EA56FD4F958F8093AF0201C08081FF9181
:1019A000EF919F918F912F910F900FBE0F901F90ED
:1019B00018951F920F920FB60F9211242F933F93F9
:1019C0004F935F936F937F938F939F93AF93BF9347
:1019D000EF93FF938091B900887F803609F49CC013
:1019E00068F5883209F45BC090F4803109F454C082
:1019F00038F4882309F4F6C0883009F44DC0F6C0E5
:101A0000883109F44CC0803209F45DC0EFC08034E5
:101A100009F468C048F4803309F455C0883309F0EC
:101A2000E5C080936F02D8C0803509F44FC0883577
:101A300009F45DC0883409F0D9C0D6C0883909F4EA
:101A4000C7C0A8F4883709F467C038F4883609F4A9
:101A500063C0803709F460C0C9C0883809F4B8C0D1
:101A6000803909F45FC0803809F0C0C05BC0803B9A
:101A700009F486C038F4803A09F466C0883A09F45B
:101A80007FC0B4C0803C09F4A7C0883C09F4A4C05E
:101A9000883B09F48AC0AAC080914C0210C0909182
:101AA0006E0280916D02981770F5E0916E0281E0F0
:101AB0008E0F80936E02F0E0E35BFD4F8081809398
:101AC000BB0085EC86C080936F028EC0E0916E02F1
:101AD00081E08E0F80936E028091BB00F0E0E35BAB
:101AE000FD4F808390916E0280916D026EC0E091F7
:101AF0006E0281E08E0F80936E028091BB00F0E059
:101B0000E35BFD4F80838091700281116DC081E0A5
:101B100080934B0284EA61C083E08093710210924B
:101B20003A02CFCF80913A02803208F051C0E09162
:101B30003A0281E08E0F80933A028091BB00F0E080
:101B4000E65EFD4F8083BDCF85EC8093BC00109294
:101B5000710280913A02803230F4E0913A02F0E072
:101B6000E65EFD4F108260913A0270E0E0913B0228
:101B7000F0913C028AE192E0099510923A0236C057
:101B800084E0809371021092190210921802E09181
:101B90003D02F0913E02099580911802811105C025
:101BA00081E0809318021092F801E091190281E01F
:101BB0008E0F80931902F0E0E850FE4F80818093F1
:101BC000BB009091190280911802981708F479CF00
:101BD00085E88093BC000AC085EC8093BC0010921D
:101BE000710204C010926F020E945F07FF91EF9193
:101BF000BF91AF919F918F917F916F915F914F9125
:101C00003F912F910F900FBE0F901F9018950E943B
:101C1000432B0F931F93CF93DF93EC01888199811E
:101C2000009729F02A813B812617370788F48B011A
:101C30006F5F7F4F0E947D2A009761F099838883B0
:101C40001B830A832C813D81232B11F4FC0110821C
:101C500081E001C080E0DF91CF911F910F91089545
:101C6000CF93DF93EC0188819981009711F00E9456
:101C7000F429198218821D821C821B821A82DF912C
:101C8000CF910895FC0177FDB9C0808591856817D3
:101C900079070CF0B3C057FDB1C082859385481712
:101CA00059070CF008958689823079F484819581F2
:101CB000DC01A61BB70BBD016150710986819781BC
:101CC000DC01A41BB50BAD010EC0833009F084C04C
:101CD00064277527CA0186279727682779274681B1
:101CE0005781481B590B415051092130310531F0C2
:101CF00048F12230310509F44AC00895CA0157FD60
:101D000007969C01A3E035952795AA95E1F7A48154
:101D1000B5812A9FC0012B9F900D3A9F900D1124F1
:101D2000680F791F078CF0A1E02DE60FF71F4770B1
:101D3000552781E090E001C0880F4A95EAF790812D
:101D4000892B48C0CA0157FD07969C0193E0359541
:101D500027959A95E1F7A481B5812A9FC0012B9F11
:101D6000900D3A9F900D1124680F791F078CF0A1F8
:101D7000E02DE60FF71F4770552781E090E001C086
:101D8000880F4A95EAF780959081892323C0CA017C
:101D900057FD07969C0183E0359527958A95E1F7D5
:101DA000A481B5812A9FC0012B9F900D3A9F900D71
:101DB0001124680F791F078CF0A1E02DE60FF71FA3
:101DC0004770552781E090E001C0880F4A95EAF7F7
:101DD0009081892780830895813009F086CF642718
:101DE0007527462757276427752784819581DC014D
:101DF000A61BB70BBD016150710977CF08950895F7
:101E000080E090E00895CF93DF93EC018881998181
:101E1000DC01ED91FC910190F081E02D09952A8182
:101E20003B81820F931F9B838A83DF91CF9108951B
:101E3000CF93DF93EC0188819981DC01ED91FC91D6
:101E40000280F381E02D09952A813B81820F931F47
:101E50009B838A83DF91CF9108958F929F92AF9257
:101E6000BF92CF92DF92EF92FF920F931F93CF9387
:101E7000DF93CDB7DEB766970FB6F894DEBF0FBE1F
:101E8000CDBF6C018E01095E1F4F78018AE0882E5C
:101E9000912CA12CB12CCB01BA01A50194010E9477
:101EA0003429942F852F605DF80162938F01A90179
:101EB000692F782F411551056105710561F7A7015B
:101EC0004E1B5F0BBF01C6010E94180F66960FB62E
:101ED000F894DEBF0FBECDBFDF91CF911F910F9160
:101EE000FF90EF90DF90CF90BF90AF909F908F903A
:101EF0000895EF92FF920F931F93CF93DF93EC011E
:101F00007B0162E20E94030F8701F80161918F015A
:101F1000662379F0EAEAF1E0F280FF20A1F0329640
:101F200081816813F9CF6CE5CE010E94030F6F2DFC
:101F30000AC062E2CE01DF91CF911F910F91FF9015
:101F4000EF900C94030FCE010E94030FDECFFC0133
:101F50002581222331F0F8E02F02800D911D1124FC
:101F6000089580E090E008950F931F93DC0156964A
:101F7000EC915697E23061F0E33009F1E13081F500
:101F80001496ED91FC911597E41BF50B319723C046
:101F9000DC011496ED91FC911597DF01A61BB70BA0
:101FA000BD01DC011696ED91FC911797DF01A41B92
:101FB000B50BAD0141505109621B730B11C0FA0101
:101FC000DC0116964D915C911797DA01A61BB70BB1
:101FD000BD01621B730BAB01BF010E94D2180CC084
:101FE00057FD0AC0DC011696ED91FC9117974E172C
:101FF0005F0714F40E946B181F910F9108950895C4
:102000008EBD00000DB407FEFDCF8EB508951F9361
:10201000CF93DF93FC01858D968D009729F1162FC4
:10202000EF0121A131E030937202209394021092CB
:10203000730210929502DC01ED91FC910190F08108
:10204000E02D60E009958D8D9E8DDC01ED91FC9178
:102050000190F081E02D612F09958D8D9E8DDF918E
:10206000CF911F910C94C413A5A5B6A59C9183A9EB
:10207000809589238C93838D948D892B31F0862FC5
:10208000DF91CF911F910C94001028E030E080E8A0
:10209000A1A5B2A591A9462F482319F04C91942BE4
:1020A00003C04C91909594239C93A3A5B4A54C9107
:1020B00092A9942B9C93A3A5B4A54C9192A9909519
:1020C00094239C9386952150310911F7DF91CF918C
:1020D0001F9108958CBD9DBD0895FA01309751F070
:1020E000248120782C60248360837183828393838E
:1020F00081E0089580E00895FB0101900020E9F758
:102100003197AF01461B570B0C94180F2F923F923B
:102110004F925F926F927F928F929F92AF92BF92F7
:10212000CF92DF92EF92FF920F931F93CF93DF93A3
:10213000CDB7DEB76C970FB6F894DEBF0FBECDBF3C
:102140008C011B01DC0114968C918F77863009F489
:10215000B2C068F4823008F4C0C0843008F483C090
:10216000F80160817181C1010E94790FB0C08C308B
:10217000B1F038F4883009F495C08A3009F47CC095
:10218000ACC0803209F447C0803409F0A6C06BE5CA
:10219000C1010E94030FD8010D911C9134C0F801B8
:1021A000C080D180E280F380A7019601C701B6010B
:1021B0000E942825811191C020E030E0A901C701CB
:1021C000B6010E942825882309F490C0A701960132
:1021D000C701B6010E9484269B01AC01C701B6016C
:1021E0000E942825811182C078C0B101C8010E94D7
:1021F0008610C8010E94A70F8C01892B39F06CE270
:10220000C1010E94030F0115110579F76DE5C101A8
:102210000E94030F67C06BE7C1010E94030FD80142
:102220000D911C9101151105C9F0F80166817781A6
:10223000C1010E94790F6AE3C1010E94030FB1013D
:10224000C8010E948610C8010E94A70F8C01892B2B
:1022500029F06CE2C1010E94030FE4CF6DE7C101D8
:102260000E94030F34C0F801428153816081718163
:10227000C1010E94180F2BC0F801C080D180E280FC
:10228000F380F7FE0CC06DE2C1010E94030F4427EA
:102290005527BA014C195D096E097F0908C0B701BD
:1022A000A60105C0F8014081518162817381C1019D
:1022B0000E942D0F0CC0F8018081882319F060EC7A
:1022C00071E002C065EC71E0C1010E947C10D10197
:1022D00012968D919C9113979DC16BEB71E0C1019A
:1022E0000E947C10F1018281938194C120E030E052
:1022F000A901C701B6010E94282587FF08C06DE229
:10230000C1010E94030FF7FAF094F7F8F09420E867
:1023100036E948E15BE4C701B6010E94912787FDD9
:1023200037C0812C912C70E2A72EB12C188E1F8AF9
:1023300084010C5E1F4FF801E053F94F2591359150
:1023400045915491C701B6010E94912787FD13C0A2
:10235000F801E056F94F2591359145915491C70107
:10236000B6010E948E256B017C018F89988D8A0DA4
:102370009B1D988F8F8BB594A79494E0891A910830
:10238000A8EE8A16AFEF9A0699F699249A9407C098
:1023900040E2A42EB12C55E0952E188E1F8A20E025
:1023A00030E0A901C701B6010E94912718160CF070
:1023B00036C02CEA35EC47E257E3C701B6010E946C
:1023C0002825181664F1BFEF9B1649F1E92DF4E0BA
:1023D000EF0280011124F801E854F94F65917591DD
:1023E00085919491A70196010E94912718169CF45B
:1023F000F801E053F94F2591359145915491C7016A
:10240000B6010E948E256B017C018F89988D8A19F7
:102410009B09988F8F8BB594A7949A94D4CFC701BA
:10242000B6010E9462274B015C012B013C0106E0D2
:1024300080E492E4AFE0B0E0898F9A8FAB8FBC8FDD
:10244000102F01509AE04916510461047104C8F03C
:10245000698D7A8D8B8D9C8D2AE030E040E050E0D4
:102460000E943429298F3A8F4B8F5C8FC301B201B0
:102470002AE030E040E050E00E94342929013A018E
:10248000DFCFC501B4010E942D259B01AC01C7011E
:10249000B6010E9483266B017C01698D7A8D8B8D3C
:1024A0009C8D0E942D259B01AC01C701B6010E94A5
:1024B0008E252B013C010E9462276B017C010E944A
:1024C0002D259B01AC01C301B2010E9483269B0113
:1024D000AC010E9484260E946227C60ED71EE81E09
:1024E000F91E898D9A8DAB8DBC8DC816D906EA066A
:1024F000FB06F8F09FEF891A990AA90AB90AAF8971
:10250000B88DAB2B99F0BAE08B169104A104B104FD
:1025100068F0EF89F88D3196F88FEF8BC12CD12CB4
:102520007601812C912C5401839403C0C12CD12CB1
:1025300076019AE0492E512C612C712CC701B6010D
:10254000A30192010E943429672B682B692B31F477
:10255000111624F469017A011150F0CFB501A401DC
:10256000C1010E942D0F112339F1012F4E01F1E11C
:102570008F0E911C54018AE0482E512C612C712C35
:10258000015068F0C701B601A30192010E943429ED
:10259000605DD4016E934D0169017A01F1CFB501FF
:1025A000611B71098EE2FB018293BF01A5014E1BE5
:1025B0005F0BC1010E94180F8F89988D892B09F438
:1025C00091CE65E6C1010E94030FAF89B88DB7FFB8
:1025D0000AC06DE2C1010E94030F8F89988D919509
:1025E0008195910902C08F89988DFE0177969F0190
:1025F0000AE010E0B8010E942029805D8293CB019F
:102600000097C1F7A9014E1B5F0BBF01C1010E94DA
:10261000180F68CE6C960FB6F894DEBF0FBECDBF14
:10262000DF91CF911F910F91FF90EF90DF90CF90AE
:10263000BF90AF909F908F907F906F905F904F90E2
:102640003F902F900895CF92DF92EF92FF920F93D9
:102650001F93CF93DF93FC018481982F9F7739F4E8
:102660008078806284831182108213821282848136
:1026700085FF5FC06115710509F45BC08A01EB013C
:102680006F01E080F180E114F104B9F0D7011696F2
:102690006D917C9117976C177D0769F06115710535
:1026A00029F0CE010E94582B892B29F0C7010E94E6
:1026B000A70F7C01E8CFC7013EC0D8011496ED9169
:1026C000FC91159712968D919C9113970896E81797
:1026D000F90720F481E018968C932BC03897D80125
:1026E0001596FC93EE931497309719F1D601129634
:1026F0002D913C9113972115310569F0CF01821B73
:10270000930B43E0959587954A95E1F7D901159686
:102710008C93D60104C0D6011196FC93EE931396C8
:10272000FC93EE93129715821482D783C683CF0150
:1027300002C080E090E0DF91CF911F910F91FF9058
:10274000EF90DF90CF9008952091390330913A03B4
:10275000C901079697FD079623E0959587952A95D9
:10276000E1F72091370330913803829FA001839FC6
:10277000500D929F500D112460E070E08091520343
:10278000909153030C94512B30919502313208F003
:102790004BC0809171028111FCCF9091940222E094
:1027A0002093710221E0209370022FEF20936F029B
:1027B00010926E0230936D02E4E7F2E0ADE4B2E015
:1027C00020E0321721F041914D932F5FFACF109204
:1027D0004C0220914C02990F922B90934C029091B5
:1027E0004B02913061F410924B0290914C02909305
:1027F000BB009091BC0093FDF8CF95EC01C095EE25
:102800009093BC00909171029230E1F390916F022D
:102810009F3F79F080916F02803241F080916F028A
:10282000803331F084E005C081E003C082E001C064
:1028300083E0109273021092950210927202089532
:10284000EF92FF920F931F93CF93DF937C01C62FDC
:102850008091500390915103009709F459C0209141
:10286000540331E030937202209394021092730269
:1028700010929502DC01ED91FC910190F081E02D28
:1028800060E009958701EE24E394F12CD1E080917A
:10289000500390915103CC2399F1B0E2EB16F1046F
:1028A000D8F00E94C41380915403D0937202809395
:1028B00094021092730210929502809150039091AD
:1028C0005103DC01ED91FC910190F081E02D60E07D
:1028D0000995EE24E394F12C8091500390915103DB
:1028E000F8016491DC01ED91FC910190F081E02D03
:1028F0000995BFEFEB1AFB0AC1500F5F1F4FC7CFFF
:10290000DF91CF911F910F91FF90EF900C94C41322
:10291000E0916003F091610390818091660380955E
:10292000892380838701CC2309F439C0F80184917D
:1029300020914E0330914F03232B31F00E94001061
:10294000C1500F5F1F4FEFCF28E030E040E8E0912B
:102950005C03F0915D0390916403582F542319F0A8
:102960005081952B03C05081909595239083E091E1
:102970005E03F0915F03508190916503952B9083E6
:10298000E0915E03F0915F03508190916503909513
:1029900095239083469521503109C9F6D1CFDF9117
:1029A000CF911F910F91FF90EF900895DF92EF92DA
:1029B000FF920F931F93CF93DF93809150039091D9
:1029C0005103892BD1F02091680330916903409124
:1029D0006A0350916B0360E074E284EF90E00E9420
:1029E0003429DA01C9014097A109B109B695A79523
:1029F000979587958093B80016C080914E0390916B
:102A00004F03892B31F080917103909172030E94E2
:102A10006A10E0916203F0916303908180916703F3
:102A200080958923808365E088EF96E00E942014DA
:102A300060913703615083E393E00E940710209177
:102A4000390330913A03C901079697FD079653E081
:102A5000959587955A95E1F7209137033091380382
:102A6000829F8001839F100D929F100D1124C091B1
:102A70005203D091530380915003909151030C0F56
:102A80001D1F009709F451C02091540331E0309389
:102A90007202209394021092730210929502DC014C
:102AA000ED91FC910190F081E02D60E40995EE2418
:102AB000E394F12CDD24D394809150039091510341
:102AC0000C171D0779F1B0E2EB16F104D8F00E9463
:102AD000C41380915403D092720280939402109296
:102AE0007302109295028091500390915103DC0182
:102AF000ED91FC910190F081E02D60E40995EE24C8
:102B0000E394F12C80915003909151036991DC0181
:102B1000ED91FC910190F081E02D0995BFEFEB1A4A
:102B2000FB0ACACF0E94C41341C0E0916003F09138
:102B30006103908180916603892B80830C171D07A8
:102B4000A9F1899120914E0330914F03232B19F065
:102B50000E940010F3CF28E030E040E8E0915C03F1
:102B6000F0915D0390916403582F542319F0508124
:102B7000952B03C05081909595239083E0915E033F
:102B8000F0915F03508190916503952B9083E091C4
:102B90005E03F0915F0350819091650390959523BA
:102BA0009083469521503109C9F6C8CF80915003D2
:102BB00090915103892BD1F020916C0330916D03DA
:102BC00040916E0350916F0360E074E284EF90E0F7
:102BD0000E943429DA01C9014097A109B109B695CB
:102BE000A795979587958093B80018C0E0916203E8
:102BF000F0916303908180916703892B808380919A
:102C00004E0390914F03892B49F0DF91CF911F9193
:102C10000F91FF90EF90DF900C94FF0FDF91CF9119
:102C20001F910F91FF90EF90DF9008953F924F9288
:102C30005F926F927F928F929F92AF92BF92CF924C
:102C4000DF92EF92FF920F931F93CF93DF9300D009
:102C500000D000D0CDB7DEB72C013B014A015901AD
:102C6000C901079697FD07969C0193E03595279536
:102C70009A95E1F73C832B83C12CD12CE12CF12CCC
:102C8000312CC3018E0D9F1D9A838983E016F106B6
:102C9000C4F51E821D822D813E812A153B054CF50F
:102CA000C90187709927892B11F0330C0EC0ED8173
:102CB000FE81F7FD379683E0F595E7958A95E1F774
:102CC000EC0DFD1DE80DF91D349037FE0CC021E020
:102CD00030E049815A816D817E81640D751D83E3E9
:102CE00093E00E94F9098D819E8101969E838D83D8
:102CF000D2CF9FEFE91AF90A2B813C81C20ED31E75
:102D0000C0CF26960FB6F894DEBF0FBECDBFDF91C1
:102D1000CF911F910F91FF90EF90DF90CF90BF90D8
:102D2000AF909F908F907F906F905F904F903F906B
:102D300008952F923F924F925F926F927F928F925F
:102D40009F92AF92BF92CF92DF92EF92FF920F933A
:102D50001F93CF93DF93CDB7DEB7A4970FB6F89448
:102D6000DEBF0FBECDBF4B015C01F42E9B01AC0159
:102D70000E943628882319F06BEC71E027C02401EB
:102D80003501E89477F82FEF3FEF4FE75FE7C30196
:102D9000B2010E94362881110DC02FEF3FEF4FE79F
:102DA0005FE7C301B2010E94282518161CF46FECDE
:102DB00071E00CC02FEF3FEF4FE75FE4C501B401B6
:102DC0000E94912718163CF463ED71E083E393E0D1
:102DD0000E946C0CBCC02FEF3FEF4FE75FECC501CA
:102DE000B4010E94282587FDEFCF20E030E0A90143
:102DF000C501B4010E94282587FF0BC06DE283E363
:102E000093E00E94B20A3C01B7FAB094B7F8B094CC
:102E100002C0612C712C10E060E070E080E09FE364
:102E2000F11641F020E030E040E251E40E94F0264B
:102E30001F5FF6CFA50194010E9484264B015C011F
:102E40000E9462276AA3C72ED82EE92E19A2262F28
:102E5000372F482F592F8E010F5D1F4F0BA31CA337
:102E60009AE0292E312C412C512CCA01B901A20122
:102E700091010E943429605DF80162938F01211550
:102E800031054105510589F7BF0183E393E00E94B5
:102E90006C0C8301080F191FFF2009F457C06AA1A9
:102EA0007C2D8D2D9E2D0E942D259B01AC01C501F1
:102EB000B4010E9483264B015C016EE283E393E040
:102EC0000E94B20A080F191F8AE0282E312C412CCB
:102ED000512C20E030E040E251E4C501B4010E94F1
:102EE0008E254B015C010E9462279B0140E050E06F
:102EF00019A2CBA0DCA0762E3AA3642EE52ECA013F
:102F0000B901A20191010E943429605DF60162932A
:102F10006F01211531054105510589F7BF0183E393
:102F200093E00E946C0C080F191F672D7AA1862D63
:102F30009E2D0E942D259B01AC01C501B4010E946C
:102F400083264B015C01FA94F110C3CFC801A4960B
:102F50000FB6F894DEBF0FBECDBFDF91CF911F91AA
:102F60000F91FF90EF90DF90CF90BF90AF909F9028
:102F70008F907F906F905F904F903F902F9008952B
:102F8000CF93DF93FC01448155816081718186E993
:102F900092E00E945306EC0167E971E086E992E055
:102FA0000E946C0C8C0F9D1FDF91CF910895CF92E2
:102FB000DF92EF92FF920F931F93CF93DF93CDB7E2
:102FC000DEB764970FB6F894DEBF0FBECDBF7C01AD
:102FD000CB01BA018E010F5F1F4F22E044E00E9437
:102FE000D6226C01FC0101900020E9F73197E81B23
:102FF000F90B892BF9F0309701F1D70114960D9157
:103000001C9115970E0F1F1FB801C7010E94090ED2
:10301000882381F0F7012081318184819581B60177
:10302000820F931F0E94612BD70115961C930E935C
:10303000149703C0C7010E94300EC70164960FB6F3
:10304000F894DEBF0FBECDBFDF91CF911F910F91DE
:10305000FF90EF90DF90CF900895EF92FF920F9343
:103060001F93CF93DF93FC0111821082138212828F
:10307000158214828617970739F1DB010D911C9197
:1030800011970115110501F1EC011496ED90FC90DA
:103090001597B7010E94090E811109C0CE01DF9179
:1030A000CF911F910F91FF90EF900C94300EFD8205
:1030B000EC82B80188819981DF91CF911F910F91A6
:1030C000FF90EF900C94612BDF91CF911F910F91A6
:1030D000FF90EF9008950F931F93CF93DF9377FFA7
:1030E00004C0260F371F60E070E0DC011496CD911C
:1030F000DC911597FB01E20FF31FCE17DF071CF4DD
:103100009E01261B370B121613060CF046C0FA015F
:1031100057FD3796DF01E3E0B595A795EA95E1F70E
:10312000AC9FF001AD9FF00DBC9FF00D11246E0F10
:103130007F1FDC015F96ED91FC919097E60FF71FE2
:103140004770552781E090E001C0880F4A95EAF763
:10315000482F0130110539F078F002301105E9F4FB
:103160002E0F3F1F13C02E0F3F1FE217F307A9F0CA
:103170008081842B8193F9CF80952E0F3F1FE2171A
:10318000F30759F0908198239193F9CFE217F30751
:1031900021F0808184278193F9CFDF91CF911F9116
:1031A0000F910895EF92FF920F931F93CF93DF93A8
:1031B000EC0177FDA5C0EC80FD806E157F050CF05D
:1031C0009FC057FF04C0240F351F40E050E08E81A0
:1031D0009F81FA01E20FF31F8E179F071CF49C01D9
:1031E000241B350B121613060CF08AC0922F842F65
:1031F0008695869586958E9DD0018F9DB00D112464
:103200006A0F7B1FAF8DB8A1A60FB71F4770B1F132
:1032100088E0841B482F682F70E0FB01E051F94FD4
:10322000E491281798F4621B71092FEF30E002C077
:10323000359527956A95E2F7E2230130110549F0AB
:1032400078F00230110509F05BC00EC001301105A5
:1032500019F48C91E82B0AC00130110508F049C01F
:10326000E0958C91E82302C08C91E827EC939417A9
:1032700008F446C02C813D81A20FB31FE92FE41B47
:10328000E830F8F00230110561F48E2F9C91909592
:103290009C932C813D81A20FB31F88508830B0F7DA
:1032A0000FC081E00115110509F480E081959E2F82
:1032B0008C932C813D81A20FB31F98509830C0F79A
:1032C000E770EE23E9F0F0E0E851F94FE4910130C6
:1032D000110539F048F00230110591F48C91E8277E
:1032E00006C08C91E82B03C0E0958C91E823EC9309
:1032F00007C00230110509F4B7CFAE0DBF1DBECF18
:10330000DF91CF911F910F91FF90EF9008953FB7FC
:10331000F8948091840390918503A0918603B091E5
:10332000870326B5A89B05C02F3F19F00196A11D64
:10333000B11D3FBFBA2FA92F982F8827820F911D4B
:10334000A11DB11DBC01CD0142E0660F771F881F92
:10335000991F4A95D1F708952F923F924F925F920D
:103360006F927F928F929F92AF92BF92CF92DF9295
:10337000EF92FF920F931F93CF93DF93CDB7DEB7FA
:103380006B970FB6F894DEBF0FBECDBF9B8F8A8FB1
:103390001B014A01D22E198708873701A982DC0157
:1033A00059962D913C915A972115310509F0FFC08E
:1033B00018968D919C911997681779070CF0E7C1C1
:1033C0001A968D919C911B97481759070CF0DFC1F5
:1033D000EC2DF0E0FB83EA839B0146E0C49E200DC8
:1033E000311D11243D872C87121613060CF0CFC116
:1033F0006A2D70E07B876A8783E0660F771F8A9566
:10340000E1F77F876E87CB01880D991D1816190685
:103410000CF0BDC158968C91811104C08FEA8D15B6
:1034200008F4D394AA8DBB8DED91FC911197028481
:10343000F385E02DCD010995B5E0DB9EC001112497
:10344000EC2DF0E0F98BE88B91012B5F3F4F3B8B2C
:103450002A8B3D822C822101AC01421953095D8BDC
:103460004C8B7981672F70E07F8B6E8BC40108963F
:10347000998F888FEC89FD89E40DF51DE35BF84F8A
:10348000D49054019F828E82D0FE16C0AA8DBB8D2F
:10349000ED91FC91B1E0CB1209C02981213031F4CA
:1034A0000484F585E02D2885398519C00684F785C3
:1034B000E02DE884F9841DC04885598546155705D7
:1034C00019F1AA8DBB8DED91FC91B1E0CB120DC02D
:1034D0002981213051F40484F585E02D9301A50163
:1034E000B2018A8D9B8D09950FC00684F785E02D6A
:1034F00073010A851B852A813B814E815F816C8126
:103500007D818A8D9B8D0995D6943FEFA31AB30ACE
:103510004E815F816E897F89460F571F5F834E837F
:10352000888D998DA816B90609F0AECF9FEF491A7C
:10353000590AAC81BD81E889F989AE0FBF1FBD83EF
:10354000AC832A893B894216530609F093CF4885FC
:1035500059854615570509F4F8C0AA8DBB8DED9124
:10356000FC91B1E0CB1211C02981213071F4B1017D
:103570006B5F7F4F0088F189E02D830128E030E008
:10358000A4018A8D9B8D0995E0C06C857D854A815B
:103590005B81641B750B0684F785E02D73010E8536
:1035A0001F859A01A4018A8D9B8D0995CEC0F901D2
:1035B0003496E491DE1AF901329685919491B7E040
:1035C000DB9E800D911D1124F901259134913B8BD7
:1035D0002A8BFC01259134915901FC0132965490BB
:1035E000319634913C87329674903196149141E033
:1035F0004C1518F05981523068F0672D072C000CDB
:10360000770B7D836C83812F012E000C990B9B839C
:103610008A8304C01B821A821D821C82AA8DBB8DE4
:10362000ED91FC9111970284F385E02DCD01099570
:10363000412CD12C612CF981EF2FF0E0FF83EE8338
:103640002C2D30E03B872A87A401410F511D17FD27
:103650005A955F8B4E8BB101670D711D77FC7A9582
:10366000798F688F7C85671608F06FC0262D30E053
:103670004A815B81420F531FAE81BF81A49FC0016D
:10368000A59F900DB49F900D1124F401E80FF91F30
:10369000F98BE88B842D712C4E895F89420F531F63
:1036A0005D8B4C8B751408F04DC051E0580F5E8750
:1036B000877041F4C5010196EA89FB89EA0DFB1D7B
:1036C000D4905C01D7FE3AC061E0C61216C0798181
:1036D000713099F4AA8DBB8DED91FC911197048402
:1036E000F585E02D288539854C895D89688D798D32
:1036F000670D711DCD01099521C08C819D81870DBC
:10370000911DEA85FB858E9FB0018F9F700D9E9F56
:10371000700D1124620D731DAA8DBB8DED91FC916E
:1037200011970684F785E02DE884F9840E811F81C6
:103730002A853B8548895989CD010995DD0C73940B
:103740008E85B0CF450C63948DCFAA8DBB8DED9146
:10375000FC9111970688F789E02DCD016B960FB685
:10376000F894DEBF0FBECDBFDF91CF911F910F91B7
:10377000FF90EF90DF90CF90BF90AF909F908F9091
:103780007F906F905F904F903F902F9009946B9631
:103790000FB6F894DEBF0FBECDBFDF91CF911F9162
:1037A0000F91FF90EF90DF90CF90BF90AF909F90E0
:1037B0008F907F906F905F904F903F902F900895E3
:1037C000833081F028F4813099F08230A1F008959F
:1037D0008730A9F08830B9F08430D1F4809180002E
:1037E0008F7D03C0809180008F7780938000089543
:1037F00084B58F7702C084B58F7D84BD0895809194
:10380000B0008F7703C08091B0008F7D8093B000AF
:1038100008951F93CF93DF93282F30E0F901E75CE1
:10382000F84F8491F901EB5DF84FD491F901EF5E07
:10383000F84FC491CC23C1F0162F81110E94E01BD8
:10384000EC2FF0E0EE0FFF1FE95FF84FA591B49168
:103850009FB7F894111104C08C91D095D82302C061
:10386000EC91DE2BDC939FBFDF91CF911F910895E8
:10387000CF93DF9390E0FC01EB5DF84F2491FC01C6
:10388000EF5EF84F8491882361F190E0880F991FD3
:10389000FC01E350F94FC591D491FC01E95FF84F69
:1038A000A591B491611109C09FB7F89488812095C2
:1038B00082238883EC912E230BC0623061F49FB782
:1038C000F8948881322F309583238883EC912E2BB6
:1038D0002C939FBF06C08FB7F894E8812E2B2883C6
:1038E0008FBFDF91CF9108958E3008F08E50877092
:1038F000806480937C0080917A00806480937A0059
:1039000080917A0086FDFCCF80917800209179002B
:1039100090E0922B08958F929F92AF92BF92CF9298
:10392000DF92EF92FF926B017C010E9487194B019D
:103930005C01C114D104E104F104F1F00E94871983
:10394000DC01CB0188199909AA09BB09883E93407B
:10395000A105B10570F321E0C21AD108E108F10810
:1039600088EE880E83E0981EA11CB11CC114D104FE
:10397000E104F10419F7DDCFFF90EF90DF90CF90D5
:10398000BF90AF909F908F9008951F920F920FB6A7
:103990000F9211242F933F938F939F93AF93BF93D5
:1039A0008091800390918103A0918203B091830361
:1039B00030917F0323E0230F2D3720F40196A11DC2
:1039C000B11D05C026E8230F0296A11DB11D20934D
:1039D0007F038093800390938103A0938203B0932D
:1039E00083038091840390918503A0918603B09115
:1039F00087030196A11DB11D8093840390938503D5
:103A0000A0938603B0938703BF91AF919F918F914D
:103A10003F912F910F900FBE0F901F901895CF934D
:103A2000DF93CDB7DEB7C65ED1090FB6F894DEBF1F
:103A30000FBECDBF789484B5826084BD84B58160AB
:103A400084BD85B5826085BD85B5816085BD809169
:103A50006E00816080936E001092810080918100E1
:103A600082608093810080918100816080938100D9
:103A7000809180008160809380008091B10084609B
:103A80008093B1008091B00081608093B0008091FC
:103A90007A00846080937A0080917A0082608093BB
:103AA0007A0080917A00816080937A0080917A0018
:103AB000806880937A001092C100E091A602F09194
:103AC000A70282E08083E091A202F091A30210821B
:103AD000E091A402F091A50280E180831092AE02F1
:103AE000E091AA02F091AB0286E08083E091A80207
:103AF000F091A902808180618083E091A802F09119
:103B0000A902808188608083E091A802F091A902D7
:103B1000808180688083E091A802F091A902808171
:103B20008F7D80838091520390915303892B11F5EF
:103B30002091390330913A03C901079697FD079602
:103B400023E0959587952A95E1F7209137033091E9
:103B50003803AC01429FC001439F900D529F900DCE
:103B600011240E945C299093530380935203892B64
:103B700009F42CC10E94A4132091390330913A0317
:103B80008091370390913803213231050CF407C33B
:103B9000B9016054710977FF02C06F5F7F4F75955F
:103BA00067958255910997FD019600E410E022E5A2
:103BB00030E046ED53E0959587950E94161682E019
:103BC000809355038091500390915103892B09F400
:103BD000FAC28CE3809354031092400210923F0289
:103BE00010927302109295021092710281E08093FC
:103BF000700210924B0261E082E10E94091C61E0B8
:103C000083E10E94091C8091B9008E7F8093B900E6
:103C10008091B9008D7F8093B90088E48093B800CB
:103C200085E48093BC0081E997E090933E02809305
:103C30003D0282E997E090933C0280933B028091A1
:103C40005B0387FD1EC061E00E94381C61E080912B
:103C50005B030E94091C61E070E080E090E00E943C
:103C60008B1C60E080915B030E94091C6AE070E09D
:103C700080E090E00E948B1C61E080915B030E94D9
:103C8000091C8091500390915103892B09F45AC368
:103C9000209168033091690340916A0350916B034E
:103CA00060E074E284EF90E00E943429DA01C901F7
:103CB0004097A109B109B695A795979587958093E7
:103CC000B80064E082EF91E00E9420146091390313
:103CD000615083E393E00E94071064E08EEE91E070
:103CE0000E94201480915503813009F442C364E19D
:103CF00083E393E00E94071064E08AEE91E00E9463
:103D000020148FE8809370038091370390913803DB
:103D10008038910509F031C38091390390913A03BD
:103D20008034910509F03BC380915503813009F43B
:103D300022C38FEC8093700312E16AED83E393E07A
:103D40000E940710612F83E393E00E94071061E84F
:103D500083E393E00E9407106091700383E393E094
:103D60000E94071069ED83E393E00E9407108091A1
:103D70005503813009F415C361EF83E393E00E949A
:103D8000071066E084EE91E00E94201480915003B9
:103D900090915103892B09F406C320916C03309153
:103DA0006D0340916E0350916F0360E074E284EF05
:103DB00090E00E943429DA01C9014097A109B109B4
:103DC000B695A795979587958093B8000E94D614CD
:103DD00060ED77E080E090E00E948B1C0E94A413CD
:103DE00060E08CE00E94381C90E1492E97E2592E49
:103DF000612C712C2224239401E010E08EE00E94BB
:103E0000741CBC01990F880B990B0E942F256B0124
:103E10007C018FE00E94741CBC01990F880B990BE8
:103E20000E942F254B015C018FE090E08C0F9D1FBD
:103E30009A8389839C838B83E7EDF0E0EC0FFD1F71
:103E4000FE83ED83F887EF8319868E8580788E87D1
:103E5000AE014F5F5F4F66E571E0CE010A960E94AA
:103E60002313FC01892B41F0948190789460948312
:103E70004CE551E051834083AE014F5F5F4F65E6F3
:103E800071E0CE010A960E942313AC01C501B40172
:103E90000E946D10AE014F5F5F4F6DE671E0CE0185
:103EA0000A960E942313AC01C701B6010E946D104F
:103EB000AE014F5F5F4F64E771E0CE010A960E944A
:103EC0002313FC01892B41F0948190789A609483AC
:103ED0004082518262827382AE014F5F5F4F6BE717
:103EE00071E0CE010A960E942313FC01892B41F058
:103EF000948190789A609483408251826282738226
:103F0000AE014F5F5F4F61E871E0CE010A960E94FB
:103F10002313AC016FEF72EB8BE59FE30E946D10F2
:103F2000AE014F5F5F4F6AE871E0CE010A960E94D2
:103F30002313AC0160E079ED88EF97E40E946D10E7
:103F400086E992E0C952DF4F99838883C75DD040EC
:103F5000C752DF4F19821882C95DD040BE01695235
:103F60007F4FCE010A960E94861067E971E086E9CC
:103F700092E00E946C0C2AE038E240EA5BE3C70161
:103F8000B6010E948E259B01AC0160E070E080EAE2
:103F900090E40E94F02620E030E040E85FE30E94D9
:103FA00083269B01AC0160E070E48CE196E40E9402
:103FB000F0269B01AC0160E079ED88EF97E40E9468
:103FC000F0266B017C0120E030E0A9010E949127DE
:103FD000181624F0F7FAF094F7F8F0942EE336E28E
:103FE00045E95FE3C701B6010E94E62760934702F7
:103FF000709348028093490290934A02A50194016C
:1040000060E070EC8FE794E40E94F02620E030E05E
:1040100040E85FE30E94832620E030E44CE156E470
:104020000E948E250E949E276B017C012CE63FECAE
:1040300048E554E30E948E25A70196010E948E2533
:10404000A70196010E948E25CD51DF4F68837983A9
:104050008A839B83C35ED04026ED34E649E759E36B
:10406000C701B6010E948E252BEC38E444E85AE3E0
:104070000E9484269B01AC01CD51DF4F688179817C
:104080008A819B81C35ED0400E9484269B01AC0143
:1040900060E070E080E89FE30E94F02623E333E9CC
:1040A00048E853E40E9483266B017C01609343023D
:1040B000709344028093450290934602E5E4F7E052
:1040C0008491E1E3F7E03490EDE1F7E0A490AA20D9
:1040D00009F47CC181110E94E01BEA2DF0E0EE0F93
:1040E000FF1FEA56F94FA591B4918C91382209F43B
:1040F0006DC10E94A413209247032092480310939D
:10410000460300934503109344030093430382E066
:1041100090E09093400380933F03909342038093F9
:10412000410380914202882391F06AE971E083E3C0
:1041300093E00E946C0C609147027091480280915C
:10414000490290914A0242E00E94991617C060EA23
:1041500071E083E393E00E946C0C609143027091E4
:104160004402809145029091460242E00E949916D5
:1041700067EA71E083E393E00E946C0C67E971E009
:1041800083E393E00E946C0C0E94D6146AEF70E007
:1041900080E090E00E948B1C0E9455072FCEB90151
:1041A0006052710977FF02C06F5F7F4F7595679509
:1041B0008357910997FD019600E210E023E730E074
:1041C00046EF51E0F8CC61E0809159030E94381C21
:1041D00061E080915A030E94381C80915903082E97
:1041E000000C990BFC01EF5EF84FE491F0E0EE0F4C
:1041F000FF1FE95FF84F25913491309361032093BD
:104200006003FC01EB5DF84FE491E093660380915D
:104210005A03082E000C990BFC01EF5EF84FE49155
:10422000F0E0EE0FFF1FE95FF84FA591B491B09356
:104230006303A0936203FC01EB5DF84FE491E0930C
:1042400067038C91E82BEC9380914E0390914F0380
:10425000892B09F434C01FB7F89480914102811171
:1042600027C0EBE1F7E08491EFE2F7E09491E82FCB
:10427000F0E0EE0FFF1FE350F94FA591B491EC91E0
:10428000E92321F461E08AE00E94091C61E08AE0F0
:104290000E94381C8CB580618CBD8CB580648CBD4F
:1042A00061E08DE00E94381C61E08BE00E94381CC8
:1042B000809141028F5F809341021FBFC0CC61E0BB
:1042C000809157030E94381C61E0809158030E943E
:1042D000381C80915703082E000C990BFC01EF5EEF
:1042E000F84FE491F0E0EE0FFF1FE95FF84F2591E2
:1042F000349130935D0320935C03FC01EB5DF84F38
:10430000E491E093640380915803082E000C990B0C
:10431000FC01EF5EF84FE491F0E0EE0FFF1FE95F64
:10432000F84FA591B491B0935F03A0935E03FC0195
:10433000EB5DF84FE491E09365038C91E095E82301
:10434000EC937DCC80914E0390914F03892B31F0FB
:1043500080917103909172030E946A10E091620350
:10436000F091630390818091670380958923808316
:10437000A8CC60E1BDCC8FE9DDCC8036910579F425
:104380008091390390913A03409749F48091550305
:10439000813011F08FEA01C080E18093700312E058
:1043A000CCCC62E2EACCE0916203F09163039081AD
:1043B00080916703892B808380914E0390914F03F6
:1043C000892B09F403CD0E94FF0F00CD809142029A
:1043D00082258093420260EA71E0CE0183529F4FB2
:1043E0000E94310CBE0163527F4FCE0189529F4F14
:1043F0000E942D18B701A601CE0189529F4F0E943D
:10440000D7170E94C017C952DF4F88819981C75DB5
:10441000D0400E94F429C352DF4F88819981CD5D3D
:10442000D0400E94F429C0904702D0904802E0900A
:104430004902F0904A026AE971E0CE0183529F4F2F
:104440000E94310CBE0163527F4FCE0189529F4FB3
:104450000E942D18B701A601CE0189529F4F0E94DC
:10446000D7170E94C017C952DF4F88819981C75D55
:10447000D0400E94F429C352DF4F88819981CD5DDD
:10448000D0400E94F42935CE8EE291E0909334031F
:10449000809333038091520390915303009711F05E
:1044A0000C94F4290895E6E9F2E01382128248EEB2
:1044B00053E060E070E044835583668377838AE04D
:1044C00091E09183808385EC90E09587848784ECEC
:1044D00090E09787868780EC90E0918B808B81ECD1
:1044E00090E0938B828B82EC90E0958B848B86ECB2
:1044F00090E0978B868B118E128E138E148EA3E70D
:10450000B3E013961C921E92129714964D935D93EE
:104510006D937C9317978CE191E011969C938E9309
:10452000E3E3F3E01382128220E830E03583248352
:1045300080E490E097838683318720879387828702
:10454000168A158614861786168681E0858B848BDD
:104550002FEF3FEF338B228B318B208B878B108E8D
:10456000128E118E8EE291E091838083148E138ED1
:10457000B68FA58F10A2178E8FEF84A385A386A375
:1045800087A380A780E89AE1A6E0B0E085AB96AB70
:10459000A7ABB0AF80EA96E8A1E0B0E081AF92AF00
:1045A000A3AFB4AF80E586AF17AE0895EF920F9337
:1045B0001F93CF93DF93E80147FD02C034E001C0B1
:1045C00034E1042E000C550B57FF03C05195419563
:1045D0005109E32E022F242FAE010E94F622CE01B4
:1045E000DF91CF911F910F91EF900895A9E0B0E076
:1045F000ECEFF2E20C9452266A01122FB02E2BE35C
:10460000201720F0FF24F394F00E02C02CE3F22ECA
:104610000F2D27E0AE014F5F5F4F0E945024BC0179
:104620004981842F8970813031F0E1FC06C0E0FEC1
:1046300006C090E205C09DE203C09BE201C090E08D
:104640005E2D507143FF3CC0911102C083E001C058
:1046500084E0811718F4212F281B01C020E051119C
:104660000BC0F601822F30E2882319F0319381507C
:10467000FBCFC20ED11C20E0992329F0D6019C93D8
:10468000F60131966F01C6010396E2FE0AC03EE4D0
:10469000D6013C9341E411964C93119712963C93AA
:1046A00006C03EE6F601308341E641833283FC01D9
:1046B000322F40E2332309F442C041933150FACF04
:1046C00042FF44C0911102C083E001C084E0811721
:1046D00018F4212F281B01C020E051110BC0F60156
:1046E000822F30E2882319F031938150FBCFC20E24
:1046F000D11C20E0992329F0D6019C93F601319634
:104700006F01C6010396E2FE0BC039E4D6013C936B
:104710003EE411963C93119736E412963C9307C001
:1047200039E6F60130833EE6318336E63283FC011A
:10473000322F40E2332319F041933150FBCFFC017B
:10474000E20FF11D10828EEF9FEFA6C021E030E056
:10475000911102C020E030E0161617061CF4FB0190
:10476000319602C0E1E0F0E02E0F3F1FBB2021F0A8
:10477000EB2DF0E0319602C0E0E0F0E02E0F3F1F9D
:10478000E12FF0E02E173F071CF4121B212F01C070
:1047900020E08E2D887159F4F601822F30E28823B3
:1047A00019F031938150FBCFC20ED11C20E0992328
:1047B00029F0D6019C93F60131966F0151110BC07F
:1047C000F601822F90E3882319F091938150FBCF5B
:1047D000C20ED11C20E00F2D060F9A81342F3071AC
:1047E00044FF03C0913309F40150101624F409303A
:1047F00018F008E001C001E0AB0177FF02C040E023
:1048000050E0FB01E41BF50BA1E0B0E0AC0FBD1FD5
:10481000EA0FFB1F8EE2A82E4B01801A91080B2D88
:1048200010E01195019511094F3FBFEF5B0721F48F
:10483000D601AC9211966D01641775072CF08416A1
:10484000950614F4818101C080E3415051093196ED
:10485000D60111967D014017510724F0D6018C93A3
:104860006701E2CF6417750739F4963320F4953366
:1048700019F4311101C081E3F6018083F701822F21
:1048800090E2882319F091938150FBCFF701E20F5A
:10489000F11D108280E090E02996ECE00C946E26E9
:1048A000283008F027E03327DA01990F311D87FD02
:1048B000916000966105710539F432602E5F3D9379
:1048C00030E32A95E1F708959F3F30F08038710575
:1048D000610509F03C5F3C5F3D93913008F08068D2
:1048E000911DDF93CF931F930F93FF92EF92192F98
:1048F000987F9695E92F96959695E90FFF27EC5BA3
:10490000FE4F99273327EE24FF24A701E7010590E6
:104910000894079428F4360FE71EF81E491F511D0E
:10492000660F771F881F991F0694A1F705900794BB
:1049300028F4E70EF81E491F561FC11D770F881F68
:10494000991F661F0694A1F70590079428F4F80EA6
:10495000491F561FC71FD11D880F991F661F771F3C
:104960000694A1F70590079420F4490F561FC71F1E
:10497000D81F990F661F771F881F0694A9F7849187
:104980001095177041F0D695C79557954795F794B0
:10499000E7941A95C1F7EAEEF0E068941590159146
:1049A00035916591959105907FE27395E118F10A33
:1049B000430B560BC90BD009C0F7E10CF11E431F86
:1049C000561FC91FD01D7EF4703311F48A95E6CFAF
:1049D000E894015030F0080F0AF40027021708F499
:1049E000202F2395022F7A3328F079E37D932A959F
:1049F000E9F710C07D932A9589F6069497956795F7
:104A0000379517951794E118F10A430B560BC90B0C
:104A1000D00998F023957E9173957A3308F070E36E
:104A20007C932013B8F77E9170617D9330F083956D
:104A300071E37D9370E32A95E1F71124EF90FF90E5
:104A40000F911F91CF91DF91992787FD9095089540
:104A50000E946A2508F481E00895E89409C097FB54
:104A60003EF490958095709561957F4F8F4F9F4F45
:104A70009923A9F0F92F96E9BB279395F695879589
:104A800077956795B795F111F8CFFAF4BB0F11F44C
:104A900060FF1BC06F5F7F4F8F4F9F4F16C08823F3
:104AA00011F096E911C0772321F09EE8872F762F29
:104AB00005C0662371F096E8862F70E060E02AF06A
:104AC0009A95660F771F881FDAF7880F9695879556
:104AD00097F90895990F0008550FAA0BE0E8FEEF2B
:104AE00016161706E807F907C0F012161306E407B2
:104AF000F50798F0621B730B840B950B39F40A26AB
:104B000061F0232B242B252B21F408950A2609F488
:104B1000A140A6958FEF811D811D08950E94A125BA
:104B20000C9412260E94042638F00E940B2620F0D6
:104B3000952311F00C94FB250C94012611240C9460
:104B400046260E94232670F3959FC1F3950F50E0EF
:104B5000551F629FF001729FBB27F00DB11D639F2F
:104B6000AA27F00DB11DAA1F649F6627B00DA11DD5
:104B7000661F829F2227B00DA11D621F739FB00D7B
:104B8000A11D621F839FA00D611D221F749F3327EB
:104B9000A00D611D231F849F600D211D822F762F84
:104BA0006A2F11249F5750409AF0F1F088234AF061
:104BB000EE0FFF1FBB1F661F771F881F91505040CD
:104BC000A9F79E3F510580F00C94FB250C944626D6
:104BD0005F3FE4F3983ED4F3869577956795B79554
:104BE000F795E7959F5FC1F7FE2B880F911D96956E
:104BF000879597F9089597F99F6780E870E060E0DE
:104C000008959FEF80EC089500240A941616170665
:104C100018060906089500240A94121613061406AD
:104C200005060895092E0394000C11F4882352F010
:104C3000BB0F40F4BF2B11F460FF04C06F5F7F4FC8
:104C40008F4F9F4F089557FD9058440F551F59F0AF
:104C50005F3F71F04795880F97FB991F61F09F3F69
:104C600079F087950895121613061406551FF2CF92
:104C70004695F1DF08C0161617061806991FF1CFE2
:104C800086957105610508940895E894BB27662709
:104C90007727CB0197F908952F923F924F925F9219
:104CA0006F927F928F929F92AF92BF92CF92DF923C
:104CB000EF92FF920F931F93CF93DF93CDB7DEB7A1
:104CC000CA1BDB0B0FB6F894DEBF0FBECDBF099435
:104CD0002A88398848885F846E847D848C849B848C
:104CE000AA84B984C884DF80EE80FD800C811B819A
:104CF000AA81B981CE0FD11D0FB6F894DEBF0FBEC9
:104D0000CDBFED0108955058BB27AA270E949B26CE
:104D10000C9412260E94042638F00E940B2620F0E4
:104D200039F49F3F19F426F40C9401260EF4E09513
:104D3000E7FB0C94FB25E92F0E94232658F3BA17B2
:104D4000620773078407950720F079F4A6F50C94A1
:104D500045260EF4E0950B2EBA2FA02D0B01B901BC
:104D600090010C01CA01A0011124FF27591B99F0E1
:104D7000593F50F4503E68F11A16F040A22F232FED
:104D8000342F4427585FF3CF469537952795A7953D
:104D9000F0405395C9F77EF41F16BA0B620B730BE4
:104DA000840BBAF09150A1F0FF0FBB1F661F771F55
:104DB000881FC2F70EC0BA0F621F731F841F48F40A
:104DC000879577956795B795F7959E3F08F0B0CF93
:104DD0009395880F08F09927EE0F9795879508957A
:104DE0000E9404270C9412260E940B2658F00E9461
:104DF000042640F029F45F3F29F00C94FB25511163
:104E00000C9446260C9401260E94232668F39923CD
:104E1000B1F3552391F3951B550BBB27AA276217B6
:104E20007307840738F09F5F5F4F220F331F441FC3
:104E3000AA1FA9F335D00E2E3AF0E0E832D09150F7
:104E40005040E695001CCAF72BD0FE2F29D0660FE4
:104E5000771F881FBB1F261737074807AB07B0E827
:104E600009F0BB0B802DBF01FF2793585F4F3AF02D
:104E70009E3F510578F00C94FB250C9446265F3F2D
:104E8000E4F3983ED4F3869577956795B795F795B3
:104E90009F5FC9F7880F911D9695879597F908959B
:104EA000E1E0660F771F881FBB1F62177307840737
:104EB000BA0720F0621B730B840BBA0BEE1F88F746
:104EC000E09508950E942B2688F09F5798F0B92FFF
:104ED0009927B751B0F0E1F0660F771F881F991F2F
:104EE0001AF0BA95C9F714C0B13091F00E94452666
:104EF000B1E008950C944526672F782F8827B85F76
:104F000039F0B93FCCF3869577956795B395D9F786
:104F10003EF490958095709561957F4F8F4F9F4F90
:104F200008950E946A2508F48FEF089516F00C94F6
:104F300075280C94012668940C94FB250E942B265E
:104F4000A8F39923C1F3AEF3DF93CF931F930F938D
:104F5000FF92C92FDD2788232AF02197660F771F3C
:104F6000881FDAF720E030E040E85FEB9FE3883904
:104F700020F0803E38F021968F770E948426E8E664
:104F8000F0E004C00E948426E5E9F0E00E94832856
:104F90008B01BE01EC01FB2E6F5771097595771FD0
:104FA000880B990B0E942F2528E132E741E35FE34C
:104FB0000E94A125AF2D9801AE01FF900F911F9186
:104FC000CF91DF910E949B260C941226FA01EE0FDE
:104FD000FF1F309621053105A1F16115710561F4BE
:104FE0008038BFE39B0749F168949038810561F0F0
:104FF0008038BFEF9B0741F099234AF5FF3FE10559
:105000003105210519F1E8940894E795D901AA23FF
:1050100029F4AB2FBE2FF85FD0F310C0FF5F70F400
:10502000A695E0F7F73950F019F0FF3A38F49F777A
:105030009F930DD00F9007FC9058089546F00C9464
:10504000012660E070E080E89FE308954FE79F77D6
:105050005F934F933F932F930E949E272F913F91F1
:105060004F915F910E948E250C9443280E946A25DF
:10507000880B990B089529F416F00C94FB250C94D9
:1050800045260C9401260E942B26A8F39638A0F7FB
:1050900007F80F92E8942BE33AEA48EB5FE70E94A7
:1050A000A4250F920F920F924DB75EB70F920E94F8
:1050B000EC28E2ECF0E00E9483284F915F91EF91A1
:1050C000FF91E595EE1FFF1F49F0FE57E06844276A
:1050D000EE0F441FFA95E1F74195550B0E94B62853
:1050E0000F9007FE0C94AA2808959F3F31F091502D
:1050F00020F4879577956795B795880F911D9695BC
:10510000879597F90895DF93CF931F930F93FF929D
:10511000EF92DF927B018C01689406C0DA2EEF01DA
:105120000E94A125FE01E894A59125913591459114
:105130005591A6F3EF010E949B26FE019701A8015D
:10514000DA9469F7DF90EF90FF900F911F91CF9164
:10515000DF9108959B01AC0160E070E080E89FE37F
:105160000C94F0260C94FB250C9475280E942B2699
:10517000D8F39923C9F3940F511DA3F391505040D4
:1051800094F059F0882332F0660F771F881F9150F2
:105190005040C1F79E3F51052CF7880F911D969501
:1051A000879597F908955F3FACF0983E9CF0BB2738
:1051B000869577956795B79508F4B1609395C1F793
:1051C000BB0F58F711F460FFE8CF6F5F7F4F8F4F31
:1051D0009F4FE3CF0C944626FA01DC01AA0FBB1FB8
:1051E0009B01AC01BF5728F422273327442750786E
:1051F00020C0B75190F4AB2F0024469537952795E2
:10520000011CA395D2F3002071F0220F331F441F1D
:10521000B395DAF30ED00C94832661307105A0E8C3
:105220008A07B94630F49B01AC01662777278827A7
:105230009078309621F02083318342835383089500
:10524000AA1BBB1B51E107C0AA1FBB1FA617B707AC
:1052500010F0A61BB70B881F991F5A95A9F78095C8
:105260009095BC01CD010895A1E21A2EAA1BBB1B8B
:10527000FD010DC0AA1FBB1FEE1FFF1FA217B30722
:10528000E407F50720F0A21BB30BE40BF50B661F38
:10529000771F881F991F1A9469F7609570958095FC
:1052A00090959B01AC01BD01CF010895EE0FFF1F4A
:1052B0000590F491E02D09940F931F93CF93DF9302
:1052C0008230910510F482E090E0E0918A03F09141
:1052D0008B0320E030E0A0E0B0E0309719F140818E
:1052E00051810281138148175907C8F08417950727
:1052F00069F4109731F012960C93129713961C9341
:1053000027C000938A0310938B0322C02115310517
:1053100019F04217530718F49A01BD01EF01DF019C
:10532000F801DBCF21153105F9F0281B390B2430AA
:10533000310580F48A819B816115710521F0FB01A3
:105340009383828304C090938B0380938A03FE012E
:10535000329644C0FE01E20FF31F819391932250D5
:105360003109398328833AC0209188033091890319
:10537000232B41F4209102013091030130938903E2
:1053800020938803209100013091010121153105FE
:1053900041F42DB73EB74091040150910501241B03
:1053A000350BE0918803F0918903E217F307A0F42D
:1053B0002E1B3F0B2817390778F0AC014E5F5F4F6B
:1053C0002417350748F04E0F5F1F50938903409311
:1053D00088038193919302C0E0E0F0E0CF01DF9178
:1053E000CF911F910F910895CF93DF93009709F408
:1053F00081C0FC01329713821282A0918A03B0917E
:105400008B03109781F420813181820F931F2091AB
:105410008803309189032817390751F5F0938903E0
:10542000E093880367C0ED0120E030E0CE17DF078E
:1054300040F44A815B819E0141155105F1F0EA017A
:10544000F5CFD383C28340815181840F951FC81744
:10545000D90759F488819981840F951F0296918309
:1054600080838A819B81938382832115310529F46E
:10547000F0938B03E0938A033DC0E901FB83EA8349
:1054800049915991C40FD51FEC17FD0761F4808134
:105490009181840F951F0296E90199838883828107
:1054A00093819B838A83E0E0F0E012968D919C913A
:1054B0001397009719F0FD01DC01F7CF8D919C91B6
:1054C00011979D012E5F3F4F820F931F20918803FC
:1054D000309189032817390769F4309729F410921D
:1054E0008B0310928A0302C013821282B093890345
:1054F000A0938803DF91CF910895A0E0B0E0E3E8A6
:10550000FAE20C945026EC01009721F4CB010E94A2
:105510005C29B4C0FC01E60FF71F9C012250310941
:10552000E217F30708F4A8C0D9010D911C91119757
:1055300006171707B0F00530110508F49BC0C80125
:1055400004978617970708F495C002501109061BA7
:10555000170B019311936D937C93CF010E94F42953
:1055600089C05B01A01AB10A4C01800E911EA09166
:105570008A03B0918B03612C712CE12CF12C1097D4
:1055800009F446C08D919C911197A815B905B1F504
:105590006C0142E0C40ED11CCA14DB0478F14C014A
:1055A0008A189B08640142E0C40ED11C1296BC907C
:1055B00012971396AC91B5E0CB16D10440F0B282AD
:1055C000A38391828082D9016D937C9309C00E5F81
:1055D0001F4F800F911FF90191838083EB2DFA2FCC
:1055E000E114F10431F0D7011396FC93EE93129776
:1055F00041C0F0938B03E0938A033CC068167906A0
:1056000008F43C017D0112960D90BC91A02DB7CFFE
:10561000809188039091890388169906E1F46616B3
:105620007706C8F48091000190910101009741F440
:105630008DB79EB74091040150910501841B950BD5
:10564000E817F907C8F4F0938903E0938803F90198
:10565000718360830FC0CB010E945C297C0100979D
:1056600059F0A801BE010E94482BCE010E94F429E6
:10567000C70104C0CE0102C080E090E0CDB7DEB724
:10568000EEE00C946C2681E090E0F8940C94682B8A
:10569000FB01DC0102C001900D9241505040D8F74F
:1056A0000895DC0101C06D9341505040E0F708952A
:1056B000FB01DC018D91019080190110D9F3990B48
:1056C0000895FB01DC0101900D920020E1F708959F
:1056D00016E0C8E2D6E004C0FE010E9456292196D9
:0A56E000C932D107C9F7F894FFCFD3
:1056EA0000008C03800000000000E60653067D06D9
:1056FA003307AE068C06A00600000000EC07BF07C1
:10570A00000F9307B707A307940700000000B20A27
:10571A005306000FFF0E420E9307F909D109ED094E
:10572A00E109000A93071C088A0BED0BB40F1A094A
:10573A00FD0890083108746F7069630073656E73B1
:10574A006F7265730072617754656D70007261776C
:10575A004C75780074656D705231006C75785231F1
:10576A00006C757847616D6D61006C757844617283
:10577A006B56616C7565000D0A004C55583A20004D
:10578A0054454D503A20002043002F2F22225C5CC2
:10579A006208660C6E0A720D7409006E756C6C00F4
:1057AA00747275650066616C7365006E616E00697E
:0857BA006E66006F76660000C8
:00000001FF
