:100000000C9405060C942D060C942D060C942D06CC
:100010000C942D060C942D060C942D060C942D0694
:100020000C942D060C942D060C942D060C942D0684
:100030000C942D060C942D060C942D060C942D0674
:100040000C94A3170C942D060C94B00D0C948A0DEF
:100050000C942D060C942D060C942D060C942D0654
:100060000C94E20D0C942D0608000000BE92244969
:10007000123EABAAAA2ABECDCCCC4C3E00000080DA
:10008000BEABAAAAAA3E00000000BF000000803F4D
:100090000000000000084178D3BB4387D1133D190D
:1000A0000E3CC3BD4282AD2B3E68EC8276BED98F3A
:1000B000E1A93E4C80EFFFBE01C4FF7F3F0000007E
:1000C000000007634236B79BD8A71A39685618AEA6
:1000D000BAAB558C1D3CB7CC5763BD6DEDFD753E7D
:1000E000F6177231BF000000803F00407A10F35ACB
:1000F00000A0724E18090010A5D4E80000E8764868
:10010000170000E40B54020000CA9A3B000000E113
:10011000F505000080969800000040420F000000A6
:10012000A08601000000102700000000E803000086
:1001300000006400000000000A0000000000010050
:10014000000000002C76D888DC674F0823DFC1DF71
:10015000AE59E1B1B796E5E3E453C63AE651997674
:1001600096E8E6C28426EB898C9B62ED407C6FFCAE
:10017000EFBC9C9F40F2BAA56FA5F490055A2AF7F0
:100180005C936B6CF9676DC11BFCE0E40D47FEF5F9
:1001900020E6B500D0ED902E030094357705008061
:1001A000841E080000204E0A000000C80C333333C0
:1001B000330F986E12831141EF8D2114893BE65560
:1001C00016CFFEE6DB18D1844B381BF77C1D901D43
:1001D000A4BBE424203284725E228100C9F124ECA5
:1001E000A1E53D2700000000240027002A000000B0
:1001F0000000250028002B00040404040404040467
:1002000002020202020203030303030301020408C1
:100210001020408001020408102001020408102070
:1002200000000008000201000003040700000000B5
:100230000000000000000000003E5B4F5B3E3E6B94
:100240004F6B3E1C3E7C3E1C183C7E3C181C577D70
:10025000571C1C5E7F5E1C00183C1800FFE7C3E7BC
:10026000FF0018241800FFE7DBE7FF30483A060ECE
:100270002629792926407F050507407F05253F5A15
:100280003CE73C5A7F3E1C1C08081C1C3E7F142285
:100290007F22145F5F005F5F06097F017F00668930
:1002A000956A606060606094A2FFA29408047E0476
:1002B0000810207E201008082A1C08081C2A08089C
:1002C0001E101010100C1E0C1E0C30383E3830065C
:1002D0000E3E0E06000000000000005F0000000758
:1002E000000700147F147F14242A7F2A1223130886
:1002F000646236495620500008070300001C224162
:10030000000041221C002A1C7F1C2A08083E080805
:1003100000807030000808080808000060600020B5
:10032000100804023E5149453E00427F4000724998
:100330004949462141494D331814127F102745453C
:1003400045393C4A49493141211109073649494952
:1003500036464949291E00001400000040340000C0
:100360000008142241141414141400412214080229
:10037000015909063E415D594E7C1211127C7F499C
:100380004949363E414141227F4141413E7F4949F1
:1003900049417F090909013E414151737F0808081D
:1003A0007F00417F41002040413F017F08142241EE
:1003B0007F404040407F021C027F7F0408107F3E48
:1003C0004141413E7F090909063E4151215E7F09B5
:1003D000192946264949493203017F01033F40401C
:1003E000403F1F2040201F3F4038403F6314081407
:1003F0006303047804036159494D43007F4141413F
:100400000204081020004141417F0402010204401F
:1004100040404040000307080020545478407F28A3
:100420004444383844444428384444287F38545499
:10043000541800087E090218A4A49C787F080404BC
:100440007800447D40002040403D007F102844005B
:1004500000417F40007C047804787C0804047838EC
:1004600044444438FC1824241818242418FC7C081C
:10047000040408485454542404043F44243C404099
:10048000207C1C2040201C3C4030403C442810284C
:10049000444C9090907C4464544C44000836410095
:1004A0000000770000004136080002010204023C0F
:1004B0002623263C1EA1A161123A4040207A3854DE
:1004C0005455592155557941225454784221555457
:1004D000784020545579400C1E52721239555555AA
:1004E00059395454545939555454580000457C4195
:1004F0000002457D420001457C407D1211127DF0D5
:10050000282528F07C545545002054547C547C0AFE
:10051000097F4932494949323A4444443A324A48C7
:1005200048303A4141217A3A42402078009DA0A0CB
:100530007D3D4242423D3D4040403D3C24FF24241D
:10054000487E4943662B2FFC2F2BFF0929F620C03C
:10055000887E090320545479410000447D4130488D
:10056000484A32384040227A007A0A0A727D0D19D0
:10057000317D2629292F28262929292630484D4032
:1005800020380808080808080808382F10C8ACBA2E
:100590002F102834FA00007B000008142A142222AD
:1005A000142A14085500550055AA55AA55AAFF55F6
:1005B000FF55FF000000FF00101010FF001414147E
:1005C000FF001010FF00FF1010F010F0141414FCC6
:1005D000001414F700FF0000FF00FF1414F404FCE3
:1005E000141417101F10101F101F1414141F0010C4
:1005F0001010F0000000001F101010101F1010103D
:1006000010F010000000FF1010101010101010104B
:10061000FF10000000FF140000FF00FF00001F108B
:10062000170000FC04F414141710171414F404F445
:100630000000FF00F714141414141414F700F71436
:100640001414171410101F101F141414F414101085
:10065000F010F000001F101F0000001F1400000029
:10066000FC140000F010F01010FF10FF141414FF21
:10067000141010101F00000000F010FFFFFFFFFF1C
:10068000F0F0F0F0F0FFFFFF0000000000FFFF0FB0
:100690000F0F0F0F3844443844FC4A4A4A347E0254
:1006A000020606027E027E026355494163384444D5
:1006B0003C04407E201E2006027E020299A5E7A58A
:1006C000991C2A492A1C4C7201724C304A4D4D30FB
:1006D0003048784830BC625A463D3E494949007E20
:1006E0000101017E2A2A2A2A2A44445F44444051B7
:1006F0004A444040444A51400000FF0103E080FF6B
:10070000000008086B6B083612362436060F090FF6
:1007100006000018180000001010003040FF010112
:10072000001F01011E00191D1712003C3C3C3C003B
:1007300000000000000103070F1F3F7F0080C0E0A2
:10074000F0F8FCFE2200FF2100DB40A4A62EAF2023
:1007500000A1C8D300408DAED580A8000060000085
:10076000000000000000000000000000E0000000A9
:100770000000000000000000000001E00000000098
:1007800000000000000000000001F0000000000078
:10079000000000000000000003F000000000000066
:1007A0000000000000000007F00000000000000052
:1007B00000000000000007F800000000000000003A
:1007C00000000000000FF800000003C0007E0000E1
:1007D00001E0007F0FF800000003C000FE000001F0
:1007E000E000FFEFF800000003C000FE000001E0A1
:1007F00000FFFFF800000003C000F00000000F0041
:100800007FFE7FC0000003C000F00000000F003F2B
:10081000FE7FF83FF1FBCFFCFEF3BC3DEFE01FFE97
:100820007FFF7FFBFFDFFEFEFFBC3DEFE01FC6FF4B
:10083000FF7FFBFFDFFEFEFFBC3DEFE00FE3C7FEE7
:10084000787BC3DE1EF0FFBC3DEF0007FF87FC781E
:100850007BC3DE1EF0F83C3DEF0001FFFFF0007BA4
:10086000C3C01EF0F03C3DEF0001F37FE03FFBC34F
:10087000CFFEF0F03C3DEF0003E33F807FFBC3DFA2
:10088000FEF0F03C3DEF0007E73C00787BC3DE1E46
:10089000F0F03C3DEF0007FFBE00787BC3DE1EF0AA
:1008A000F03C3DEF0007FFFE00787BC3DE1EF0F05A
:1008B0003C3DEF000FFFFE007FFBFFDFFEF0F03F4F
:1008C000FDEFE00FFFFF007FFBFFDFFEF0F03FFDDD
:1008D000EFE00FF9FF003E79F9CF9EF0F01F3DE702
:1008E000E01FF1FF00000000000000000000000019
:1008F0001F80FF007FFFFFFFFFFFFFFFFFFFE01CE8
:10090000007F007FFFFFFFFEB46D888D18E00000C0
:100910001F007FFFFFFFFE95AD7DB577E000000F64
:10092000007FFFFFFFFEA5AD9D8D19E000000600D2
:100930007FFFFFFFFEB5ADEDB57EE00000000000DB
:1009400001800000000000000000000380000000A3
:1009500000000000000007C00000000000000000D0
:100960000007C00000000000000000000FC00000F1
:10097000000000000000001FE00000000000000078
:1009800000001FE00000000000000000003FE00049
:1009900000000000000000003FF000000000000028
:1009A0000000007FF0000000000000001FF87FF052
:1009B000000000000000003FFE7FF000000000008B
:1009C00000003FFF7FF0000000000000001FFFFB61
:1009D000E0000000000000000FFFF9FFC000000071
:1009E0000000000FFFF9FFF800000000000007FF03
:1009F000F1FFFF00000000000003FC73FFFF800018
:100A00000000000001FE3FFFFF800000000000002A
:100A1000FF1E0FFF000000000000007FFE1FFC0013
:100A20000000000000003FFFFFF800000000000091
:100A3000000FDFFFE0000000000000001F19FFC0F2
:100A4000000000000000003F3CFF0000000000002C
:100A500000007E7CF800000000000000007FFE7CAB
:100A60000000000000000000FFFFFC00000000008C
:100A7000000000FFFFFE0000000000000000FFFF7C
:100A8000FE0000000000000001FFEFFE000000007B
:100A900000000001FFCFFE0000000000000003FF87
:100AA00007FE0000000000000003FC07FE0000003D
:100AB0000000000003F003FE000000000000000141
:100AC0008000FE000000000000000000007E00002A
:100AD00000000000000000003E00000000000000D8
:100AE0000000000C000000000000078000FC000077
:100AF00003C0000000078001FC000003C0000000EC
:100B0000078001FC000003C0000000078001E00036
:100B100000001E000000078001E00000001E007FB2
:100B2000E3F79FF9FDE7787BDFC0FFF7FFBFFDFD2F
:100B3000FF787BDFC0FFF7FFBFFDFDFF787BDFC0E5
:100B4000F0F787BC3DE1FF787BDE00F0F787BC3D26
:100B5000E1F0787BDE0000F787803DE1E0787BDE26
:100B6000007FF7879FFDE1E0787BDE00FFF787BF1E
:100B7000FDE1E0787BDE00F0F787BC3DE1E0787BCB
:100B8000DE00F0F787BC3DE1E0787BDE00F0F78720
:100B9000BC3DE1E0787BDE00FFF7FFBFFDE1E07FD9
:100BA000FBDFC0FFF7FFBFFDE1E07FFBDFC07CF3B1
:100BB000F39F3DE1E03E7BCFC0000000000000005D
:100BC00000000000FFFFFFFFFFFFFFFFFFFFC0FF70
:100BD000FFFFFFFD68DB111A31C0FFFFFFFFFD2B98
:100BE0005AFB6AEFC0FFFFFFFFFD4B5B3B1A33C0B0
:100BF000FFFFFFFFFD6B5BDB6AFDC0000000002311
:100C0000002600290000FC17ED1711241FBECFEFAE
:100C1000D8E0DEBFCDBF23E0A6E7B1E001C01D9262
:100C2000AA32B207E1F711E0A0E0B1E0E4EEFCE4A3
:100C300002C005900D92A637B107D9F716E0C4E0BF
:100C4000D6E004C02197FE010E945C24C330D10786
:100C5000C9F70E947F180C9465260C940000CF926F
:100C6000DF92EF92FF920F931F93CF93DF936C016C
:100C70007A018B01C0E0D0E0CE15DF0581F0D8010C
:100C80006D918D01D601ED91FC910190F081E02DE7
:100C9000C6010995892B11F02196EECF7E01C7017F
:100CA000DF91CF911F910F91FF90EF90DF90CF9048
:100CB0000895FC01538D448D252F30E0842F90E062
:100CC000821B930B541710F0CF9608950197089547
:100CD000FC01918D828D981761F0828DDF01A80F44
:100CE000B11D5D968C91928D9F5F9F73928F90E066
:100CF00008958FEF9FEF0895FC01918D828D9817D5
:100D000031F0828DE80FF11D858D90E008958FEF11
:100D10009FEF0895FC01918D228D892F90E0805CDA
:100D20009F4F821B91098F739927089584E292E067
:100D30000E948A0621E0892B09F420E0822F089581
:100D4000FC01848DDF01A80FB11DA35ABF4F2C9168
:100D5000848D90E001968F739927848FA689B78937
:100D60002C93A089B1898C91837080648C93938D2E
:100D7000848D981306C00288F389E02D80818F7DD1
:100D800080830895EF92FF920F931F93CF93DF9389
:100D9000EC0181E0888F9B8D8C8D981305C0E889CC
:100DA000F989808185FD26C0F62E0B8D10E00F5F3E
:100DB0001F4F0F731127E02E8C8DE8120CC00FB659
:100DC00007FCFACFE889F989808185FFF5CFCE014C
:100DD0000E94A006F1CF8B8DFE01E80FF11DE35AB2
:100DE000FF4FF0829FB7F8940B8FEA89FB898081CF
:100DF00080620AC09FB7F894EE89FF896083E88912
:100E0000F98980818370806480839FBF81E090E056
:100E1000DF91CF911F910F91FF90EF900895CF93A5
:100E2000DF93EC01888D8823C9F0EA89FB898081F2
:100E300085FD05C0A889B9898C9186FD0FC00FB6C4
:100E400007FCF5CF808185FFF2CFA889B9898C9105
:100E500085FFEDCFCE010E94A006E7CFDF91CF91B5
:100E6000089580E090E0892B29F00E949606811178
:100E70000C940000089585ED8093BC008091BC0027
:100E800084FDFCCF1092FF0108954091B601262FFA
:100E900030E0240F311D21323105DCF42091FF01B7
:100EA0002430C9F4FC0180E090E0861758F43091BA
:100EB000B6012191DC01AA56BE4FA30FB11D2C93A0
:100EC0000196F3CF8091B601680F6093B60180E080
:100ED000089581E0089582E00895089508950895A1
:100EE000E091120380911103E81730F4F0E0EA5822
:100EF000FE4F808190E008958FEF9FEF08959091CD
:100F0000120380911103981750F4E92FF0E0EA588A
:100F1000FE4F208130E09F5F9093120302C02FEFBD
:100F20003FEFC90108958091110390E020911203D1
:100F3000821B91090895CF92DF92EF92FF920F9357
:100F40001F93CF93DF937C01CB018A012091000294
:100F5000222389F0EB016B01C40ED51ECC15DD05F3
:100F600069F06991D701ED91FC910190F081E02D3C
:100F7000C7010995F3CF642F0E944507C801DF918F
:100F8000CF911F910F91FF90EF90DF90CF90089538
:100F9000CF93DF931F92CDB7DEB769832091000214
:100FA0002223D1F020912302203240F021E030E0D2
:100FB000FC013383228380E090E015C08091010220
:100FC000E82FF0E0EE5FFD4F998190838F5F809373
:100FD00001028093230205C061E0CE0101960E94C8
:100FE000450781E090E00F90DF91CF91089508953B
:100FF000FC016370668B8481958126813781613025
:1010000039F0633029F091878087338722870895EC
:10101000318720879387828708956F927F928F927E
:101020009F92AF92BF92CF92DF92EF92FF920F9377
:101030001F93CF93DF93EC014B015A0169013801F3
:10104000E881F9810284F385E02D0995E881F98131
:101050000288F389E02D87019601A501B401CE0134
:101060000995A501460D571D41505109E881F981A7
:101070000288F389E02D9601B401CE010995E8813B
:10108000F9810088F189E02D9301A501B401CE0119
:101090000995C80CD91CB60161507109E881F98124
:1010A0000088F189E02D9301A501CE010995E88121
:1010B000F9810688F789E02DCE01DF91CF911F914C
:1010C0000F91FF90EF90DF90CF90BF90AF909F90E7
:1010D0008F907F906F9009948F929F92AF92BF9262
:1010E000CF92DF92EF92FF920F931F93CF93DF93F4
:1010F0004C016B015A01E901DC01ED91FC91621791
:10110000730781F40417150724F48B2D5801042F5D
:10111000182F0A191B0998012F5F3F4F048CF58D7A
:10112000E02D12C04017510709F52617370724F4A0
:101130008D2D6901C62FD82F9E012C193D092F5FD7
:101140003F4F068CF78DE02D8701A501B601C40144
:101150000995DF91CF911F910F91FF90EF90DF9054
:10116000CF90BF90AF909F908F9008950284F385A9
:10117000E02D0995D401ED91FC910488F589E02DCD
:101180009E01A501B601C4010995D401ED91FC9120
:101190000688F789E02DC401DF91CF911F910F914F
:1011A000FF90EF90DF90CF90BF90AF909F908F9087
:1011B0000994EF92FF920F931F93DC011A960D9101
:1011C0001C911B9718962D913C911997ED91FC91CC
:1011D00000A0F1A1E02D7B0140E050E060E070E074
:1011E00009951F910F91FF90EF9008954F925F9294
:1011F0006F927F928F929F92AF92BF92CF92DF9227
:10120000EF92FF920F931F93CF93DF936C012B010B
:101210005A0139014801DC01ED91FC910284F3850A
:10122000E02D0995E201640C751CD601ED91FC914D
:10123000C615D7055CF40088F189E02D870194017B
:10124000A501BE01C60109952196EFCF0688F78951
:10125000E02DC601DF91CF911F910F91FF90EF908C
:10126000DF90CF90BF90AF909F908F907F906F90C6
:101270005F904F9009948F929F92AF92BF92CF92BE
:10128000DF92EF92FF920F931F93CF93DF93EC01C6
:101290005B014A016901E881F9810284F385E02D4F
:1012A000099595012C0D3D1D21503109E881F981E9
:1012B0000488F589E02D78018401A401B501CE01EF
:1012C0000995E881F9810688F789E02DCE01DF9143
:1012D000CF911F910F91FF90EF90DF90CF90BF9033
:1012E000AF909F908F9009948F929F92AF92BF92F0
:1012F000CF92DF92EF92FF920F931F93CF93DF93E2
:10130000EC015B014A0169017801E881F9810284FD
:10131000F385E02D0995C80CD91C860101501109EF
:10132000E881F9810488F589E02D9501A401B501D2
:10133000CE010995E881F9810688F789E02DCE0173
:10134000DF91CF911F910F91FF90EF90DF90CF90A1
:10135000BF90AF909F908F900994EF92FF920F9360
:101360001F93DC01ED91FC9100A0F1A1E02D099506
:101370001F910F91FF90EF9008950F931F93DC0141
:10138000ED91FC91068CF78DE02D09951F910F9141
:1013900008950F931F93DC01ED91FC91048CF58D62
:1013A000E02D09951F910F910895DC01ED91FC91BD
:1013B0000084F185E02D09942F923F924F925F9225
:1013C0006F927F928F929F92AF92BF92CF92DF9255
:1013D000EF92FF920F931F93CF93DF9300D000D033
:1013E00000D0CDB7DEB72C017E836D836A01590131
:1013F000C801FC82EB824801841A950A97FE03C05B
:1014000091948194910835012D813E81621A730A6D
:1014100077FE03C0719461947108681479045CF4D8
:101420003A2D2B2D5C01832F922F3D812E81DE8260
:10143000CD82C32ED22EAD81BE81AA16BB065CF42E
:101440003C2D2D2D6C01832F922F3D812E81BE824C
:10145000AD82A32EB22E85012D813E81021B130B7E
:101460001C012C183D0837FE03C03194219431082B
:10147000780117FF03C03FEFE31AF30AF594E794EE
:10148000C816D9062CF08FEF9FEF9A83898304C08A
:10149000A1E0B0E0BA83A9832D813E81A216B306F4
:1014A00024F1D201ED91FC910484F585E02D2B818E
:1014B0003C816814790424F44D815E81B60103C037
:1014C000A6016D817E81C2010995E218F308F7FE3D
:1014D00006C029813A81C20ED31EE00EF11E8D8115
:1014E0009E8101969E838D83D7CF26960FB6F89462
:1014F000DEBF0FBECDBFDF91CF911F910F91FF9047
:10150000EF90DF90CF90BF90AF909F908F907F90A3
:101510006F905F904F903F902F900895FC0177FD62
:10152000B9C080859185681779070CF0B3C057FD65
:10153000B1C082859385481759070CF008958689B4
:10154000823079F484819581DC01A61BB70BBD0143
:101550006150710986819781DC01A41BB50BAD0137
:101560000EC0833009F084C064277527CA0186271E
:1015700097276827792746815781481B590B415087
:1015800051092130310531F048F12230310509F49B
:101590004AC00895CA0157FD07969C01A3E03595FE
:1015A0002795AA95E1F7A481B5812A9FC0012B9FB9
:1015B000900D3A9F900D1124680F791F078CF0A1B0
:1015C000E02DE60FF71F4770552781E090E001C03E
:1015D000880F4A95EAF79081892B48C0CA0157FDC8
:1015E00007969C0193E0359527959A95E1F7A4819C
:1015F000B5812A9FC0012B9F900D3A9F900D112419
:10160000680F791F078CF0A1E02DE60FF71F4770D8
:10161000552781E090E001C0880F4A95EAF7809550
:101620009081892323C0CA0157FD07969C0183E05E
:10163000359527958A95E1F7A481B5812A9FC00148
:101640002B9F900D3A9F900D1124680F791F078CE6
:10165000F0A1E02DE60FF71F4770552781E090E0DD
:1016600001C0880F4A95EAF7908189278083089501
:10167000813009F086CF64277527462757276427CE
:10168000752784819581DC01A61BB70BBD016150D4
:10169000710977CF0895089580E090E008958F92C2
:1016A0009F92AF92CF92EF92FF920F931F93CF939F
:1016B000DF93EC01262F898D9A8D009709F042C0A7
:1016C0006A3059F41D861C862D898E859F8538E0E9
:1016D000239F800D911D112443C06D3009F4AAC0D1
:1016E0008F898823C9F03C898C859D8546E0349F8D
:1016F000800D911D1124488559854817590764F4B8
:101700001D861C863D898E859F8548E0349F800D0F
:10171000911D11249F878E87EA88FB880889198983
:101720004E855F856C857D85AD88CC88CE010E9415
:1017300063142C898C859D8536E0239F800D911D37
:1017400011243EC06A3079F41D861C862D89FC0167
:101750003896E4918E859F852E9F800D911D1124D2
:101760009F878E8767C06D3009F464C0FC01349692
:101770003491631708F45EC03296E491E61708F4DA
:1017800059C0462F431B342FFC013296859094900C
:1017900047E0349F800C911C1124F401329634915F
:1017A0003196E491332311F0E1110DC0F401349628
:1017B000E4912C898C859D85E29F800D911D1124DB
:1017C0009D878C8737C0F401359644915F895523F6
:1017D00019F15C89E32FF0E0E40FF11D47FDFA9564
:1017E0005E9FB0015F9F700D11244C855D85460F93
:1017F000571F688579856417750774F41D861C86E4
:101800003D89FC013896E4918E859F853E9F800D31
:10181000911D11249F878E87EA88FB880889198982
:101820004E855F856C857D85AD88CC88CE010E9414
:101830006314BCCF81E090E0DF91CF911F910F91B5
:10184000FF90EF90CF90AF909F908F9008950F935F
:101850001F93CF93DF93DC015696EC915697E230BD
:1018600071F0E330E9F0E13079F5FB0114960D9069
:10187000BC91A02DA41BB50BA21BB30B18C0EC018F
:10188000EC81FD81E61BF70BBF0161507109EE8110
:10189000FF81DF01A41BB50BAD01421B530B14C02C
:1018A000DA01EC01EE81FF81E61BF70B3197F7FDC2
:1018B0000DC0EC014E815F81E417F5073CF4AF01E8
:1018C000BD010E94471302C00E94AE13DF91CF9169
:1018D0001F910F9108950F931F93DC015696EC9181
:1018E0005697E23061F0E33009F1E13081F514966A
:1018F000ED91FC911597E41BF50B319723C0DC01AA
:101900001496ED91FC911597DF01A61BB70BBD0155
:10191000DC011696ED91FC911797DF01A41BB50B26
:10192000AD0141505109621B730B11C0FA01DC017A
:1019300016964D915C911797DA01A61BB70BBD0166
:10194000621B730BAB01BF010E94AE130CC057FDAD
:101950000AC0DC011696ED91FC9117974E175F07B0
:1019600014F40E9447131F910F9108950F931F9332
:10197000CF93DF93EC0188819981009729F02A8128
:101980003B812617370788F48B016F5F7F4F0E94DA
:101990008325009761F0998388831B830A832C81B8
:1019A0003D81232B11F4FC01108281E001C080E015
:1019B000DF91CF911F910F910895EF92FF920F93B6
:1019C0001F93CF93DF936115710511F480E01CC064
:1019D00041155105C1F07B01EC018C819D818A018B
:1019E000080F191FB801CE010E94B60C882371F3AD
:1019F000288139818C819D81B701820F931F0E94BC
:101A00005E261D830C8381E0DF91CF911F910F91A2
:101A1000FF90EF900895CF93DF93EC018881998137
:101A2000009711F00E94FA24198218821D821C82EC
:101A30001B821A82DF91CF910895EF92FF920F934C
:101A40001F93CF93DF93EC01198218821B821A82B5
:101A50001D821C826115710521F18B01FB01019032
:101A60000020E9F731977F01E61AF70AB7010E94D3
:101A7000B60C811109C0CE01DF91CF911F910F915A
:101A8000FF90EF900C940B0DFD82EC82B8018881E1
:101A90009981DF91CF911F910F91FF90EF900C945E
:101AA0005E26DF91CF911F910F91FF90EF900895E7
:101AB0006115710579F0FB0101900020E9F731977C
:101AC000AF01461B570BDC01ED91FC910280F381C5
:101AD000E02D099480E090E008950F931F93CF9339
:101AE000DF93EC01FB014481558160817181E881C4
:101AF000F9810280F381E02D09958C0166E571E0A2
:101B0000CE010E94580D800F911FDF91CF911F9140
:101B10000F9108951F920F920FB60F9211242F93D9
:101B20003F934F935F936F937F938F939F93AF9365
:101B3000BF93EF93FF9384E292E00E94A006FF918F
:101B4000EF91BF91AF919F918F917F916F915F9135
:101B50004F913F912F910F900FBE0F901F901895AE
:101B60001F920F920FB60F9211242F938F939F9372
:101B7000EF93FF93E0913402F09135028081E09180
:101B80003A02F0913B0282FD12C0908180913D02A9
:101B90008F5F8F7320913E02821751F0E0913D02DA
:101BA000F0E0EC5DFD4F958F80933D0201C0808198
:101BB000FF91EF919F918F912F910F900FBE0F90FA
:101BC0001F9018951F920F920FB60F9211242F930A
:101BD0003F934F935F936F937F938F939F93AF93B5
:101BE000BF93EF93FF938091B900887F803609F40B
:101BF0009CC068F5883209F45BC090F4803109F428
:101C000054C038F4882309F4F6C0883009F44DC074
:101C1000F6C0883109F44CC0803209F45DC0EFC0D1
:101C2000803409F468C048F4803309F455C088331F
:101C300009F0E5C08093FD01D8C0803509F44FC09C
:101C4000883509F45DC0883409F0D9C0D6C0883918
:101C500009F4C7C0A8F4883709F467C038F4883697
:101C600009F463C0803709F460C0C9C0883809F43A
:101C7000B8C0803909F45FC0803809F0C0C05BC0CB
:101C8000803B09F486C038F4803A09F466C0883A8B
:101C900009F47FC0B4C0803C09F4A7C0883C09F4B3
:101CA000A4C0883B09F48AC0AAC08091DA0110C0A0
:101CB0009091FC018091FB01981770F5E091FC0177
:101CC00081E08E0F8093FC01F0E0E552FE4F8081B1
:101CD0008093BB0085EC86C08093FD018EC0E091AF
:101CE000FC0181E08E0F8093FC018091BB00F0E04D
:101CF000E552FE4F80839091FC018091FB016EC004
:101D0000E091FC0181E08E0F8093FC018091BB008B
:101D1000F0E0E552FE4F80838091FE0181116DC09D
:101D200081E08093D90184EA61C083E08093FF0160
:101D30001092D801CFCF8091D801803208F051C0E5
:101D4000E091D80181E08E0F8093D8018091BB0093
:101D5000F0E0E854FE4F8083BDCF85EC8093BC005B
:101D60001092FF018091D801803230F4E091D801C7
:101D7000F0E0E854FE4F10826091D80170E0E091ED
:101D80000D03F0910E0388EB91E009951092D801B4
:101D900036C084E08093FF011092B7011092B60123
:101DA000E0910F03F091100309958091B601811124
:101DB00005C081E08093B60110929601E091B701D1
:101DC00081E08E0F8093B701F0E0EA56FE4F8081EC
:101DD0008093BB009091B7018091B601981708F4E9
:101DE00079CF85E88093BC000AC085EC8093BC0065
:101DF0001092FF0104C01092FD010E943B07FF9169
:101E0000EF91BF91AF919F918F917F916F915F9172
:101E10004F913F912F910F900FBE0F901F901895EB
:101E200008958EBD00000DB407FEFDCF8EB5089558
:101E30001F93CF93DF93FC01858D968D009729F139
:101E4000162FEF0121A131E03093000220932202EE
:101E50001092010210922302DC01ED91FC9101909D
:101E6000F081E02D60E009958D8D9E8DDC01ED9176
:101E7000FC910190F081E02D612F09958D8D9E8D53
:101E8000DF91CF911F910C94F80FA5A5B6A59C9159
:101E900083A9809589238C93838D948D892B31F030
:101EA000862FDF91CF911F910C94110F28E030E025
:101EB00080E8A1A5B2A591A9462F482319F04C911D
:101EC000942B03C04C91909594239C93A3A5B4A507
:101ED0004C9192A9942B9C93A3A5B4A54C9192A943
:101EE000909594239C9386952150310911F7DF91A9
:101EF000CF911F9108958CBD9DBD08951F93CF93E1
:101F0000DF93EC01162F8D8D9E8D892BB1F02DA9BD
:101F10003EA94FA958AD60E074E284EF90E00E94C2
:101F20003A24DA01C9014097A109B109B695A795EC
:101F3000979587958093B8000FC08B8D9C8D892BCA
:101F400021F08EAD9FAD0E947B0FEFA5F8A9908187
:101F50008CA9809589238083111102C066EA01C093
:101F600067EACE010E94180F8D8D9E8D892BB1F0EE
:101F700029AD3AAD4BAD5CAD60E074E284EF90E02A
:101F80000E943A24DA01C9014097A109B109B69526
:101F9000A795979587958093B80006C0EFA5F8A9F7
:101FA00090818CA9892B8083DF91CF911F91089517
:101FB0002091C7023091C802C901079697FD079684
:101FC00023E0959587952A95E1F72091C5023091F8
:101FD000C602829FA001839F500D929F500D112435
:101FE00060E070E08091E0029091E1020C9457264D
:101FF00030912302313208F04BC08091FF018111F2
:10200000FCCF9091220222E02093FF0121E0209357
:10201000FE012FEF2093FD011092FC013093FB0194
:10202000E2E0F2E0ABEDB1E020E0321721F04191C7
:102030004D932F5FFACF1092DA012091DA01990FB8
:10204000922B9093DA019091D901913061F4109222
:10205000D9019091DA019093BB009091BC0093FD5F
:10206000F8CF95EC01C095EE9093BC009091FF01E4
:102070009230E1F39091FD019F3F79F08091FD0155
:10208000803241F08091FD01803331F084E005C061
:1020900081E003C082E001C083E01092010210924F
:1020A0002302109200020895EF92FF920F931F9364
:1020B000CF93DF937C01C62F8091DE029091DF02E7
:1020C000009709F459C02091E20231E030930002F8
:1020D000209322021092010210922302DC01ED9162
:1020E000FC910190F081E02D60E009958701EE24DC
:1020F000E394F12CD1E08091DE029091DF02CC23B9
:1021000099F1B0E2EB16F104D8F00E94F80F80913B
:10211000E202D093000280932202109201021092F8
:1021200023028091DE029091DF02DC01ED91FC91AF
:102130000190F081E02D60E00995EE24E394F12C0C
:102140008091DE029091DF02F8016491DC01ED9153
:10215000FC910190F081E02D0995BFEFEB1AFB0A8D
:10216000C1500F5F1F4FC7CFDF91CF911F910F91CC
:10217000FF90EF900C94F80FE091EE02F091EF02D7
:1021800090818091F4028095892380838701CC23FC
:1021900009F439C0F80184912091DC023091DD020C
:1021A000232B31F00E94110FC1500F5F1F4FEFCF53
:1021B00028E030E040E8E091EA02F091EB029091F3
:1021C000F202582F542319F05081952B03C05081EF
:1021D000909595239083E091EC02F091ED0250816F
:1021E0009091F302952B9083E091EC02F091ED0237
:1021F00050819091F30290959523908346952150BC
:102200003109C9F6D1CFDF91CF911F910F91FF9086
:10221000EF900895DF92EF92FF920F931F93CF9369
:10222000DF938091DE029091DF02892BD1F0209123
:10223000F6023091F7024091F8025091F90260E005
:1022400074E284EF90E00E943A24DA01C9014097D9
:10225000A109B109B695A795979587958093B80080
:1022600016C08091DC029091DD02892B31F08091C3
:10227000FF02909100030E947B0FE091F002F09129
:10228000F10290818091F50280958923808365E039
:1022900084E497E00E9454106091C502615081EC83
:1022A00092E00E94180F2091C7023091C802C90124
:1022B000079697FD079653E0959587955A95E1F710
:1022C0002091C5023091C602829F8001839F100D2C
:1022D000929F100D1124C091E002D091E1028091F3
:1022E000DE029091DF020C0F1D1F009709F451C010
:1022F0002091E20231E030930002209322021092FA
:10230000010210922302DC01ED91FC910190F08119
:10231000E02D60E40995EE24E394F12CDD24D394C0
:102320008091DE029091DF020C171D0779F1B0E277
:10233000EB16F104D8F00E94F80F8091E202D092DF
:1023400000028093220210920102109223028091D7
:10235000DE029091DF02DC01ED91FC910190F081B1
:10236000E02D60E40995EE24E394F12C8091DE02E7
:102370009091DF026991DC01ED91FC910190F08177
:10238000E02D0995BFEFEB1AFB0ACACF0E94F80FA8
:1023900041C0E091EE02F091EF0290818091F40251
:1023A000892B80830C171D07A9F189912091DC02EC
:1023B0003091DD02232B19F00E94110FF3CF28E09A
:1023C00030E040E8E091EA02F091EB029091F202F5
:1023D000582F542319F05081952B03C050819095AC
:1023E00095239083E091EC02F091ED025081909161
:1023F000F302952B9083E091EC02F091ED02508175
:102400009091F30290959523908346952150310940
:10241000C9F6C8CF8091DE029091DF02892BD1F0FE
:102420002091FA023091FB024091FC025091FD0292
:1024300060E074E284EF90E00E943A24DA01C9017E
:102440004097A109B109B695A7959795879580936F
:10245000B80018C0E091F002F091F10290818091F3
:10246000F502892B80838091DC029091DD02892B1B
:1024700049F0DF91CF911F910F91FF90EF90DF9086
:102480000C94100FDF91CF911F910F91FF90EF905F
:10249000DF9008953F924F925F926F927F928F925A
:1024A0009F92AF92BF92CF92DF92EF92FF920F93E3
:1024B0001F93CF93DF9300D000D000D0CDB7DEB70D
:1024C0002C013B014A015901C901079697FD079666
:1024D0009C0193E0359527959A95E1F73C832B83F2
:1024E000C12CD12CE12CF12C312CC3018E0D9F1D60
:1024F0009A838983E016F106C4F51E821D822D8120
:102500003E812A153B054CF5C90187709927892B17
:1025100011F0330C0EC0ED81FE81F7FD379683E09C
:10252000F595E7958A95E1F7EC0DFD1DE80DF91D90
:10253000349037FE0CC021E030E049815A816D8132
:102540007E81640D751D81EC92E00E94D5098D811C
:102550009E8101969E838D83D2CF9FEFE91AF90A5F
:102560002B813C81C20ED31EC0CF26960FB6F894A5
:10257000DEBF0FBECDBFDF91CF911F910F91FF90B6
:10258000EF90DF90CF90BF90AF909F908F907F9013
:102590006F905F904F903F900895FC0180819181F2
:1025A0000C94FA24EF92FF920F931F93CF93DF9333
:1025B000CDB7DEB764970FB6F894DEBF0FBECDBFC0
:1025C0007C01CB01BA018E010F5F1F4F22E044E076
:1025D0000E94F01DFC0101900020E9F73197AF0146
:1025E000481B590BBC01C7010E94DD0C811103C0BF
:1025F000C7010E940B0DC70164960FB6F894DEBFA9
:102600000FBECDBFDF91CF911F910F91FF90EF9043
:102610000895EF92FF920F931F93CF93DF93FC01E6
:1026200011821082138212821582148286179707F4
:1026300039F1DB010D911C9111970115110501F183
:10264000EC011496ED90FC901597B7010E94B60C22
:10265000811109C0CE01DF91CF911F910F91FF90A1
:10266000EF900C940B0DFD82EC82B801888199816A
:10267000DF91CF911F910F91FF90EF900C945E2608
:10268000DF91CF911F910F91FF90EF9008950F93DD
:102690001F93CF93DF9377FF04C0260F371F60E0AF
:1026A00070E0DC011496CD91DC911597FB01E20FEF
:1026B000F31FCE17DF071CF49E01261B370B1216E3
:1026C00013060CF046C0FA0157FD3796DF01E3E030
:1026D000B595A795EA95E1F7AC9FF001AD9FF00D98
:1026E000BC9FF00D11246E0F7F1FDC015F96ED91F2
:1026F000FC919097E60FF71F4770552781E090E017
:1027000001C0880F4A95EAF7482F0130110539F0CA
:1027100078F002301105E9F42E0F3F1F13C02E0F81
:102720003F1FE217F307A9F08081842B8193F9CF33
:1027300080952E0F3F1FE217F30759F090819823E1
:102740009193F9CFE217F30721F0808184278193D9
:10275000F9CFDF91CF911F910F910895EF92FF92E2
:102760000F931F93CF93DF93EC0177FDA5C0EC800F
:10277000FD806E157F050CF09FC057FF04C0240F2D
:10278000351F40E050E08E819F81FA01E20FF31F78
:102790008E179F071CF49C01241B350B1216130681
:1027A0000CF08AC0922F842F8695869586958E9DF3
:1027B000D0018F9DB00D11246A0F7B1FAF8DB8A182
:1027C000A60FB71F4770B1F188E0841B482F682F10
:1027D00070E0FB01E45CF84FE491281798F4621B69
:1027E00071092FEF30E002C0359527956A95E2F721
:1027F000E2230130110549F078F00230110509F0AB
:102800005BC00EC00130110519F48C91E82B0AC091
:102810000130110508F049C0E0958C91E82302C011
:102820008C91E827EC93941708F446C02C813D81E5
:10283000A20FB31FE92FE41BE830F8F002301105B6
:1028400061F48E2F9C9190959C932C813D81A20FD9
:10285000B31F88508830B0F70FC081E00115110513
:1028600009F480E081959E2F8C932C813D81A20FED
:10287000B31F98509830C0F7E770EE23E9F0F0E00E
:10288000EC5CF84FE4910130110539F048F002306A
:10289000110591F48C91E82706C08C91E82B03C0B8
:1028A000E0958C91E823EC9307C00230110509F400
:1028B000B7CFAE0DBF1DBECFDF91CF911F910F914E
:1028C000FF90EF9008952F923F924F925F926F92F8
:1028D0007F928F929F92AF92BF92CF92DF92EF92B0
:1028E000FF920F931F93CF93DF93CDB7DEB76B9714
:1028F0000FB6F894DEBF0FBECDBF9B8F8A8F1B0132
:102900004A01D22E198708873701A982DC0159961E
:102910002D913C915A972115310509F0FFC0189669
:102920008D919C911997681779070CF0E7C11A9659
:102930008D919C911B97481759070CF0DFC1EC2D26
:10294000F0E0FB83EA839B0146E0C49E200D311D2D
:1029500011243D872C87121613060CF0CFC16A2D67
:1029600070E07B876A8783E0660F771F8A95E1F7BF
:102970007F876E87CB01880D991D181619060CF0FC
:10298000BDC158968C91811104C08FEA8D1508F451
:10299000D394AA8DBB8DED91FC9111970284F385A0
:1029A000E02DCD010995B5E0DB9EC0011124EC2D91
:1029B000F0E0F98BE88B91012B5F3F4F3B8B2A8B2B
:1029C0003D822C822101AC01421953095D8B4C8B55
:1029D0007981672F70E07F8B6E8BC4010896998F89
:1029E000888FEC89FD89E40DF51DEC5CFD4FD490DA
:1029F00054019F828E82D0FE16C0AA8DBB8DED91B0
:102A0000FC91B1E0CB1209C02981213031F404845A
:102A1000F585E02D2885398519C00684F785E02DD8
:102A2000E884F9841DC0488559854615570519F174
:102A3000AA8DBB8DED91FC91B1E0CB120DC0298127
:102A4000213051F40484F585E02D9301A501B201F4
:102A50008A8D9B8D09950FC00684F785E02D730143
:102A60000A851B852A813B814E815F816C817D8136
:102A70008A8D9B8D0995D6943FEFA31AB30A4E8198
:102A80005F816E897F89460F571F5F834E83888DD4
:102A9000998DA816B90609F0AECF9FEF491A590AC9
:102AA000AC81BD81E889F989AE0FBF1FBD83AC83BE
:102AB0002A893B894216530609F093CF48855985E8
:102AC0004615570509F4F8C0AA8DBB8DED91FC9110
:102AD000B1E0CB1211C02981213071F4B1016B5FDB
:102AE0007F4F0088F189E02D830128E030E0A401C8
:102AF0008A8D9B8D0995E0C06C857D854A815B81BF
:102B0000641B750B0684F785E02D73010E851F8508
:102B10009A01A4018A8D9B8D0995CEC0F901349646
:102B2000E491DE1AF901329685919491B7E0DB9E2B
:102B3000800D911D1124F901259134913B8B2A8B35
:102B4000FC01259134915901FC0132965490319643
:102B500034913C87329674903196149141E04C1533
:102B600018F05981523068F0672D072C000C770B54
:102B70007D836C83812F012E000C990B9B838A83AC
:102B800004C01B821A821D821C82AA8DBB8DED910E
:102B9000FC9111970284F385E02DCD010995412C1C
:102BA000D12C612CF981EF2FF0E0FF83EE832C2DE7
:102BB00030E03B872A87A401410F511D17FD5A952C
:102BC0005F8B4E8BB101670D711D77FC7A95798F04
:102BD000688F7C85671608F06FC0262D30E04A812B
:102BE0005B81420F531FAE81BF81A49FC001A59F8F
:102BF000900DB49F900D1124F401E80FF91FF98B8B
:102C0000E88B842D712C4E895F89420F531F5D8B99
:102C10004C8B751408F04DC051E0580F5E878770DB
:102C200041F4C5010196EA89FB89EA0DFB1DD490A8
:102C30005C01D7FE3AC061E0C61216C079817130DE
:102C400099F4AA8DBB8DED91FC9111970484F585C3
:102C5000E02D288539854C895D89688D798D670DD2
:102C6000711DCD01099521C08C819D81870D911D1C
:102C7000EA85FB858E9FB0018F9F700D9E9F700D22
:102C80001124620D731DAA8DBB8DED91FC911197DE
:102C90000684F785E02DE884F9840E811F812A855A
:102CA0003B8548895989CD010995DD0C73948E8542
:102CB000B0CF450C63948DCFAA8DBB8DED91FC9167
:102CC00011970688F789E02DCD016B960FB6F89421
:102CD000DEBF0FBECDBFDF91CF911F910F91FF904F
:102CE000EF90DF90CF90BF90AF909F908F907F90AC
:102CF0006F905F904F903F902F9009946B960FB616
:102D0000F894DEBF0FBECDBFDF91CF911F910F9121
:102D1000FF90EF90DF90CF90BF90AF909F908F90FB
:102D20007F906F905F904F903F902F9008958330E9
:102D300081F028F4813099F08230A1F00895873035
:102D4000A9F08830B9F08430D1F4809180008F7D73
:102D500003C0809180008F7780938000089584B5B0
:102D60008F7702C084B58F7D84BD08958091B000B7
:102D70008F7703C08091B0008F7D8093B00008955D
:102D80001F93CF93DF93282F30E0F901E05EFD4FD2
:102D90008491F901E45FFD4FD491F901E850FE4FB1
:102DA000C491CC23C1F0162F81110E949716EC2FED
:102DB000F0E0EE0FFF1FE251FE4FA591B4919FB7D7
:102DC000F894111104C08C91D095D82302C0EC91D5
:102DD000DE2BDC939FBFDF91CF911F910895CF939E
:102DE000DF9390E0FC01E45FFD4F2491FC01E8508B
:102DF000FE4F8491882361F190E0880F991FFC01B8
:102E0000EC51FE4FC591D491FC01E251FE4FA591CA
:102E1000B491611109C09FB7F894888120958223ED
:102E20008883EC912E230BC0623061F49FB7F89435
:102E30008881322F309583238883EC912E2B2C931D
:102E40009FBF06C08FB7F894E8812E2B28838FBFD1
:102E5000DF91CF9108958E3008F08E508770806496
:102E600080937C0080917A00806480937A008091C6
:102E70007A0086FDFCCF809178002091790090E067
:102E8000922B08953FB7F8948091220390912303E9
:102E9000A0912403B091250326B5A89B05C02F3F20
:102EA00019F00196A11DB11D3FBFBA2FA92F982F70
:102EB0008827820F911DA11DB11DBC01CD0142E0EB
:102EC000660F771F881F991F4A95D1F708958F9233
:102ED0009F92AF92BF92CF92DF92EF92FF926B01DF
:102EE0007C010E9442174B015C01C114D104E10432
:102EF000F104F1F00E944217DC01CB018819990915
:102F0000AA09BB09883E9340A105B10570F321E0F1
:102F1000C21AD108E108F10888EE880E83E0981EF5
:102F2000A11CB11CC114D104E104F10419F7DDCFD7
:102F3000FF90EF90DF90CF90BF90AF909F908F90D9
:102F400008950E9449261F920F920FB60F921124E6
:102F50002F933F938F939F93AF93BF9380911E03C3
:102F600090911F03A0912003B091210330911D0384
:102F700023E0230F2D3720F40196A11DB11D05C0BC
:102F800026E8230F0296A11DB11D20931D038093F7
:102F90001E0390931F03A0932003B09321038091FD
:102FA000220390912303A0912403B091250301965D
:102FB000A11DB11D8093220390932303A0932403AA
:102FC000B0932503BF91AF919F918F913F912F9126
:102FD0000F900FBE0F901F9018958EE291E0909386
:102FE000C2028093C1028091E0029091E1020097B9
:102FF00011F00C94FA240895E4E2F2E013821282B4
:1030000048EE53E060E070E0448355836683778345
:103010008AE091E09183808385EC90E095878487B6
:1030200084EC90E09787868780EC90E0918B808B92
:1030300081EC90E0938B828B82EC90E0958B848B7B
:1030400086EC90E0978B868B118E128E138E148EE9
:10305000A1E0B3E013961C921E92129714964D9322
:103060005D936D937C9317978CE191E011969C93FF
:103070008E93E1ECF2E01382128220E830E0358397
:10308000248380E490E09783868331872087938729
:103090008287168A158614861786168681E0858BA8
:1030A000848B2FEF3FEF338B228B318B208B878BE1
:1030B000108E128E118E8EE291E091838083148E99
:1030C000138EB68FA58F10A2178E8FEF84A385A3C2
:1030D00086A387A380A780E89AE1A6E0B0E085AB4D
:1030E00096ABA7ABB0AF80EA96E8A1E0B0E081AFC5
:1030F00092AFA3AFB4AF80E586AF17AE0895CF937C
:10310000DF93CDB7DEB7AD970FB6F894DEBF0FBE35
:10311000CDBF789484B5826084BD84B5816084BD60
:1031200085B5826085BD85B5816085BD80916E0065
:10313000816080936E001092810080918100826096
:1031400080938100809181008160809381008091D3
:1031500080008160809380008091B10084608093C2
:10316000B1008091B00081608093B00080917A00BE
:10317000846080937A0080917A00826080937A00E4
:1031800080917A00816080937A0080917A008068D3
:1031900080937A001092C100E0913402F0913502E0
:1031A00082E08083E0913002F09131021082E09160
:1031B0003202F09133028FEC808310923C02E09156
:1031C0003802F091390286E08083E0913602F09176
:1031D0003702808180618083E0913602F09137026E
:1031E000808188608083E0913602F091370280818F
:1031F00080688083E0913602F091370280818F7D74
:1032000080838091E0029091E102892B11F5209159
:10321000C7023091C802C901079697FD079623E0BF
:10322000959587952A95E1F72091C5023091C602C0
:10323000AC01429FC001439F900D529F900D1124FD
:103240000E9462249093E1028093E002892B09F4AA
:103250002CC10E94D80F2091C7023091C8028091E2
:10326000C5029091C602213231050CF44CC3B9015C
:103270006054710977FF02C06F5F7F4F7595679546
:103280008255910997FD019600E410E022E530E0B7
:103290004BE359E0959587950E944A1282E080930E
:1032A000E3028091DE029091DF02892B09F43FC393
:1032B0008CE38093E2021092120310921103109299
:1032C0000102109223021092FF0181E08093FE011F
:1032D0001092D90161E082E10E94C01661E083E1B1
:1032E0000E94C0168091B9008E7F8093B9008091B2
:1032F000B9008D7F8093B90088E48093B80085E49D
:103300008093BC008DE697E09093100380930F03A9
:103310008EE697E090930E0380930D038091E9026F
:1033200087FD1EC061E00E94EF1661E08091E90216
:103330000E94C01661E070E080E090E00E94671794
:1033400060E08091E9020E94C0166AE070E080E0CF
:1033500090E00E94671761E08091E9020E94C01628
:103360008091DE029091DF02892B09F49FC32091A6
:10337000F6023091F7024091F8025091F90260E0B4
:1033800074E284EF90E00E943A24DA01C901409788
:10339000A109B109B695A795979587958093B8002F
:1033A00064E087E597E00E9454106091C702615085
:1033B00081EC92E00E94180F64E083E597E00E94A0
:1033C00054108091E302813009F487C364E181ECF9
:1033D00092E00E94180F64E08FE497E00E9454107E
:1033E0008FE88093FE028091C5029091C6028038DA
:1033F000910509F076C38091C7029091C80280348C
:10340000910509F080C38091E302813009F467C31C
:103410008FEC8093FE0212E16AED81EC92E00E9453
:10342000180F612F81EC92E00E94180F61E881EC87
:1034300092E00E94180F6091FE0281EC92E00E94DF
:10344000180F69ED81EC92E00E94180F8091E30261
:10345000813009F45AC361EF81EC92E00E94180FA9
:1034600066E089E497E00E9454108091DE0290911A
:10347000DF02892B09F44BC32091FA023091FB0241
:103480004091FC025091FD0260E074E284EF90E014
:103490000E943A24DA01C9014097A109B109B69501
:1034A000A795979587958093B8000E940A1160EDC3
:1034B00077E080E090E00E9467170E94D80F60E0FC
:1034C0008CE00E94EF1611E092E0292E312C8EE064
:1034D0000E942B17BC01990F880B990B0E94492061
:1034E0006B017C012AE038E240EA5BE30E94A820FD
:1034F0009B01AC0160E070E080EA90E40E940A2247
:1035000020E030E040E85FE30E949D219B01AC0198
:1035100060E070E48CE196E40E940A229B01AC0119
:1035200060E079ED88EF97E40E940A224B015C018C
:1035300020E030E0A9010E94AB22181624F0B7FA6F
:10354000B094B7F8B0942EE336E245E95FE3C501E5
:10355000B4010E9400236093190370931A038093AF
:103560001B0390931C038FE00E942B17BC01990F43
:10357000880B990B0E9449209B01AC0160E070EC24
:103580008FE794E40E940A2220E030E040E85FE305
:103590000E949D2120E030E44CE156E40E94A820E6
:1035A0000E94B8224B015C012CE63FEC48E554E355
:1035B0000E94A820A50194010E94A820A5019401C1
:1035C0000E94A8202B013C0126ED34E649E759E38F
:1035D000C501B4010E94A8202BEC38E444E85AE36A
:1035E0000E949E219B01AC01C301B2010E949E2159
:1035F0009B01AC0160E070E080E89FE30E940A223A
:1036000023E333E948E853E40E949D2160931503C6
:10361000709316038093170390931803A7019601E4
:10362000C701B6010E945023882319F069E571E0B3
:103630001AC046015701E894B7F82FEF3FEF4FE764
:103640005FE7C501B4010E945023811111C02FEF23
:103650003FEF4FE75FE7C501B4010E944220181613
:103660003CF46DE571E084E292E00E94580D9EC04A
:103670002FEF3FEF4FE75FE4C701B6010E94AB2297
:1036800018161CF461E671E0EECF2FEF3FEF4FE725
:103690005FECC701B6010E94422087FDF3CF20E016
:1036A00030E0A901C701B6010E94422087FF09C08E
:1036B0006DE284E292E00E94C206F7FAF094F7F815
:1036C000F0942AE037ED43EA5BE3C701B6010E94BC
:1036D0009E216B017C010E947C224B015C010E94B7
:1036E00047209B01AC01C701B6010E949D212B011F
:1036F0003C0119A27E0151E2E50EF11CDE2CCF2C1B
:10370000C501B4012AE030E040E050E00E943A24D4
:1037100049015A01605DF70162937F01232B242B3D
:10372000252B71F7BF0184E292E00E94580D6EE2F2
:1037300084E292E00E94C20603E00150B9F120E069
:1037400030E040E251E4C301B2010E94A8204B01E5
:103750005C010E947C229B0140E050E019A2ED2C0C
:10376000FC2C2B013A01CA01B9012AE030E040E00B
:1037700050E00E943A24605DF70162937F012115B9
:1037800031054105510579F7BF0184E292E00E94BD
:10379000580DB201C3010E9447209B01AC01C50135
:1037A000B4010E949D212B013C01C7CF66E571E069
:1037B00084E292E00E94580DECE2F2E08491E8E1AC
:1037C000F2E0F490E4E0F2E00491002309F4B2C1E5
:1037D00081110E949716E02FF0E0EE0FFF1FE550D9
:1037E000F44FA591B4918C91F82209F4A3C10E94E1
:1037F000D80F1093D5021093D60241E050E05093B9
:10380000D4024093D3025093D2024093D10230921B
:10381000CE022092CD023092D0022092CF0280912F
:103820001403882339F1C0901903D0901A03E09053
:103830001B03F0901C0365E671E0CE0182960E94A6
:103840001D0DBE016E5D7F4FCE0101960E940913D2
:10385000B701A601CE0101960E94D212BC0181ECF3
:1038600092E00E946D0DCE0101960E94CD12CE0114
:1038700082963CC06BE671E0CE0101960E941D0D60
:10388000C0901503D0901603E0901703F090180332
:103890006EE671E0CE0188960E941D0DBE01685D46
:1038A0007F4FCE0182960E940913B701A601CE0177
:1038B00082960E94D2127C014D815E8169817A815B
:1038C0000E94DD0C811103C0C7010E940B0DB701DE
:1038D00081EC92E00E946D0DCE0182960E94CD1285
:1038E000CE0188960E94CD12CE0101960E94CD1283
:1038F0000E940A116AEF70E080E090E00E94671772
:103900000E943107E4CDB9016052710977FF02C00E
:103910006F5F7F4F759567958357910997FD019666
:1039200000E210E023E730E04BE557E0B3CC61E084
:103930008091E7020E94EF1661E08091E8020E9408
:10394000EF168091E702082E000C990BFC01E8505D
:10395000FE4FE491F0E0EE0FFF1FE251FE4F259184
:1039600034913093EF022093EE02FC01E45FFD4FAF
:10397000E491E093F4028091E802082E000C990B88
:10398000FC01E850FE4FE491F0E0EE0FFF1FE25122
:10399000FE4FA591B491B093F102A093F002FC0107
:1039A000E45FFD4FE491E093F5028C91E82BEC93FA
:1039B0008091DC029091DD02892B09F434C01FB79D
:1039C000F89480911303811127C0E2E0F2E0849122
:1039D000E6E1F2E09491E82FF0E0EE0FFF1FEC51EA
:1039E000FE4FA591B491EC91E92321F461E08AE0C6
:1039F0000E94C01661E08AE00E94EF168CB58061DB
:103A00008CBD8CB580648CBD61E08DE00E94EF16AA
:103A100061E08BE00E94EF16809113038F5F80932B
:103A200013031FBF7BCC61E08091E5020E94EF167B
:103A300061E08091E6020E94EF168091E502082E77
:103A4000000C990BFC01E850FE4FE491F0E0EE0F02
:103A5000FF1FE251FE4F259134913093EB022093EA
:103A6000EA02FC01E45FFD4FE491E093F2028091F1
:103A7000E602082E000C990BFC01E850FE4FE49181
:103A8000F0E0EE0FFF1FE251FE4FA591B491B0930D
:103A9000ED02A093EC02FC01E45FFD4FE491E093A2
:103AA000F3028C91E095E823EC9338CC8091DC0212
:103AB0009091DD02892B31F08091FF0290910003FB
:103AC0000E947B0FE091F002F091F10290818091D1
:103AD000F50280958923808363CC60E178CC8FE9FF
:103AE00098CC8036910579F48091C7029091C802F4
:103AF000409749F48091E302813011F08FEA01C0D0
:103B000080E18093FE0212E087CC62E2A5CCE091D6
:103B1000F002F091F10290818091F502892B80836F
:103B20008091DC029091DD02892B09F4BECC0E94C9
:103B3000100FBBCC80911403812780931403C09095
:103B40001503D0901603E0901703F09018036EE66B
:103B500071E0CE0182960E941D0DBE016E5D7F4F09
:103B6000CE0101960E940913B701A601CE0101966C
:103B70000E94D212BC0184E292E00E946D0DCE013F
:103B800001960E94CD12CE0182960E94CD12C09065
:103B90001903D0901A03E0901B03F0901C0365E614
:103BA00071E0CE0182960E941D0DBE016E5D7F4FB9
:103BB000CE0101960E940913B701A601CE0101961C
:103BC0000E94D212BC0184E292E00E946D0DCE01EF
:103BD00001960E94CD12CE0182960E94CD1207CE90
:103BE000EF920F931F93CF93DF93E80147FD02C03D
:103BF00034E001C034E1042E000C550B57FF03C024
:103C0000519541955109E32E022F242FAE010E94B8
:103C1000101ECE01DF91CF911F910F91EF9008956B
:103C2000A9E0B0E0E6E1FEE10C946C216A01122FFC
:103C3000B02E2BE3201720F0FF24F394F00E02C0E7
:103C40002CE3F22E0F2D27E0AE014F5F5F4F0E9455
:103C50006A1FBC014981842F8970813031F0E1FCF9
:103C600006C0E0FE06C090E205C09DE203C09BE2F4
:103C700001C090E05E2D507143FF3CC0911102C025
:103C800083E001C084E0811718F4212F281B01C0B4
:103C900020E051110BC0F601822F30E2882319F089
:103CA00031938150FBCFC20ED11C20E0992329F023
:103CB000D6019C93F60131966F01C6010396E2FE90
:103CC0000AC03EE4D6013C9341E411964C9311970F
:103CD00012963C9306C03EE6F601308341E64183EE
:103CE0003283FC01322F40E2332309F442C0419376
:103CF0003150FACF42FF44C0911102C083E001C0AD
:103D000084E0811718F4212F281B01C020E05111F5
:103D10000BC0F601822F30E2882319F031938150D5
:103D2000FBCFC20ED11C20E0992329F0D6019C9331
:103D3000F60131966F01C6010396E2FE0BC039E42D
:103D4000D6013C933EE411963C93119736E41296CB
:103D50003C9307C039E6F60130833EE6318336E610
:103D60003283FC01322F40E2332319F0419331506A
:103D7000FBCFFC01E20FF11D10828EEF9FEFA6C07A
:103D800021E030E0911102C020E030E01616170665
:103D90001CF4FB01319602C0E1E0F0E02E0F3F1F62
:103DA000BB2021F0EB2DF0E0319602C0E0E0F0E026
:103DB0002E0F3F1FE12FF0E02E173F071CF4121BC0
:103DC000212F01C020E08E2D887159F4F601822F39
:103DD00030E2882319F031938150FBCFC20ED11C01
:103DE00020E0992329F0D6019C93F60131966F01CA
:103DF00051110BC0F601822F90E3882319F09193A3
:103E00008150FBCFC20ED11C20E00F2D060F9A81EE
:103E1000342F307144FF03C0913309F40150101660
:103E200024F4093018F008E001C001E0AB0177FF8D
:103E300002C040E050E0FB01E41BF50BA1E0B0E064
:103E4000AC0FBD1FEA0FFB1F8EE2A82E4B01801A9C
:103E500091080B2D10E01195019511094F3FBFEF0F
:103E60005B0721F4D601AC9211966D0164177507BA
:103E70002CF08416950614F4818101C080E3415032
:103E800051093196D60111967D014017510724F052
:103E9000D6018C936701E2CF6417750739F4963326
:103EA00020F4953319F4311101C081E3F6018083C8
:103EB000F701822F90E2882319F091938150FBCF74
:103EC000F701E20FF11D108280E090E02996ECE00E
:103ED0000C948821283008F027E03327DA01990F65
:103EE000311D87FD916000966105710539F43260DE
:103EF0002E5F3D9330E32A95E1F708959F3F30F020
:103F000080387105610509F03C5F3C5F3D9391305D
:103F100008F08068911DDF93CF931F930F93FF925A
:103F2000EF92192F987F9695E92F96959695E90F20
:103F3000FF27EC5BFE4F99273327EE24FF24A701D0
:103F4000E70105900894079428F4360FE71EF81E41
:103F5000491F511D660F771F881F991F0694A1F7EF
:103F60000590079428F4E70EF81E491F561FC11D3F
:103F7000770F881F991F661F0694A1F70590079475
:103F800028F4F80E491F561FC71FD11D880F991F0F
:103F9000661F771F0694A1F70590079420F4490F38
:103FA000561FC71FD81F990F661F771F881F0694BB
:103FB000A9F784911095177041F0D695C79557953C
:103FC0004795F794E7941A95C1F7EAEEF0E0689404
:103FD0001590159135916591959105907FE27395B6
:103FE000E118F10A430B560BC90BD009C0F7E10CDD
:103FF000F11E431F561FC91FD01D7EF4703311F4EC
:104000008A95E6CFE894015030F0080F0AF40027B3
:10401000021708F4202F2395022F7A3328F079E332
:104020007D932A95E9F710C07D932A9589F6069429
:1040300097956795379517951794E118F10A430BF3
:10404000560BC90BD00998F023957E9173957A335E
:1040500008F070E37C932013B8F77E9170617D9334
:1040600030F0839571E37D9370E32A95E1F7112495
:10407000EF90FF900F911F91CF91DF91992787FDCE
:10408000909508950E94842008F481E00895E894B2
:1040900009C097FB3EF490958095709561957F4F90
:1040A0008F4F9F4F9923A9F0F92F96E9BB2793953E
:1040B000F695879577956795B795F111F8CFFAF44E
:1040C000BB0F11F460FF1BC06F5F7F4F8F4F9F4F7F
:1040D00016C0882311F096E911C0772321F09EE8DD
:1040E000872F762F05C0662371F096E8862F70E043
:1040F00060E02AF09A95660F771F881FDAF7880F1D
:104100009695879597F90895990F0008550FAA0B72
:10411000E0E8FEEF16161706E807F907C0F01216DA
:104120001306E407F50798F0621B730B840B950BDD
:1041300039F40A2661F0232B242B252B21F4089532
:104140000A2609F4A140A6958FEF811D811D0895CF
:104150000E94BB200C942C210E941E2138F00E944A
:10416000252120F0952311F00C9415210C941B218E
:1041700011240C9460210E943D2170F3959FC1F39E
:10418000950F50E0551F629FF001729FBB27F00D05
:10419000B11D639FAA27F00DB11DAA1F649F66275A
:1041A000B00DA11D661F829F2227B00DA11D621FA9
:1041B000739FB00DA11D621F839FA00D611D221F63
:1041C000749F3327A00D611D231F849F600D211D47
:1041D000822F762F6A2F11249F5750409AF0F1F0CA
:1041E00088234AF0EE0FFF1FBB1F661F771F881F33
:1041F00091505040A9F79E3F510580F00C94152135
:104200000C9460215F3FE4F3983ED4F38695779554
:104210006795B795F795E7959F5FC1F7FE2B880FD8
:10422000911D9695879597F9089597F99F6780E86E
:1042300070E060E008959FEF80EC089500240A94F8
:104240001616170618060906089500240A94121671
:104250001306140605060895092E0394000C11F4A4
:10426000882352F0BB0F40F4BF2B11F460FF04C051
:104270006F5F7F4F8F4F9F4F089557FD9058440FAA
:10428000551F59F05F3F71F04795880F97FB991FB5
:1042900061F09F3F79F08795089512161306140672
:1042A000551FF2CF4695F1DF08C0161617061806FF
:1042B000991FF1CF86957105610508940895E894DA
:1042C000BB2766277727CB0197F908952F923F9256
:1042D0004F925F926F927F928F929F92AF92BF9216
:1042E000CF92DF92EF92FF920F931F93CF93DF93C2
:1042F000CDB7DEB7CA1BDB0B0FB6F894DEBF0FBE1F
:10430000CDBF09942A88398848885F846E847D846B
:104310008C849B84AA84B984C884DF80EE80FD806D
:104320000C811B81AA81B981CE0FD11D0FB6F894E3
:10433000DEBF0FBECDBFED0108955058BB27AA27A1
:104340000E94B5210C942C210E941E2138F00E945D
:10435000252120F039F49F3F19F426F40C941B21F9
:104360000EF4E095E7FB0C941521E92F0E943D2106
:1043700058F3BA17620773078407950720F079F49A
:10438000A6F50C945F210EF4E0950B2EBA2FA02D0C
:104390000B01B90190010C01CA01A0011124FF27F2
:1043A000591B99F0593F50F4503E68F11A16F040ED
:1043B000A22F232F342F4427585FF3CF46953795EC
:1043C0002795A795F0405395C9F77EF41F16BA0BB1
:1043D000620B730B840BBAF09150A1F0FF0FBB1F5F
:1043E000661F771F881FC2F70EC0BA0F621F731FA8
:1043F000841F48F4879577956795B795F7959E3F05
:1044000008F0B0CF9395880F08F09927EE0F979595
:10441000879508950E941E220C942C210E9425212C
:1044200058F00E941E2140F029F45F3F29F00C94BF
:10443000152151110C9460210C941B210E943D21E7
:1044400068F39923B1F3552391F3951B550BBB27C3
:10445000AA2762177307840738F09F5F5F4F220F08
:10446000331F441FAA1FA9F335D00E2E3AF0E0E8FF
:1044700032D091505040E695001CCAF72BD0FE2F49
:1044800029D0660F771F881FBB1F261737074807DD
:10449000AB07B0E809F0BB0B802DBF01FF27935895
:1044A0005F4F3AF09E3F510578F00C9415210C9423
:1044B00060215F3FE4F3983ED4F386957795679546
:1044C000B795F7959F5FC9F7880F911D96958795CA
:1044D00097F90895E1E0660F771F881FBB1F6217E9
:1044E00073078407BA0720F0621B730B840BBA0BA7
:1044F000EE1F88F7E09508950E94452188F09F57A8
:1045000098F0B92F9927B751B0F0E1F0660F771FF7
:10451000881F991F1AF0BA95C9F714C0B13091F0ED
:104520000E945F21B1E008950C945F21672F782FDE
:104530008827B85F39F0B93FCCF3869577956795B2
:10454000B395D9F73EF490958095709561957F4F1E
:104550008F4F9F4F08950E94842008F48FEF089595
:1045600016F00C948F230C941B2168940C94152145
:104570000E944521A8F39923C1F3AEF3DF93CF93B3
:104580001F930F93FF92C92FDD2788232AF02197CD
:10459000660F771F881FDAF720E030E040E85FEB16
:1045A0009FE3883920F0803E38F021968F770E9473
:1045B0009E21E8E6F0E004C00E949E21E5E9F0E0DB
:1045C0000E949D238B01BE01EC01FB2E6F577109E8
:1045D0007595771F880B990B0E94492028E132E7D7
:1045E00041E35FE30E94BB20AF2D9801AE01FF9035
:1045F0000F911F91CF91DF910E94B5210C942C2136
:10460000FA01EE0FFF1F309621053105A1F161156A
:10461000710561F48038BFE39B0749F168949038D5
:10462000810561F08038BFEF9B0741F099234AF57F
:10463000FF3FE1053105210519F1E8940894E7955C
:10464000D901AA2329F4AB2FBE2FF85FD0F310C0F5
:10465000FF5F70F4A695E0F7F73950F019F0FF3AD4
:1046600038F49F779F930DD00F9007FC90580895D2
:1046700046F00C941B2160E070E080E89FE3089511
:104680004FE79F775F934F933F932F930E94B822FA
:104690002F913F914F915F910E94A8200C945D2330
:1046A0000E948420880B990B089529F416F00C942D
:1046B00015210C945F210C941B210E944521A8F325
:1046C0009638A0F707F80F92E8942BE33AEA48EB04
:1046D0005FE70E94BE200F920F920F924DB75EB718
:1046E0000F920E940624E2ECF0E00E949D234F917D
:1046F0005F91EF91FF91E595EE1FFF1F49F0FE5787
:10470000E0684427EE0F441FFA95E1F74195550BF9
:104710000E94D0230F9007FE0C94C42308959F3F5E
:1047200031F0915020F4879577956795B795880F6C
:10473000911D9695879597F90895DF93CF931F93D1
:104740000F93FF92EF92DF927B018C01689406C079
:10475000DA2EEF010E94BB20FE01E894A59125917D
:10476000359145915591A6F3EF010E94B521FE01C7
:104770009701A801DA9469F7DF90EF90FF900F910D
:104780001F91CF91DF9108959B01AC0160E070E033
:1047900080E89FE30C940A220C9415210C948F233B
:1047A0000E944521D8F39923C9F3940F511DA3F317
:1047B0009150504094F059F0882332F0660F771FE3
:1047C000881F91505040C1F79E3F51052CF7880F2C
:1047D000911D9695879597F908955F3FACF0983EA7
:1047E0009CF0BB27869577956795B79508F4B160DF
:1047F0009395C1F7BB0F58F711F460FFE8CF6F5FD7
:104800007F4F8F4F9F4FE3CF0C946021FA01DC0163
:10481000AA0FBB1F9B01AC01BF5728F422273327E7
:104820004427507820C0B75190F4AB2F0024469510
:1048300037952795011CA395D2F3002071F0220F24
:10484000331F441FB395DAF30ED00C949D216130D1
:104850007105A0E88A07B94630F49B01AC016627D0
:10486000772788279078309621F020833183428300
:1048700053830895A1E21A2EAA1BBB1BFD010DC094
:10488000AA1FBB1FEE1FFF1FA217B307E407F50700
:1048900020F0A21BB30BE40BF50B661F771F881FDC
:1048A000991F1A9469F760957095809590959B0172
:1048B000AC01BD01CF010895EE0FFF1F0590F491EB
:1048C000E02D09940F931F93CF93DF9382309105CE
:1048D00010F482E090E0E0912803F091290320E0B9
:1048E00030E0A0E0B0E0309719F1408151810281C1
:1048F000138148175907C8F08417950769F4109772
:1049000031F012960C93129713961C9327C00093C4
:1049100028031093290322C02115310519F04217ED
:10492000530718F49A01BD01EF01DF01F801DBCF55
:1049300021153105F9F0281B390B2430310580F49D
:104940008A819B816115710521F0FB01938382832C
:1049500004C09093290380932803FE01329644C03B
:10496000FE01E20FF31F81939193225031093983A5
:1049700028833AC02091260330912703232B41F44A
:1049800020910201309103013093270320932603E5
:1049900020910001309101012115310541F42DB71D
:1049A0003EB74091040150910501241B350BE09165
:1049B0002603F0912703E217F307A0F42E1B3F0B09
:1049C0002817390778F0AC014E5F5F4F2417350781
:1049D00048F04E0F5F1F50932703409326038193A7
:1049E000919302C0E0E0F0E0CF01DF91CF911F9101
:1049F0000F910895CF93DF93009709F481C0FC01D4
:104A0000329713821282A0912803B0912903109744
:104A100081F420813181820F931F209126033091F0
:104A200027032817390751F5F0932703E09326034E
:104A300067C0ED0120E030E0CE17DF0740F44A8187
:104A40005B819E0141155105F1F0EA01F5CFD38359
:104A5000C28340815181840F951FC817D90759F42B
:104A600088819981840F951F0296918380838A8122
:104A70009B81938382832115310529F4F0932903C7
:104A8000E09328033DC0E901FB83EA8349915991F2
:104A9000C40FD51FEC17FD0761F480819181840F4D
:104AA000951F0296E90199838883828193819B8374
:104AB0008A83E0E0F0E012968D919C911397009725
:104AC00019F0FD01DC01F7CF8D919C9111979D01AB
:104AD0002E5F3F4F820F931F2091260330912703B3
:104AE0002817390769F4309729F410922903109296
:104AF000280302C013821282B0932703A0932603D7
:104B0000DF91CF910895A0E0B0E0E9E8F5E20C94E0
:104B10006A21EC01009721F4CB010E946224B4C009
:104B2000FC01E60FF71F9C0122503109E217F30741
:104B300008F4A8C0D9010D911C9111970617170709
:104B4000B0F00530110508F49BC0C8010497861722
:104B5000970708F495C002501109061B170B019323
:104B600011936D937C93CF010E94FA2489C05B015D
:104B7000A01AB10A4C01800E911EA0912803B09199
:104B80002903612C712CE12CF12C109709F446C0FB
:104B90008D919C911197A815B905B1F56C0142E072
:104BA000C40ED11CCA14DB0478F14C018A189B088E
:104BB000640142E0C40ED11C1296BC901297139669
:104BC000AC91B5E0CB16D10440F0B282A3839182C0
:104BD0008082D9016D937C9309C00E5F1F4F800FB7
:104BE000911FF90191838083EB2DFA2FE114F104D9
:104BF00031F0D7011396FC93EE93129741C0F093D6
:104C00002903E09328033CC06816790608F43C01A8
:104C10007D0112960D90BC91A02DB7CF80912603F7
:104C20009091270388169906E1F466167706C8F472
:104C30008091000190910101009741F48DB79EB7DA
:104C40004091040150910501841B950BE817F90769
:104C5000C8F4F0932703E0932603F901718360837E
:104C60000FC0CB010E9462247C01009759F0A8017B
:104C7000BE010E944E26CE010E94FA24C70104C044
:104C8000CE0102C080E090E0CDB7DEB7EEE00C943C
:104C9000862181E090E0F8940C946526FB01DC010C
:104CA00002C001900D9241505040D8F70895DC01A8
:104CB00001C06D9341505040E0F70895FB01DC01C5
:104CC00001900D920020E1F7089516E0C4E0D6E0CF
:104CD00004C0FE010E945C242196C530D107C9F7AB
:044CE000F894FFCF76
:104CE40000002A03800000000000C2062F065906B7
:104CF4000F078A0668067C0600000000C8079B07A9
:104D04004C0B6F0793077F077007000000004F0BE1
:104D14002F064C0B4B0B8E0A6F07D509AD09C90939
:104D2400BD09DC096F07F8077E0F270C6B0CF6082A
:104D3400D9086C080D080D0A006E616E00696E6674
:104D4400006F7666004C55583A20002043005445C5
:064D54004D503A20000062
:00000001FF
